:020000040800F2
:1000000080080020A5010008FF2C0008352000080A
:1000100000000000000000000000000000000000E0
:100020000000000000000000000000000D32000889
:100030000000000000000000792D00089132000847
:10004000D5010008D5010008D5010008D501000838
:10005000D5010008D5010008D5010008D501000828
:10006000D5010008D5010008D5010008D501000818
:10007000D5010008D5010008D5010008D501000808
:10008000D5010008D501000800000000D5010008D6
:10009000D501000811330008D5010008D50100087A
:1000A000D5010008D5010008D5010008D5010008D8
:1000B000D501000800000000D50100080000000084
:1000C00000F002F800F03EF80CA030C80838241800
:1000D0002D18A246671EAB4654465D46AC4201D180
:1000E00000F030F87E460F3E0FCCB6460126334274
:1000F00000D0FB1AA246AB463343184748530000D2
:1001000068530000103A02D378C878C1FAD8520771
:1001100001D330C830C101D504680C6070470000BD
:100120000023002400250026103A01D378C1FBD813
:10013000520700D330C100D50B6070471FB51FBDFB
:1001400010B510BD00F099F91146FFF7F7FF03F065
:1001500091FD00F0B1F903B4FFF7F2FF03BC00F02A
:10016000B7F9000002B401008008081A020910184B
:10017000020A1018020C1018C0088200121852004F
:10018000891A04BC1170704740BA704730B400231C
:100190000024055B2B4414440139FADC180030BC00
:1001A000704700000F4880F308880F480168090E67
:1001B0000E4A914205D10E480E4901600E480F4982
:1001C00001600F4880470F480047FEE7FEE7FEE763
:1001D000FEE7FEE7FEE700000B480C490C4A0D4B1A
:1001E0007047000080080020040000001F0000008D
:1001F0001810024001000000000001400000000053
:1002000095320008C100000880020020800800200C
:100210008004002080040020FEB5054610460C46F0
:10022000184373D0AE468C460020AD1A01469C415F
:1002300067D36646002701243D46B61A9D4102D386
:1002400013463A462124654676462F04360C3E4333
:100250002D0CB61A9D4104D3150C1B042B4312041C
:100260001034654676462F06360A3E432D0AB61AE6
:100270009D4104D3150E1B022B4312020834654620
:1002800076462F0736093E432D09B61A9D4104D301
:10029000150F1B012B431201241D65467646AF073F
:1002A000B6083E43AD08B61A9D4104D3950F9B0096
:1002B0002B439200A41C65467646EF0776083E4322
:1002C0006D08B61A9D411AD392185B41641C16E062
:1002D0000018764665464941B71A9D410191009044
:1002E00009D36046B11A98418E4684460098019918
:1002F0000025401C6941DD0752082A435B08641E43
:10030000E6D57246634603B0F0BDFFE70020014624
:10031000C046C0462A462346F5E7002203098B4221
:100320002CD3030A8B4211D300239C464EE0034694
:100330000B433CD4002243088B4231D303098B4248
:100340001CD3030A8B4201D394463FE0C3098B427E
:1003500001D3CB01C01A524183098B4201D38B01D7
:10036000C01A524143098B4201D34B01C01A52417A
:1003700003098B4201D30B01C01A5241C3088B42BF
:1003800001D3CB00C01A524183088B4201D38B00AA
:10039000C01A524143088B4201D34B00C01A52414C
:1003A000411A00D201465241104670475DE0CA0F23
:1003B00000D04942031000D34042534000229C46E3
:1003C00003098B422DD3030A8B4212D3FC228901ED
:1003D00012BA030A8B420CD3890192118B4208D3C3
:1003E000890192118B4204D389013AD0921100E025
:1003F0008909C3098B4201D3CB01C01A5241830939
:100400008B4201D38B01C01A524143098B4201D365
:100410004B01C01A524103098B4201D30B01C01A90
:100420005241C3088B4201D3CB00C01A524183080A
:100430008B4201D38B00C01A5241D9D243088B4260
:1004400001D34B00C01A5241411A00D20146634603
:1004500052415B10104601D34042002B00D5494267
:10046000704763465B1000D3404201B50020C04690
:10047000C04602BD704770477047754600F024F8CB
:10048000AE46050069465346C008C000854618B010
:1004900020B5FFF7A1FE60BC00274908B64600263C
:1004A000C0C5C0C5C0C5C0C5C0C5C0C5C0C5C0C524
:1004B000403D49008D46704710B50446C046C046D1
:1004C0002046FFF748FE10BD00487047200200207C
:1004D00001491820ABBEFEE726000200704700006D
:1004E0004048408B40490880084600883F494843BF
:1004F00040013F4908603C4800883C4948430002AD
:100500003C490860052080033B4908603B483C4962
:1005100008603C4840693C4908433A4948610846FC
:10052000806949150843374988610920C006006879
:100530000F2108430921C90608600846C068000960
:100540000001C860314832490861324848614020A2
:10055000C8603148886008468068012108432C49FA
:1005600088600120400329494039C86000200861A3
:100570000720486129488862800529498860234806
:1005800040388068C905084320494039886000BF69
:100590001E4840388068C00FC0070028F8D12148A5
:1005A0001A494039C8600846806801210843174944
:1005B0004039886000BF154840388068C007C00FC8
:1005C0000028F8D0114840388068042108430F49BA
:1005D00040398860FF205F301349088000201349AC
:1005E00008707047A0F7FF1F8A000020E40C00008D
:1005F000980000208C00002090000020D6380000D9
:100600009400002000100240010006004024014038
:1006100000000240A0010020A0250000010002000F
:10062000002701400320000088000020A0000020D7
:10063000F8B51F480088FF215F31884200DAF8BD15
:1006400000201B490880042220211A48FFF79EFD44
:1006500019490860042220211648801CFFF796FDE6
:10066000154948600846416814480068FFF755FE80
:1006700013490880104840681249096848430746F2
:100680000D4800681049096802F08AFE05463A469E
:100690000023FFF7C1FD04460C490988601A00B227
:1006A0000B49088001200B49087000BFC7E7000014
:1006B00088000020A0010020800000209800002079
:1006C0009E000020900000208C000020940000205C
:1006D0009C000020A000002002480088401C014926
:1006E000088070478800002010B50446204603F0BB
:1006F000AFFA002804D1204603F0B3FA002818D03E
:100700000E488078C007C00F002808D00B488078BA
:10071000FE2108400949887002F04BFB07E00748BA
:100720008078012108430549887002F048FB02F0F7
:1007300031FC012000F074FE10BD000020010020FB
:1007400070B505461448007A8407A40F284603F0C4
:100750007FFA002803D0032C01D2601CC4B22846C3
:1007600003F07FFA002803D0002C01D0601EC4B231
:10077000284603F06DFA002804D1284603F071FAE8
:10078000002805D00448047202F018FD02F0E0FBD6
:10079000012000F001FE70BDE000002070B50646AB
:1007A000042002F089FB0446264800788000264990
:1007B0000D58304603F04CFA002804D06019234944
:1007C000884200D86419304603F04BFA002804D060
:1007D0001F482818A04200D8641B304603F038FA9E
:1007E000002804D1304603F03CFA002808D0214606
:1007F000042002F07FFB02F0E1FC02F0A9FB1BE009
:10080000012E0AD10F480078401CC0B20D49087073
:10081000072811D9022008700EE0022E0CD10948D9
:100820000078022803D807200649087004E005482C
:100830000078401E034908700248007800F0FAFC76
:1008400070BD000007000020D03C000800A8610037
:10085000CC5B000010B50446204603F0F9F90028EF
:1008600004D1204603F0FDF9002818D00E48407846
:10087000C007C00F002802D002F0A7FA0DE002F076
:1008800051FC002809D002F0AFFC002805D0064832
:10089000C078002801D102F09EFA02F07BFB012013
:1008A00000F0EAFD10BD00002001002070B50646F2
:1008B0000C2002F001FB0446254800788000254901
:1008C0000D58304603F0C4F9002804D060192249BD
:1008D000884200D86419304603F0C3F9002804D0D8
:1008E0001E482818A04200D8641B304603F0B0F917
:1008F000002804D1304603F0B4F9002806D0214680
:100900000C2002F0F7FA02F093FE1BE0012E0AD150
:100910000F480078401CC0B20D490870072811D953
:10092000012008700EE0022E0CD109480078012841
:1009300003D807200649087004E005480078401EE7
:10094000034908700248007801F034F970BD0000D6
:1009500008000020D03C0008D0121300409C00008A
:1009600010B504460023034A1021204602F0F6FD8C
:1009700010BD00000900002010B504460123034A01
:100980001221204602F0EAFD10BD00000A000020FE
:1009900070B505461648C479284603F059F9002871
:1009A00007D0082C01D3002001E0601CC0B204462F
:1009B0000DE0284603F055F9002808D0082C01D88E
:1009C000002C01D1082001E0601EC0B20446284678
:1009D00003F03EF9002804D1284603F042F900282C
:1009E00002D0204602F0D0FB012001F053F870BD88
:1009F0002001002010B504460021204602F0E8FC4A
:100A000010BD10B504460121204602F0E1FC10BDE6
:100A100010B504460221204602F0DAFC10BD10B5E4
:100A200004460321204602F0D3FC10BD10B5044655
:100A30000021204602F028FD10BD10B5044601211A
:100A4000204602F021FD10BD70B506462C2002F0B4
:100A500027FA044624480078800024490D5830467F
:100A600003F0F6F8002804D060192149884200D824
:100A70006419304603F0F5F8002802D0AC4200D3E8
:100A8000641B304603F0E4F8002804D1304603F03C
:100A9000E8F8002806D0A1B22C2002F021FA02F0DA
:100AA000C7FD1BE0012E0AD10F480078401CC0B2E0
:100AB0000D490870052811D9012008700EE0022E9A
:100AC0000CD109480078012803D805200649087090
:100AD00004E005480078401E034908700248007889
:100AE00001F000F970BD000011000020D03C0008AA
:100AF0005046000070B506462E2002F0D1F904469B
:100B000025480078401C800024490D58304603F0E9
:100B10009FF8002805D060197D210901884200D87E
:100B20006419304603F09DF8002802D0AC4200D38F
:100B3000641B304603F08CF8002804D1304603F0E3
:100B400090F8002806D0A1B22E2002F0C9F902F0D8
:100B50006FFD1BE0012E0AD10F480078401CC0B287
:100B60000D490870032811D9012008700EE0022EEB
:100B70000CD109480078012803D8032006490870E1
:100B800004E005480078401E03490870002102482F
:100B9000007800F0D9FE70BD12000020D03C0008A3
:100BA00070B50646302002F07BF9044624480078F0
:100BB000800024490D58304603F04AF8002804D03C
:100BC00060192149884200D86419304603F049F879
:100BD000002802D0AC4200D3641B304603F038F842
:100BE000002804D1304603F03CF8002806D0A1B21A
:100BF000302002F075F902F01BFD1BE0012E0AD136
:100C00000F480078401CC0B20D490870032811D964
:100C1000012008700EE0022E0CD10948007801284E
:100C200003D803200649087004E005480078401EF8
:100C30000349087002480178002000F085FE70BD6D
:100C400013000020D03C0008E703000002201249F6
:100C500008700020114908701149087005201149D9
:100C600008700420104908700120104908701049CC
:100C7000087006200F49087048708870C8700320FB
:100C80000D49087048700D49087002200C49087021
:100C90000C49087070470000040000200500002087
:100CA00006000020070000200800002009000020A6
:100CB0000A0000200B0000200F000020110000207F
:100CC000120000201300002010B50D480088FF21FD
:100CD0002D31884212D900200949088002F05AF9C2
:100CE00008480078002809D100F07AFB00F0ACFC3D
:100CF00000F04AFA002801D100F0CCFE10BD00003F
:100D0000140000200600002002480088401C014911
:100D1000088070471400002010B5BB4800880821E7
:100D20000840002808D00320FFF7DEFCB648008802
:100D300008218843B4490880B3480088202108402E
:100D400000280CD0B1480078002802D10320FFF71A
:100D500081FDAD48008820218843AB490880AA481E
:100D600000888021084000280DD0A848007800287D
:100D700006D000F0D1F900F0B1FB0020A3490870C3
:100D80000020A1490880A0480088012149020840AC
:100D900000280DD09D480078002806D100F0BCF94D
:100DA00000F03EFD01209949087000209649088016
:100DB000954800881421084000283ED093480078C8
:100DC00000281AD09048008804210840002806D046
:100DD0008F48007880008F4A1158012088478A4840
:100DE000008810210840002821D089480078800020
:100DF000884A11580220884719E083480088042156
:100E00000840002806D0844800788000834A1158A2
:100E1000012088477C48008810210840002806D01F
:100E20007D48007880007D4A115802208847764826
:100E30000088142188437449088073480088FF2182
:100E40004131084000285FD07048007800282AD03F
:100E50006D4800884021084000280BD06C4800787D
:100E6000002802D109206A49087069480078401EAC
:100E70006749087064480088FF2101310840002854
:100E800009D063480078401CC0B261490870092845
:100E900001D1002008705E48007880005D4A11583A
:100EA0000020884729E05848008840210840002851
:100EB0000BD059480078002802D108205649087004
:100EC00055480078401E544908704F480088FF215B
:100ED00001310840002809D04F480078401CC0B2BA
:100EE0004D490870082801D1002008704A48007850
:100EF00080004A4A11580020884743480088FF2153
:100F000041318843404908803F48008801218902D7
:100F10000840002819D03D480078002807D03C48F8
:100F2000007880003B4A11580020884706E03A4884
:100F300000788000394A11580020884732480088DC
:100F4000012189028843304908802F480078C00772
:100F5000C00F002828D02D48007800280FD000F0BE
:100F600013F9002801D0032000E00020044628489F
:100F700000788000274A1158204688470EE000F08C
:100F800003F9002801D0032000E000200446224895
:100F900000788000214A1158204688471A48008866
:100FA000400840001849088017480088022108407E
:100FB000002828D01548007800280FD000F0E4F869
:100FC000002801D0042000E00020044610480078EA
:100FD0008000104A1158204688470EE000F0D4F8EF
:100FE000002801D0042000E0002004460A480078D0
:100FF00080000A4A11582046884703480088022189
:1010000088430149088010BD7A00002006000020B6
:1010100005000020380000200400002018000020F7
:1010200070B50546002414E00F4801192846FFF763
:1010300099F805460C48005D0A2805D30A48005D6A
:101040000A38094908556D1C002D01D1641C02E0C5
:10105000641C0A2CE8D300BF03E0002002490855B5
:10106000641C0A2CF9D370BDCC00002038B50446AE
:10107000002C0FD00D4805880D4800890B490880C9
:101080000B4AD388518810880C3201F0B1F9074817
:10109000058009E006480089054B00909A88598828
:1010A0001888102301F0B0FD38BD0000600000205A
:1010B000B8000020FFB581B006460F46154600F087
:1010C0002BF813490498C880124800880881084604
:1010D00006804780002408E0295D0D480C3001554A
:1010E000285D002800D102E0641C072CF4D300BF67
:1010F00000210748C174E004000C054988801820CD
:10110000C872FA2088720120FFF7B0FF05B0F0BD69
:10111000B80000206000002010B500200649887249
:101120000846C07A002802D00120FFF79FFF002068
:101130000149C87210BD0000B800002070B5044617
:10114000104DED7A002D07D00E4D2D88A54203D10C
:101150000C4D6D888D4200D070BD0A4DEB80002093
:1011600008E0165C074D0C352E54155C002D00D19F
:1011700002E0401C0728F4D300BF0026014DEE74A6
:1011800000BFE9E7B80000200148C07A70470000BE
:10119000B800002008B5234801F0C4F92248802394
:1011A0000122002100900D2001F02EFD1E48012398
:1011B0009222202100900E2001F026FD1B4B0A22D6
:1011C0001121002001F0B8FB184B0B223321002025
:1011D00001F0B2FB154B0C224B21002001F0ACFBBF
:1011E000124B0D227021002001F0A6FB104B0522AE
:1011F0000221002001F0A0FB0D4B0422242100203D
:1012000001F09AFB0A4B02224421012001F094FBD9
:10121000074B03226921012001F08EFB00F05EF9EB
:1012200008BD0000FFFF000018C6000051A6000026
:1012300030840000F8B506466A25042001F03CFE23
:1012400007463846FFF7ECFE0020C04316490880E9
:10125000002426E01548005D3030C2B2FF23D033B1
:101260001021284601F0A0FA601C864207D10F48E1
:10127000025DFF23D0331021284602F061FA284690
:10128000083885B2052C01D1281F85B2042C07D15E
:10129000291F88B2FF23D0332E22102101F084FAB7
:1012A000641C072CD6D3F8BD60000020CC000020C1
:1012B00008B52E482E49088000232EA219460E207C
:1012C00001F096F80020C0432949088000232BA292
:1012D0001946502001F08CF800232AA210210E207C
:1012E00001F086F8002329A21021742001F080F873
:1012F000274B0D220021822001F0F6F9244B0E220B
:101300000021882001F0F0F9214B0F2200218E20CE
:1013100001F0EAF91E4B10220021942001F0E4F9BB
:101320001B4B112200219A2001F0DEF9184B0D22EF
:1013300009219A2001F0D8F9164811230122002131
:101340000090802001F060FC12480123202211212E
:101350000090802001F058FC002000F061F800208F
:1013600000F01AF80020FFF765FF08BDFFC7000076
:1013700060000020CEA2B2A8D4B40000B9A6C2CAB0
:1013800000000000C6B5C2CA3A00000047487A0013
:101390005854000018C6000070B504460D48007A85
:1013A0008007800F410045180020C0430A4908808B
:1013B0000A4842191F230021702001F019F8002C5F
:1013C00006D0064842191F2300217020FFF772FE45
:1013D00070BD0000E000002060000020BC3C000860
:1013E00010B50020C0430B4908800B488078800767
:1013F000800F032807D105231B0200221021922011
:1014000001F09AFA05E0054B01221021922001F02B
:1014100093FA10BD600000202001002007FC0000AE
:1014200070B506460020C0430F4908800F488078F9
:10143000C007C00F002803D00DA43F256D0102E0B6
:101440000CA41F25ED022B4622460021402000F06F
:10145000CFFF002E05D02B46224600214020FFF76B
:1014600029FEFFF7BDFF70BD6000002020010020B5
:10147000BFAA0000B9D8000070B506460020C043DE
:101480001249088012484078C007C00F002803D0D6
:1014900010A43F256D0102E00FA41F25ED022B468D
:1014A00022462121402000F0A3FF002E06D02B462B
:1014B000224621214020FFF7FDFD05E02B46224674
:1014C00021214020FFF73AFE70BD0000600000209F
:1014D00020010020BFAA0000B9D8000008B50020F4
:1014E00045490870454820239222002100900E2093
:1014F00001F08AFBFFF7DCFE40485F2392222121A6
:1015000000900E2001F080FB3D483E4908800023FA
:101510003DA221210E2000F06BFF0020C04339497D
:10152000088000233A2231214C2001F03DF90023AC
:1015300037A231210E2000F05BFF002337A23121BA
:10154000902000F055FF002335A241210E2000F02D
:101550004FFF00232A2241212E2001F025F90023EC
:101560002F2241215C2001F01FF900234422412158
:10157000842001F019F90023312241218B2001F050
:1015800013F900233A224121912001F00DF90023A3
:1015900025A251210E2000F02BFF002324A251216F
:1015A000562000F025FF244B24A261210E2000F0DC
:1015B0001FFF214B19A26121882000F019FF1E4B4B
:1015C00014A270210E2000F013FF1B4B1DA27021EE
:1015D000882000F00DFF0020FFF74EFF002000F0F4
:1015E000E9FA0021084600F0C3FA002000F052FAA0
:1015F00000F02AF808BD000000000020FFFF0000F6
:10160000FFC7000060000020CBF8CFE0BBB70000B0
:10161000D6D0D0C4C6B5C2CA00000000487A0000C7
:10162000B1B6C6B500000000C6B5B2D000000000DB
:10163000CFE0B2D00000000058540000CAE4B3F676
:101640003A0000004D487A007CB57048447801F0BB
:101650009BFC05460020FFF70FFF482001F01AFC15
:1016600006466B4804233246512100902E2002F09A
:10167000C3F94C2001F00EFC0646654800210B46DC
:101680003246009101905121682002F00FF950205C
:1016900001F012FC06465E48002108233246009104
:1016A00001906121362002F0DDF902F05DF8294653
:1016B000204602F0BDF8002D2AD0564810234822BB
:1016C00021210090522001F09FFA012D06D1524BAA
:1016D0000E222121522001F02FF918E0022D07D10E
:1016E0001F23DB020E222121522001F025F90EE0FA
:1016F000032D06D1494B0F222121522001F01CF964
:1017000005E0434B0F222121522001F015F97CBD49
:1017100040481023482221210090522001F074FA01
:1017200002202040002802D00520000200E03A48B4
:101730000346610801228A432121522001F0FCF86E
:1017400004202040002807D01F23DB02062221218D
:101750005E2001F0F1F807E02E4810230C22212131
:1017600000905E2001F050FA08202040002807D0A9
:101770001F23DB02072221216A2001F0DDF807E0A8
:10178000244810230C22212100906A2001F03CFA09
:1017900010202040002807D01F23DB02082221212F
:1017A000762001F0C9F807E01A4810230C22212105
:1017B0000090762001F028FA20202040002807D051
:1017C0001F23DB0209222121822001F0B5F807E066
:1017D000104810230C2221210090822001F014FADD
:1017E00040202040002807D01F23DB020F222121A8
:1017F0008E2001F0A1F807E0064810230C222121D9
:1018000000908E2001F000FA00BF80E72001002048
:10181000AACA0000FFFF000007FC00001FF800003C
:1018200008B50120314908703148802392220021F7
:1018300000900E2001F0E8F90020C0432D490880F7
:1018400000232DA219460E2000F0D2FD00232CA269
:1018500010210E2000F0CCFD00232BA220210E2011
:1018600000F0C6FD00232AA230210E2000F0C0FDAA
:10187000002329A240210E2000F0BAFD002329A256
:1018800050210E2000F0B4FD002329A260210E207B
:1018900000F0AEFD002328A270210E2000F0A8FD6C
:1018A000002327A27021582000F0A2FD0021084645
:1018B00000F018F90021012000F014F900210220A5
:1018C00000F010F90021032000F00CF90021084677
:1018D00000F020F90021012000F01CF9002000F0A8
:1018E00001FA0021084600F02FF808BD0000002092
:1018F000FFFF000060000020D7B7D7D950000000DC
:10190000D7B7D7D949000000B2B6BBF166000000D6
:10191000B9FDB6C966000000CAE4B3F6C9CFCFDE90
:1019200000000000CAE4B3F6CFC2CFDE0000000022
:10193000CFE0B2D0CFDE0000B7F9B6C8000000009B
:10194000C6B5B2D000000000FEB505460E462E20FA
:1019500001F0A6FA0290302001F0A2FA01907D2158
:10196000C9000298FEF7D9FC3030C7B2FF23D0334C
:101970003A4670212E2000F017FFFF23D0332E228D
:101980007021362000F010FF64210298FEF7C5FC9C
:101990000A210090FEF7C1FC0F463037FF23D033F9
:1019A0003A4670213A2000F0FFFE0A210298FEF725
:1019B000B4FC0A210090FEF7B0FC0F463037FF233D
:1019C000D0333A467021422000F0EEFE002356222A
:1019D00070214A2000F0E8FE012D0FD10A21029863
:1019E000FEF79BFC0A210090FEF797FC0F46FF23B1
:1019F000D0333A467021422001F0A2FE022D0FD1D1
:101A000064210298FEF789FC0A210090FEF785FC0C
:101A10000F46FF23D0333A4670213A2001F090FE62
:101A2000032D0CD17D21C9000298FEF776FCC7B2C8
:101A3000FF23D0333A4670212E2001F081FE019819
:101A4000FFF7EEFA032410E0611E114B595C3031B0
:101A5000CAB20321091BC900803188B2FF23D033E9
:101A6000702100F0A1FE601EC4B2002CECD1002E4B
:101A70000CD0711E064B5A5C0321891BC9008031B2
:101A800088B2FF23D033702101F05AFEFEBD000062
:101A9000CC00002070B505461048C479082C03D846
:101AA00020463030C0B200E02D2006460020C04362
:101AB0000B490880FF23D03332464121962000F0A5
:101AC00073FE002D08D0082C06D8FF23D033224601
:101AD0004121962001F034FE70BD0000200100205D
:101AE000600000207CB504460D46A1001431C8B248
:101AF00001F0E2F90646FF21D031E8B201910090F1
:101B00000348015D07233246582001F0ABFF7CBD3E
:101B1000C83C0008FEB504460E46002C01D0282122
:101B200000E02421084601F0B5F90546002D01DA50
:101B3000684200E028460746002C01D02D2000E036
:101B40002B2002460948015DFF23D033582000F0C6
:101B50002BFEFF21D031F0B2019100900348015DCE
:101B600005233A46602001F07DFFFEBDCC3C000815
:101B70007CB504460D46102001F092F90646FF217F
:101B8000D031E0B205233246019100904121362048
:101B900001F068FF122001F083F90646FF21D031E1
:101BA000E8B204233246019100904121622001F005
:101BB00059FF7CBDF0B585B004460C2001F07CF9DE
:101BC00003900A210398FEF7A8FB06460020029026
:101BD00040481023382231210090582001F014F899
:101BE0000020C0433C4908803C4886422BD3304605
:101BF000FFF716FA062510E0691E394B595C3031A3
:101C0000CAB20621491BC900583188B2FF23D0331C
:101C1000312100F0C9FD681EC5B2002DECD1022CA7
:101C200055D3072C53D8A01EC0008021081A80B2BB
:101C30000290A01E2A490A5CFF23D033312102986A
:101C400001F07EFD43E03046FFF7EAF9FF23D03391
:101C50002E2231217E2000F0A7FDFF20D030002170
:101C600005233246009101903121582001F0FAFEFF
:101C70000A210398FEF751FB0F463037FF23D0337C
:101C80003A463121822000F08FFD012C0CD10A212F
:101C90000398FEF742FB0F46FF23D0333A4631212B
:101CA000822001F04DFD12E0022C10D3062C0ED83C
:101CB000A01EC0007821081A80B20290A01E084918
:101CC0000A5CFF23D0333121029801F039FD05B0C1
:101CD000F0BD0000FFFF000060000020A0860100B2
:101CE000CC0000207CB504462C2001F0D9F8054634
:101CF000FF21D031E0B200232A46019100906021FB
:101D0000582001F0D3FD7CBD10B52C48C07A0028C6
:101D100010D02A48807A00280CD196202749887252
:101D2000C97AC807C00FFFF7A1F92448C07A401E3E
:101D30002249C87222480078002836D0214800780D
:101D4000002832D120480024045F0020C0431F49EE
:101D50000880002C08DA1E4B0B220921842000F099
:101D6000C3FC604204B205E0194B0A220921842019
:101D700000F0BAFC2046FFF753F9154B0C2209215D
:101D8000902000F0B1FC1348C278114B09218A2041
:101D900000F0AAFC0F4882780D4B0921942000F036
:101DA000A3FC00200649087006E0054800780028DA
:101DB00002D000200249087010BD0000B8000020C9
:101DC000A0000020000000209C00002060000020F7
:101DD000AACA0000CC0000200648C07A002808D01B
:101DE0000448807A002804D00248807A401E0149C5
:101DF00088727047B80000204348C0690221084338
:101E00004149C861084640692321490408433E49C5
:101E100048613E4800680F21090288433B49086039
:101E20000846006805214902084338490860084609
:101E3000006AFF2109048843344908620846006AA1
:101E4000112109040843314908620846C0680F217E
:101E5000090288432D49C8600846C0680521090267
:101E600008432A49C8602A4800680C218843284949
:101E700008600520C8600920C00600680321090425
:101E800088430921C90608600846C06821490840FE
:101E90000921C906C8600846C0681F4908430921CE
:101EA000C906C86000201D49088088631B4920318D
:101EB00008811B481949C86200208881C8134862FC
:101EC0001648203000880221084314492031088038
:101ED00008460088124920390840104920310880FE
:101EE0000E48008B0F4908430C49088308460089B7
:101EF0000221084309490881084600880121084356
:101F000006490880704700000010024000040048A5
:101F100000140048FFFF3CFC0000410100040040A9
:101F2000FFFF00002121000030B53B4B5B6A9AB2F5
:101F30003A4B1B889A4224D0384B1B889A4210DDBA
:101F4000364B1B88D31A012B1BDD344B1B889B1C83
:101F5000324C2380324B1B8801242343304C238096
:101F60000FE02E4B1B889B1A012B0ADD2B4B1B8885
:101F70009B1E2A4C23802A4B1B8802242343284C77
:101F80002380264B1B88274CA34203DC234B1B8852
:101F90000F2B05DA0123DB03204C23801E4C6362E8
:101FA000002036E04300204CE15A83001F4CE358E8
:101FB0001B8A44001E4D2C5B2340002B15D14B1C6B
:101FC00099B2FF23F533994208D14400E41C012360
:101FD000A340134C24882343114C2380114B0A3314
:101FE000994212DDFF21F6310FE003290CDDFF23BA
:101FF000F533994208DA4400A41C0123A340084C9D
:1020000024882343064C238000214300064CE152E0
:10201000401C0528C6D330BD0004004078000020D5
:102020007A000020F0FF0000D600002064000020AD
:102030003854000800BFFEE72B484069012189049D
:102040000843294948610846C069012149050843F8
:102050002549C86125488088C021084323498880D4
:10206000084680680F210903084320498860084614
:1020700000680F21090388431C4908600846C068AE
:102080000F21090388431949C860084600680521E3
:1020900049030843154908600846C068052109033B
:1020A00008431249C8600846006A0002000A086234
:1020B0000846006A1121090608430C4908620C48C9
:1020C00000680C4908400A490860084600688914FD
:1020D00088430749086008480861084600680121EC
:1020E000084303490860704700100240000400489C
:1020F00000540040FEE0CF000705210010B5334832
:102100004068012189030843304948600846006857
:1021100040084000086000F077F82D488088C02112
:1021200008432B498880084600680F21090388432B
:102130002749086008460068052109030843244927
:102140000860C0208861052001F0D0FA00240EE06C
:10215000012080051E498861052001F0C7FA402052
:102160001B498861052001F0C1FA601CC4B2092C2A
:1021700005D21748008A802108400028E8D00120B5
:10218000C00513498861052001F0B0FA40201049CC
:102190008861052001F0AAFA80200D498861052098
:1021A00001F0A4FA0B4800690121490508430949D7
:1021B000086108460069012149058843054908610D
:1021C000FFF73AFF00F020F810BD00000054004077
:1021D000000400480010024070B5054600F014F8F5
:1021E000074844680748044001204003281801219B
:1021F0008903084304430248446000F0ADF870BD11
:1022000000540040009800FC01480249C861704732
:10221000301F000000540040FFB581B0074615464E
:102220000026002D02D1002005B0F0BDFFF7ECFF25
:1022300027484468274804400120400338180121FA
:1022400009044018044322484460022000F044F886
:10225000002803D0FFF7D8FF0020E5E71C490298CB
:102260008862402000F038F8002803D0FFF7CCFF48
:102270000020D9E71648446816480440012040036E
:102280003818012189020843C9034018290408436A
:1022900004430F48446010E0042000F01DF80028BB
:1022A00003D0FFF7B1FFF0B2BEE70948406AC1B200
:1022B00004988155761C681EC5B2002DECD100F043
:1022C0004BF8002801D00020AEE7F0B2ACE70000E8
:1022D00000540040009800FC70B5054605267603C2
:1022E0001AE01C488469172000022040002803D00F
:1022F000FFF704FF012070BD10202040002803D00C
:10230000FFF782FF0120F6E73046761E002803D152
:10231000FFF7F4FE0120EEE70E4880692840002810
:10232000DFD00C488069172109020840002803D03B
:10233000FFF7E4FE0120DEE706488069102108402F
:10234000002804D010200349C8610120D3E70020F1
:10235000D1E700000054004010B52020FFF7BCFF7B
:102360000446FFF751FF204610BD0000FFB581B0C5
:1023700006460F46144600200090FFF745FF1A4816
:1023800045681A480540601C000401214903711882
:10239000012252068918084305431348456001206D
:1023A000FFF79AFF002803D0FFF72EFF05B0F0BD1E
:1023B0000D48876211E00120FFF78EFF002802D050
:1023C000FFF722FFF2E700990498405C0649886213
:1023D0000098401C0090601EC4B2002CEBD1FFF7A7
:1023E000BBFF00BFE2E7000000540040009800FC83
:1023F000FFB581B0064614462DE0FF2700250EE00C
:102400001748405D2178884207D11549681C085C4F
:102410006178884201D16F1005E0A81C85B2104890
:10242000405D0028ECD100BFFF2F0AD0FAB2304641
:10243000049B029900F020FA3046103086B2A41CAA
:1024400009E022783046049B029900F0ADF930464D
:10245000083086B2641C20780028CED105B0F0BDCB
:10246000E04200082C4840690121890408432A49B8
:1024700048610846C069891508432749C86127484B
:1024800000680C2188432549086008460068082137
:102490000843224908600846006AF02188431F4922
:1024A000086208468088022188431C4988800846C3
:1024B000808A0C210843194988822F2018490881F5
:1024C000632017492039C862002048630846008B02
:1024D00060210843124920390883114800880121EE
:1024E00008430F4908800E4820308088C9130843EC
:1024F0000B49203188800A48203800880121084390
:102500000749203908800846808A01210843044988
:102510002039888270470000001002400004004803
:102520002020004070B5044600252046FDF72CFE13
:1025300084B20021084600F079FA00F0DBFB10209D
:102540001149088108200921C906886100BF0AE0F5
:1025500000BF0E4800890321C90208408842F8D014
:102560000A4884816D1C052000038542F0D300BF1A
:1025700006480089802108408028F9D010200921D0
:10258000C906886170BD000020000048003001408D
:1025900032488069012109030843304988610846AF
:1025A00040690321490408432C49486101202C4912
:1025B000088104200921C90688611020886108204B
:1025C0008861274820380068000900012449203923
:1025D0000860084600680521084321492039086041
:1025E00008468068052108431D492039886008464F
:1025F0008088052188431A49203988800920C0062F
:102600000068184908400921C90608600846806822
:102610001449C94308430921C9068860084600686F
:10262000114908430921C906086008468088FC2131
:1026300088430921C90688800846006A0003000B08
:1026400008620A480A490880072000028880084674
:102650000088402108430649088070470010024066
:10266000200400480F00FFFF50A9000004C3000031
:102670000030014010B5FFF78BFF012001F00CF88E
:102680000120164988611E2001F006F8112000F093
:1026900019FB0A2001F000F8362000F013FB60203F
:1026A00000F0F6FA3A2000F00DFB052000F0F0FAF9
:1026B0008023A0220021084600F00AFA292000F019
:1026C00001FB0748FFF72EFFFFF7CCFE632000F069
:1026D000A3F90020C0430349088010BD000400484E
:1026E000FFFF000060000020FFB583B004460D46E8
:1026F0001E46012001903046FDF746FD86B2284671
:102700000830C3B2A01DC2B2E9B2E0B2009000F03E
:10271000DFF900F0EFFA10201F4908810820092195
:10272000C906886128E0002720E006210598484373
:102730001A494018C05D029000BF19480089032162
:10274000C90208408842F8D0019902980840002840
:1027500002D01348868105E012480088FDF714FD79
:102760000F4988810298401002907F1C062FDCD30D
:1027700001984006000E019001980028D3D100BFB7
:1027800007480089802108408028F9D010200921BD
:10279000C906886107B0F0BD20000048CC4B000896
:1027A0000030014060000020F0B585B004460D46C1
:1027B00016461F4630462038C6B23846FDF7E4FCC0
:1027C00087B228461030C3B220460830C2B2E9B200
:1027D000E0B2009000F07CF900F08CFA1020224961
:1027E000088108200921C9068861002003902AE099
:1027F00030011E49411803980858019000200290AA
:102800001BE000BF1A4800890321C9020840884222
:10281000F8D00198C007C00F002802D01448878163
:1028200005E014480088FDF7AFFC11498881019844
:10283000400801900298401C029002982028E0D3A2
:102840000398001D039003981028D1D300BF0848B7
:102850000089802108408028F9D010200921C9066C
:10286000886105B0F0BD000020000048F03C000881
:102870000030014060000020FFB583B004460D46E3
:102880001E463046FDF780FC86B228461030C3B2A3
:1028900020461030C2B2E9B2E0B2009000F018F960
:1028A00000F028FA10202049088108200921C906D3
:1028B0008861002728E0059840011C494018C0594C
:1028C0000190002002901BE000BF194800890321FD
:1028D000C90208408842F8D00198C007C00F0028FC
:1028E00002D01348868105E012480088FDF74CFCB1
:1028F0000F4988810198400801900298401C02907D
:1029000002982028E0D33F1D202FD4D300BF0848D1
:102910000089802108408028F9D010200921C906AB
:10292000886107B0F0BD0000200000484C4300085B
:102930000030014060000020FFB583B004460D4622
:1029400017460698FDF720FC80B20690022F0DDA9C
:1029500028460F30C3B220460C30C2B2A81CC1B208
:10296000E0B2009000F0B4F804260BE028461030E6
:10297000C3B220460C30C2B2E9B2E0B2009000F01F
:10298000A7F8002600F0B6F910201F49088108209A
:102990000921C906886128E078011C494018805B3C
:1029A0000190002002901CE000BF1948008903211B
:1029B000C90208408842F8D00198C007C00F00281B
:1029C00003D013490698888105E012480088FDF776
:1029D000DBFB0F4988810198400801900298401C58
:1029E000029002980C28DFD3B61C202ED4D300BF4F
:1029F00007480089802108408028F9D0102009214B
:102A0000C906886107B0F0BD20000048CC49000825
:102A10000030014060000020632800DD6320632156
:102A2000091A014A516370470020004070B50546FD
:102A30000C46102024490881082008812A202349B7
:102A4000087300BF21480089802108408028F9D000
:102A500008200921C90688612846FDF795FB1B4916
:102A600088819F20FDF790FB1849888100BF174897
:102A70000089802108408028F9D008201249088167
:102A80002B201249087300BF10480089802108409C
:102A90008028F9D008200921C90688612046FDF761
:102AA00073FB0A4988817F20FDF76EFB0749888107
:102AB00000BF06480089802108408028F9D01020F6
:102AC0000921C906886170BD20000048003001401E
:102AD000F8B507460C4615461E46102024490881C5
:102AE000082008812A202349087300BF2148008953
:102AF000802108408028F9D008200921C906886172
:102B00003846FDF741FB1B498881681EFDF73CFBF9
:102B10001849888100BF1748008980210840802813
:102B2000F9D00820124908812B201249087300BFF0
:102B300010480089802108408028F9D00820092108
:102B4000C90688612046FDF71FFB0A498881701E6F
:102B5000FDF71AFB0749888100BF064800898021DC
:102B600008408028F9D010200921C9068861F8BDE5
:102B7000200000480030014070B5802390220021E1
:102B80001020FFF7A5FF00F0B5F810201A490881C2
:102B900008200921C906886100241CE01748065D49
:102BA000002515E000BF164800890321C90208402E
:102BB0008842F8D080203040002803D011481049C6
:102BC000888103E00020C0430D49888176006D1C98
:102BD000082DE7D3641C0120C0028442DED300BF6D
:102BE00007480089802108408028F9D01020092159
:102BF000C906886170BD000020000048384C0008FC
:102C0000003001407C1F0000FEB504460D4616460C
:102C10001F463046784301900898FDF7B5FA80B218
:102C20000890E819C3B2A019C2B2E9B2E0B20090AC
:102C3000FFF74EFF00F05EF81020134908810820CE
:102C40000921C9068861002002900DE000BF0F48ED
:102C500000890321C90208408842F8D00B4908982E
:102C600088810298401C0290019902988842EDD315
:102C700000BF06480089802108408028F9D0102034
:102C80000921C9068861FEBD2000004800300140CE
:102C900010210A4A118108210922D20691610849AE
:102CA000087300BF06490989802211408029F9D0A4
:102CB00010210922D20691617047000020000048CF
:102CC000003001401021094A118108211181084971
:102CD000087300BF06490989802211408029F9D074
:102CE00010210922D206916170470000200000489F
:102CF0000030014000B52C20FFF7E4FF00BD704715
:102D000010B5002819DA1A4A03071B0F083B9B0865
:102D10009B00D2588307DC0EFF23A3409A438B0706
:102D20001B0E8407E40EA3401A43114B0407240F23
:102D3000083CA408A4001A5118E00E4A03231B0201
:102D4000D21883089B00D2588307DC0EFF23A340D0
:102D50009A438B071B0E8407E40EA3401A43054BCE
:102D6000032424021B198408A4001A5110BD00007A
:102D70001CED00E000E100E0704770B505460C4630
:102D800000F030F8002800D170BD00231A46294613
:102D90004A20FFF7EBFA002C02D020B200F07CFCB6
:102DA00000F020F8F0E710B5FFF746F900F0F2F870
:102DB00010BD10B50021C120FFF7DFFF10BD10B519
:102DC0000121C020FFF7D9FF10BD10B50121C82097
:102DD000FFF7D3FF10BD10B50121C720FFF7CDFFCE
:102DE00010BD000038B5002413E06B4601224621D7
:102DF0004A20FFF711FA012807D168460078C0077A
:102E0000C00F002801D1012038BDC82000F06EFCA1
:102E1000641C02488442E8D30020F5E788130000D0
:102E2000F8B504460D461746002000902AE0FFF74B
:102E3000D9FF002800D11EE03B462A4621464A2001
:102E4000FFF794FA124803192A4621464A20FFF751
:102E5000E3F9A84200D00EE0002608E0B85DA11911
:102E60000B4A515C884200D005E0701CC6B2AE42ED
:102E7000F4DB0120F8BD022000F00EFC0098401C9D
:102E8000C0B2009000980328D1D30020F2E70000E0
:102E90004001002010B50446204600F00DF810BD9A
:102EA00001460448405C034B4A1C9A5C12021043E2
:102EB00070470000E000002001460848405C074BD6
:102EC0004A1C9A5C120210438A1C9A5C120410433A
:102ED000CA1C9A5C1206104370470000E0000020F4
:102EE00010B5034B19540B12014C421CA35410BDD6
:102EF000E000002010B5074B19540A04130E054CCE
:102F0000421CA3540A02130E821CA3540B0EC21CB3
:102F1000A35410BDE000002010B50B4800880B49F9
:102F200088420FD300F036F8002808D00648008801
:102F30000649884203D30621C320FFF71EFF002065
:102F40000149088010BD00007C000020102700000F
:102F500001200149088070477C0000200848008853
:102F600000280CD006480088401C05490880084607
:102F700000880449884202D9084601490880704700
:102F80007C000020102700000148007870470000F6
:102F90007E000020FEB54A20FFF71EF9002807D169
:102FA00002AB022200214A20FFF736F902280AD09C
:102FB000022058490870584840784106490E564842
:102FC00041700020FEBD6846007AA52803D16846FE
:102FD000407A032804D003204E4908700020F1E70E
:102FE00001AB012240214A20FFF716F901280FD139
:102FF0004A4B602200214A20FFF70EF9602807D1D2
:103000006B46012240214A20FFF706F901280AD029
:10301000022040490870404840784106490E3E4829
:1030200041700020CEE7684601790078814206D1E0
:103030003A484030007869460978884201D000203B
:10304000C0E736480078A52803D1344840780328E3
:1030500004D003202F4908700020B3E72F48807860
:1030600069460978884201D1012000E00020064627
:10307000002E21D0002504240AE027484038005DB6
:103080002649095D884201D0012503E0601CC4B2D5
:10309000402CF2D300BF002D02D000202049088030
:1030A000002406E01D48005D1B4940390855601C9E
:1030B000C4B2602CF6D30AE0402406E01748005D55
:1030C000154940390855601CC4B2602CF6D313482A
:1030D0004030807902210840002803D004200D49A7
:1030E00008700DE00D4840304078802108400028ED
:1030F00003D101200749087002E00020054908704B
:10310000002E05D003480078002801D1012059E79E
:10311000002057E77E000020200100204001002011
:103120007C0000201CB501AB012202214A20FFF7E0
:1031300073F8012801D000201CBD124A3C21042054
:10314000FFF76EFE002800D1F6E70221C420FFF74A
:1031500014FE002800D1EFE76B46012202214A202D
:10316000FFF75AF8012801D00020E5E7684600790A
:10317000401CC1B268460078814201D10120DBE7E2
:103180000020D9E7E400002070B504460A48C5795C
:10319000082C01D9002070BD0748C471C21D01214F
:1031A0004720FFF73DFE002803D10348C5710020EA
:1031B000F1E70120EFE700002001002010B5094BE6
:1031C000052204214A20FFF7D1F806483C308078D8
:1031D000C007C00F002802D0FFF7F1FD01E0FFF7A4
:1031E000E8FD10BDE400002010B500240AE0FFF760
:1031F000D1FE002801D0012010BD022000F04CFAC1
:10320000601CC4B23C2CF2D30020F5E770470000EC
:1032100011201D4908601D4840681C494860084647
:1032200040684860084640687F21C90388431749C1
:103230004860084640680521C904084313494860AE
:10324000084600680121090608431049086000BFCC
:103250000E4800680121490608400028F8D00B48B4
:10326000406880088000094948600846406802219B
:1032700008430649486000BF044840680C210840E4
:103280000828F9D1704700000020024000100240D9
:103290007047000010B51B48006801210843194918
:1032A00008600846406818490840164948600846C2
:1032B0000068164908401349086008460068012163
:1032C000890488430F490860084640683F21090483
:1032D00088430C4948600846C06A00090001C8627A
:1032E0000846006BFF2154318843064908630846AD
:1032F000406B40084000486300208860FFF788FF6B
:1033000010BD0000001002400CB8FF08FFFFF6FEE1
:1033100010B50848008A0849084006490882FEF7A7
:1033200003FEFDF7D9F9FFF719FEFEF755FDFDF78E
:10333000EBFC10BD00440140FEFF000010B5144836
:103340008069012149040843114988611520012140
:103350008140104A116000BF0221FFF7D1FC2F20ED
:103360000D4908810D480C492039C8620120888127
:10337000084600880121084307492039088008468B
:10338000808A0121084304492039888210BD000049
:103390000010024000E100E020440140E70300008B
:1033A000F8B582B28BB2040C0D0C104658430021C4
:1033B00026465E43370C36048019794116466E4323
:1033C000370C36048019794126466E438919F8BDB9
:1033D000F8B507460C46A0001430C0B20090009823
:1033E000FFF76AFD05462548005D800024490E5818
:1033F000384600F02DFC002804D0A8192149884245
:1034000000D8AD19384600F02CFC002802D0B54297
:1034100000D3AD1B384600F01BFC002804D1384611
:1034200000F01FFC002806D029460098FFF762FD37
:1034300000F0FEF81BE0012F0AD11048005D401C8F
:10344000C0B20E490855072811D9012008550EE0D1
:10345000022F0CD10948005D012803D80720074935
:10346000085504E00548005D401E0449085503481E
:10347000015D2046FEF736FBF8BD00000B00002082
:10348000D03C0008FFFF7F00FEB507460C46002C2D
:1034900001D0282000E0242001900198FFF7FAFCD9
:1034A0000090002C02D00098404200E000980546B1
:1034B0002748005D800027490E58384600F0C8FBB9
:1034C000002804D0A8192449884200D8AD193846EC
:1034D00000F0C7FB002802D0B54200D3AD1B384630
:1034E00000F0B6FB002804D1384600F0BAFB0028F3
:1034F0000BD0002C01D0684200E02846014601981C
:10350000FFF7F8FC00F094F81BE0012F0AD11048F7
:10351000005D401CC0B20E490855052811D9012094
:1035200008550EE0022F0CD10948005D012803D890
:1035300005200749085504E00548005D401E044980
:1035400008550348015D2046FEF7E4FAFEBD000081
:103550000F000020D03C0008E87A0100FFB583B0DE
:1035600014461D460498FFF79BFC06462078800011
:103570002C490F58002D01D02B4800E02B48029019
:10358000002D01D0042000E005200190039800F0F8
:103590005FFB002804D0F1190298814200D8F61987
:1035A000039800F05EFB002802D0BE4200D9F61B53
:1035B000039800F04DFB002804D1039800F051FB64
:1035C000002806D0B1B20498FFF78AFC00F030F86A
:1035D00018E00398012809D12078401CC1B221705D
:1035E000019881420EDD012020700BE00398022833
:1035F00008D12078012802D80198207002E02078B4
:10360000401E2070002D01D0227800E000221146DB
:10361000002D01D0002200E022781046FEF7A8FA23
:1036200007B0F0BDD03C00080F270000FFFF0000EE
:1036300010B5FFF777FD002809D0FFF7D5FD00286A
:1036400005D00348C078002801D1FFF781FC10BDE8
:103650002001002010B50B48006904218843094966
:103660000861094909480068FCF757FE40B208495B
:103670000870002008567D21C900484300B2054962
:10368000088010BD00E000E000127A00A4000020D5
:103690005C0000205E0000200146124A0023D35E39
:1036A0000A465A43104B5A6100229A611A4612691F
:1036B00001231A430C4B1A6100BF0B4A1069C20761
:1036C000D20F002A04D0012212040240002AF4D0B2
:1036D000054A126952085200034B1A6100229A618E
:1036E000704700005E00002000E000E00146124A42
:1036F0000023D3560A465A43104B5A6100229A615E
:103700001A46126901231A430C4B1A6100BF0B4A77
:103710001069C207D20F002A04D00122120402400D
:10372000002AF4D0054A126952085200034B1A616C
:1037300000229A61704700005C00002000E000E079
:10374000F8B505460E4614461F4620463030C1B235
:1037500068460170002141703B466A463146284662
:10376000FDF7A8FCF8BD0000F8B55420FFF7A4FB56
:1037700005462C492846FCF7D0FD0646294928462F
:10378000FCF7CBFD0F463046FDF74AFC2648807813
:10379000002804D0244880783030C0B200E02020D7
:1037A0000246224B70213020FEF7FEFF1E48807833
:1037B000002803D11C484078002804D01A484078DB
:1037C0003030C0B200E020200246184B7021382073
:1037D000FEF7EAFF144800783030C2B2134B702174
:1037E0004020FEF7E1FF114B2E2270214820FEF70A
:1037F000DBFF3846FDF714FC06240FE0611E0A4B80
:10380000595C3031CAB20621091BC9004C3188B25B
:10381000064B7021FEF7C8FF601EC4B2002CEDD12C
:10382000F8BD000040420F00CC000020AACA0000F2
:10383000F8B505460E4619480479092C01D82046EA
:1038400000E00B200090164F002E03D1802028406E
:10385000002802D10B20009015E0062C02D105278C
:103860003F0210E0072C01D0092C02D11F27FF02D4
:1038700009E0042C01D0052C02D1FF27D03702E04B
:10388000082C00D1074F0020C043074908803B4661
:1038900025219A20009AFEF727FFF8BD200100207D
:1038A0003084000007FC000060000020FFB58BB0F2
:1038B000149D06A807A908AA009201910290032D61
:1038C00002D3A81EC0B200E001200346012D01D1A1
:1038D000022004E0022D01D1012000E00020024678
:1038E0000E990D9800F0FCF8074600200590049012
:1038F00000240CE008A8005D2E2801D1042100E07E
:1039000008210498081880B20490601CC4B2BC421C
:10391000F0DB0B9838300499401A86B2039634488D
:103920001023382200900C990B98FFF76DF90020B6
:10393000C04330490880039E002418E008A8005DB9
:103940002E2808D12E223046159B0C99FEF72CFF0D
:10395000301D86B209E008A8025D3046159B0C991F
:10396000FEF722FF3046083086B2601CC4B2BC426B
:10397000E4DB002D01D10FB0F0BD012D07D1684669
:10398000017F007E0818801CC0B2059012E0022D55
:1039900007D16846017F007E0818401CC0B2059020
:1039A00008E06846017F007E0818401EE91E401AA4
:1039B000C0B20590039E00240AE008A8005D2E28EE
:1039C00001D1042000E00820801986B2601CC4B236
:1039D00005988442F1DB08A90598085C3038C2B22A
:1039E0003046159B0C99FFF7ABFE00BFC3E7000004
:1039F000FFFF000060000020FFB583B005461446BD
:103A00001E460C9F002C01DA604200E02046029026
:103A100012480090701CC200102328460499FFF73A
:103A2000F3F80020C0430E490880002C01DA2D2055
:103A300000E02B2002463B4628460499FEF7B4FEE0
:103A40000020294608310197009088B23346029A37
:103A5000049900F007F807B0F0BD0000FFFF000078
:103A600060000020FFB581B0054616461F460020C5
:103A700000903046FDF7D4FA3C462BE0601E174913
:103A8000085C002804D1012C02D00A98A04201DB76
:103A9000012000900098002805D0601E0F49085CA6
:103AA0003030C0B200E02020024628460B9B02992D
:103AB000FEF77AFE0A98A04207D1601E07490A5C09
:103AC00028460B9B0299FFF73BFE2846083085B23B
:103AD000601EC4B2002CD1D105B0F0BDCC000020D6
:103AE000FFB585B00E9D0A2700240020019005989F
:103AF000002807DA2D222146601CC4B26A540598BA
:103B0000464208E0059E0698002804D02B22204655
:103B1000611CCCB22A544C48864201D3002006E0F6
:103B20007D20C000864201D3012000E002200490E5
:103B300007990498884201DA0798049004980028AD
:103B400006D1642130463230FCF7E7FB02902AE0D0
:103B5000049801281DD10A21701DFCF7DEFB00909E
:103B60000A210098FCF7D9FB02900A210098FCF783
:103B7000D4FB01910798002815D10298642812D32C
:103B800000200490642130463230FCF7C6FB0290DE
:103B900009E064213046FCF7C0FB02906421304606
:103BA000FCF7BBFB01910298FDF73AFA01E0781EA1
:103BB000C7B2012F04D9781E2449085C0028F6D02A
:103BC0000898B84200DD089F0F980470109807709D
:103BD00003970DE00398401E1C49085C3030C2B2C8
:103BE0002146601CC4B26A540398401EC0B20390C0
:103BF00003980028EED1049800281AD02E222046DF
:103C0000611CCCB22A540498022809D10A210198D7
:103C1000FCF783FB3030C2B22046611CCCB22A5480
:103C20000A210198FCF779FB30312046621CD4B29E
:103C300029547E222046611CCCB22A5400202855EB
:103C4000204609B0F0BD000010270000CC00002085
:103C50000146032901D0052901D101207047002028
:103C6000FCE70146042901D0062901D10120704753
:103C70000020FCE7FFF7EEFCFEF7FCFCFCF730FC55
:103C8000FEF77AFF7D200001FFF706FDFEF7B4F88E
:103C9000FFF754FBFFF787F8FCF7CAFCFCF7D6FFE9
:103CA000FDF778FA09E0FDF737F8FCF7C1FCFEF7FD
:103CB0002BF8FFF731F9FDF707F8F4E7C8F500D066
:103CC000A100D6D000B4F300001020304050000016
:103CD00000000000010000000A0000006400000075
:103CE000E803000010270000A086010040420F00FA
:103CF00000000000000000000000000000000000C4
:103D0000000000080808080808080000080800006B
:103D10000048242412000000000000000000000001
:103D20000000004848487E2424247E2424240000E7
:103D30000000103C5252121C30505052523C101095
:103D40000000000000008244281028448200000087
:103D50000000000000181800FF0018180000000004
:103D60000006040402000000000000000000000043
:103D70000040201010080808080808101020400013
:103D800000020408081010101010100808040200A7
:103D90000000000008086B1C1C6B080800000000F5
:103DA0000000000000101010FE10101000000000B5
:103DB00000000000000000000000000006040402F3
:103DC00000000000000000007E0000000000000075
:103DD00000000000000000000000000006060000D7
:103DE00000004020202010100808080404020200EF
:103DF000000000182442424242424242241800007D
:103E0000000000101C10101010101010107C00008A
:103E10000000003C4242424020100804427E000064
:103E20000000003C4242402018204042423C00003A
:103E300000000020303028242422FE2020F800003A
:103E40000000007E0202021E22404042221C0000AE
:103E5000000000182402023A464242424438000060
:103E60000000007E4220201010080808080800000A
:103E70000000003C4242422418244242423C0000DE
:103E80000000001C22424242625C404024180000B4
:103E900000000000000018180000000018180000C2
:103EA00000000000000000080000000000080808F2
:103EB0000000004020100804020408102040000008
:103EC0000000000000007E00007E000000000000F6
:103ED0000000000204081020402010080402000026
:103EE0000000003C4242462010101000181800004C
:103EF0000000001C225A55555555553A423C0000C9
:103F00000000000808181414243C224242E7000074
:103F10000000001F2222221E22424242221F0000D5
:103F20000000007C4242010101010142221C00000C
:103F30000000001F2242424242424242221F000031
:103F40000000003F4212121E12120242423F0000C5
:103F50000000003F4212121E12120202020700006D
:103F60000000003C2222010101712122221C0000DC
:103F7000000000E7424242427E42424242E70000E5
:103F80000000003E0808080808080808083E00006D
:103F90000000007C10101010101010101010110FE5
:103FA0000000007722120A0E0A1212222277000065
:103FB000000000070202020202020202427F000029
:103FC0000000007736363636362A2A2A2A6B000059
:103FD000000000E346464A4A5252526262470000DD
:103FE0000000001C2241414141414141221C00008E
:103FF0000000003F424242423E020202020700002D
:104000000000001C224141414141414D321C6000F1
:104010000000003F4242423E1212222242C70000EC
:104020000000007C4242020418204042423E000050
:104030000000007F4908080808080808081C00005C
:10404000000000E74242424242424242423C0000FB
:10405000000000E74242222424141418080800003B
:104060000000006B2A2A2A2A2A361414141400008D
:10407000000000E7422424181818242442E7000016
:10408000000000772222141408080808081C000009
:104090000000007E2120101008040442423F00006E
:1040A00000780808080808080808080808087800C0
:1040B00000000204040408080810102020204040DA
:1040C000001E1010101010101010101010101E00F4
:1040D00000182400000000000000000000000000A4
:1040E000000000000000000000000000000000FFD1
:1040F00000060800000000000000000000000000B2
:10410000000000000000001C22302C22326C000055
:10411000000000000302021A26424242261A000052
:104120000000000000000038440202024438000091
:10413000000000006040407C4242424262DC0000DD
:10414000000000000000003C42427E02423C0000B1
:10415000000000003048083E08080808083E00003B
:10416000000000000000007C22221C023C42423C75
:10417000000000000302023A4642424242E70000C9
:104180000000000C0C00000E08080808083E0000A3
:104190000000003030000038202020202020221E87
:1041A0000000000003020272120A0E1222770000C1
:1041B000000000080E08080808080808083E00006B
:1041C000000000000000007F9292929292B70000DF
:1041D000000000000000003B4642424242E700006F
:1041E000000000000000003C42424242423C00000D
:1041F000000000000000001B26424242261A02076F
:10420000000000000000005864424242645840E050
:1042100000000000000000774C040404041F0000AC
:10422000000000000000007C42023C40423E0000D2
:10423000000000000008083E080808084830000098
:1042400000000000000000634242424262DC0000C5
:10425000000000000000007722221414080800006B
:1042600000000000000000DB91525A2A24240000C4
:10427000000000000000006E2418181824760000CA
:1042800000000000000000E7422424181808080677
:10429000000000000000007E22100808447E00009C
:1042A00000C0202020202020102020202020C0001E
:1042B00010101010101010101010101010101010FE
:1042C00000030404040404040804040404040300B4
:1042D0000018242418000000000000000000000066
:1042E000CEA2B2A8D4B4CBF8CFE0BBB7C6B5C2CA91
:1042F000B9A6B3FDB1B6B6A8D7B4CCACCAE4B3F690
:10430000D6B5CBB2CAB1CFE0CEBBB2D0B2EEB7B663
:10431000CEA7B5F7D6C6C6F7C6ABD6C3B5E7D1B9F3
:10432000BFAAB9D8B4F3D6D0D0A1C8F5D0C4B7F9D4
:10433000B6C8C9CFCFC2CFDEB2CECAFDD7B7D7D9A4
:10434000B2B6BBF1B9FDB6C9000000008810A812D2
:10435000A412A20AE97B08240428F62B0528E429E4
:10436000242924152413242914280C4400040404AB
:104370000804C87F414442245204D03F48214811D8
:104380004712440A4404240A241190600000E47F88
:1043900028042802A13FA220A23FA820A83FA424CD
:1043A00027042415942454440C050002080488248E
:1043B0003C2504150204BD3F88208824BF2488249E
:1043C00088248824280A1811882040401000103FB3
:1043D000102110217F21103F182138215421543FF2
:1043E0001221112110211021103F10210000000086
:1043F000BF7F08080808080408043E1608258844FA
:104400004844080438040704020400040800887FB4
:104410000A043A028A3F8A20FF2480248824AA249E
:10442000AA24AA22210A10118C20434040008000B7
:10443000FE3F40002222F41188084412F2270004B3
:104440008000FF7F8000800080008000000200026A
:1044500000027F02883F0822082208220822082141
:10446000082178218F2082204014200800021E029B
:1044700012058A084A10A66F0A021202F23F1202BF
:10448000560A4A122222122282020201100110024E
:10449000D03F080048108C108C08EA7F0900080003
:1044A000C83F482048204820C83F4820400080009E
:1044B000FE7F024001200000FC1F80008000880079
:1044C000881F880088009400E27F0100100210120B
:1044D000102212221402F47F100210021802140596
:1044E0001305100990089010502030408000800083
:1044F000FE3F80004001200250048C1803608000C1
:104500001011122112481248E10F000004020405A4
:1045100084085F10A46F0200CA23492A5F2AC82BAF
:10452000582A4F2ACA2B4822482A48138000800064
:104530008410841084108410FC1F80108000800080
:104540008220822082208220FE3F00201002100262
:10455000F03F08020802CC1F4C10CA1F4910C81FA8
:104560004810C81F48104810F87F0800003CE003BE
:104570000F2249248910EF7F294059104F10C97D1F
:10458000291159158F7C49102010101000100010AF
:104590003E102210A27F221022103E102211221261
:1045A000221222103E102210001400081000103FAA
:1045B000102110217F21103F182138215421543F10
:1045C0001221112110211021103F10211001100281
:1045D00010020800E83F0C000C104A10491088082F
:1045E0008808880888040804F87F0800000A001278
:1045F0003F02043A84073C02227AE207262229126B
:10460000100C1044084A0451C260014010042002FA
:10461000FE3F80008000FC1F40004000FF7F200024
:104620001000E81F040102010101F83F20022002EE
:10463000FF7F20020800901F92108410A410A01485
:1046400090088E4088408840087F00000000FE3FB0
:1046500082208220FA2F8220F2278220FA2F8228BD
:104660008228822A82248220FE3F02200000E23F2C
:1046700024222422A02F20222722E43F2420A42F1A
:10468000A428B428AC2F2420202810102020242077
:104690002420FC2522242024FF2720242024FC255C
:1046A000242524256421A4202028201000007C3EFD
:1046B000442244227C3E80048008FF7F4001300673
:1046C0000C1803607C3E442244227C3E0801080210
:1046D000E83F24202420E63F26002500E43F64250F
:1046E0005425D43F542554254C254430FE3F2222E6
:1046F000FE3F8000FE3F8000F80F0808F80F080812
:10470000F80F0808F80F0808FF7F000080008000FD
:104710008000FC1F841084108410FC1F84108410FF
:104720008410FC1F845080408040007F0000FC7F8C
:1047300004000401040104010401F43F0401040124
:104740000409041104110201FA7F01000000FE3F78
:1047500010041004100410041004FF7F100410044F
:1047600010041004080408040404020408081008D3
:1047700010040000FC1F800080008000FF7F80008C
:1047800040014001200210040C18036080008000EA
:10479000800080008000FF7F800080004001400199
:1047A000200220021004080804100360800080002A
:1047B00080008000FC1F84108410841084108410FA
:1047C000FC1F84108000800080008000800080003A
:1047D0008000800080008808881088208420844021
:1047E0008240814080008000A000400000007E3FA9
:1047F000402040207E3F020102017E3F44224824A7
:104800006030582C46234020281410080000400037
:1048100080000001000120002010242024202440DA
:104820002240224821082008C00F00000800887F8D
:1048300008003E1F2A112A112A1F2A00AA3FAA2473
:10484000AA24BA3F88248824883F88208000000159
:10485000FC7F44044404FC3F44044404C4070400B3
:10486000F40F240842048203610C1C7040004000D5
:104870004000400040004000C01F40004000400099
:104880004000400040004000FF7F00000000FF7F2C
:1048900040004000400040004002400440084010FA
:1048A0004010400040004000400040000000DE1F7B
:1048B00052104A10CA1F46104A10D21F52225212DA
:1048C000560C4A0442084211C260420040002002D5
:1048D0001004F80F4000FE3F10040809C4103362B2
:1048E0008001600818040003E0001E001004920418
:1048F0005404107CFF2254229222112508147F14A4
:1049000044084208261418142C2243410402C83FCC
:1049100048204020C03F4F004800C87F48404840E2
:10492000C87F48401400E27F000000001E04D27FD0
:10493000524032209E1F08000800CA7F3A048A14A1
:104940008A245A4427440005000200000822E87F18
:1049500008023F02C83F48226822D83F4C224B221F
:10496000C83F482248224A2A441000001004FF7F12
:1049700010042202140A08121402F27F190214050C
:104980001205910890084A102460000004080808E5
:10499000E87F000800084F08880888080808080809
:1049A000080A08041400E27F000000000404E87F05
:1049B00028112111E27F2211281F2800A43F27215E
:1049C0002411240A1404141BC86000000000000015
:1049D00000000000E000100110011001F803FC07C6
:1049E0001C071C07FC07F803000000000000000083
:1049F0000000E0001001100100010001F803FC07B5
:104A00001C071C07FC07F803000000000000000062
:104A100000000000000020007000D8008C0104019C
:104A200006030202FF07FF0700000000000000006D
:104A3000000000000000FF07FF0702020603040158
:104A40008C01D80070002000000000000000000071
:104A500000000C003C00EC008C010C030C060C0365
:104A60008C01EC003C000C00000000000000000085
:104A7000000000068007E006300618060C0618063F
:104A80003006E0068007000600000000000000007D
:104A90008000C001A0028000FE0780008E0092000E
:104AA00092008E00020002000200000000000000E0
:104AB0008000C001A0028000FE0780009E008200EE
:104AC00082008E00020002000200000000000000D0
:104AD0008000C001A0028000FE07800092009200CA
:104AE0009200920012000C00000000000000000084
:104AF000000000000E009200920092008E008000E4
:104B0000FE078000A002C001800000000000360EF9
:104B10004901490649084907000080004000380063
:104B2000AF0F380000000000000000000000270266
:104B3000290227022102E10E000080004000380017
:104B4000AF0F38000000000000000000000000006F
:104B500000000000000000000000000000001E0235
:104B60002203A2021E0202020202820700000000CB
:104B700000000000000000000000000000001E0314
:104B8000A20422041E020201820082076700920032
:104B90009200620000001003900450084E09800447
:104BA00058032400520E420124011801EE0EA20AFD
:104BB000EE0E6206AE0A1003900450084E098004FF
:104BC00058032400520E4201240118017E81818184
:104BD0007E000082FF800000C6A19189860042818C
:104BE00089897600102C22FFA0004F8989897100E5
:104BF0007E89898B70000301F90701007689898914
:104C000076000ED191917E0008087F080800080800
:104C100008080800008000000000011FE0380701BC
:104C200081FF898976008181FF81810080F8273C9E
:104C3000E080C68989916300000000000000000048
:104C4000000000000000000000000000000000FF65
:104C5000FF000000000000000000000000003FFE18
:104C60003FFC000000000000000000000003F8000E
:104C7000001FC0000000000000000000001F000036
:104C80000000F800000000000000000000780000B4
:104C900000001E00000000000000000003C0000033
:104CA000000003C000000000000000000F0007002B
:104CB000038000F000000000000000003C00031032
:104CC0000300001C0000000000000000F00001B81C
:104CD0000038000F0000000000000001C0001EC0EE
:104CE000050000038000000000000007000018809D
:104CF00006F80000E00000000000000C00001300B7
:104D000002000000300000000000003803000180B5
:104D10003E7000001C0000000000007027800300AF
:104D2000024000400E000000000000C0620001E0F0
:104D30000480007C0300000000000180648003E028
:104D400004180078018000000000030031800C008E
:104D5000001803E000C00000000006006808000022
:104D6000000003F00070000000001C003978000013
:104D700000001780003800000000380039380000BB
:104D800000000EC0001C0000000030003500000FC5
:104D9000F00000C0000C000000006000710003FF84
:104DA000FFC00040000600000000C00052003F00AD
:104DB00000FC006000030000000180800000F000A3
:104DC000000F007000018000000301000007800058
:104DD0000001E0380000C00000060E00000E0000D8
:104DE000000070000430600000061C8000380000E5
:104DF00000001C0007706000000C058000E000004F
:104E00000000070003F0300000180998018000003E
:104E10000000018023E0180000100AD80300000001
:104E2000000000C01FB00800003013C00E000000DA
:104E30000000007001100C00006001E0180000008C
:104E40000000001801000600006000303000000083
:104E50000000000C0100060000C00000600000001F
:104E6000000000060380030000C00000C000000036
:104E70000000000303800300018000818000000027
:104E800000000401818001800180000100000020F9
:104E900000001C008080018003000003000000600F
:104EA00000007800C00000C00301000600000060A0
:104EB0000001F018600000C0020D000C000000604E
:104EC0000007F04030000040060F180800000060A6
:104ED000001FE100100390600401901800000FFE15
:104EE00000FFC420180148200C00F01000000FFF44
:104EF00083FFD0000800B0300C0C0030000000F040
:104F00000FFF80000C057E30081E00600000066068
:104F10003FFF00800610BA10181F80600000786004
:104F2000FFFF00000613C5181807C0400003E06328
:104F3000FFFE0000023F5F981006C0C0001FC06F58
:104F4000FFFC02000301108810004080007F807F7A
:104F5000FFFC0400010018083000418000FF00FF42
:104F6000FFF800000180080C3000618003FF03FFA0
:104F7000FFF808000180000C3000010007FE0FFF61
:104F8000FFF016000080000C200001000FFC3FFF26
:104F9000FFE0070000800004200003001FFC03FF67
:104FA000FFE02F8000C00004200003003FF800FF56
:104FB000FFC05FC000C00004600002007FF8003F37
:104FC000FF803FE000400006600002007FF8081FFD
:104FD000FF80BFF00040000660000200FFF00E1FDF
:104FE000FF017FF00040000660000200FFF0002F8C
:104FF000FE007FF00040000660000601FFF0000F99
:10500000FE027FF80060000660000601FFF0000F5E
:10501000FC047FF80060000660000601FFF0000F4E
:10502000F8007FF80060000640000601FFF0000F66
:10503000F8087FF80060000240000601FFF0001F42
:10504000F0107FF80060000260000600FFF0001F13
:10505000E0007FF80060000660000600FFF0001F1F
:10506000E0207FF000600006600006000000001FE6
:10507000C04000000060000660000200FFFFFFBFAC
:10508000C03FFFF00040000660000200FFFFFFBFCE
:10509000807FFFF00040000660000200FFFFFFBFBE
:1050A000017FFFF000400006600002000000003FAA
:1050B0000000000000400006200003000FFE007EFC
:1050C0000001FF0000C00004200003000000007C7D
:1050D0000400000000C0000420000100FFFFFF7E6C
:1050E00003FFFFF80080000430000100FFFFFEF81E
:1050F00007FFFFF80080000C30000181FFFFFEF485
:1051000017FFFFFC0180000C30000180000000F45C
:10511000000000000180000C100000800001F1E0A0
:105120000078000001008008100000C000003DC0B1
:1051300041C000000300400818010040000001C801
:10514000000000000201E018180800600000038061
:1051500000000000060000180801806000000381C4
:1051600000000000060000100C06003000000310D4
:10517000000000000C0000300C00001000000200D5
:1051800000000000080000300400001800000604C1
:105190000000000018040020060000080000042899
:1051A00000000000100000600200300C0000000051
:1051B00000000000300A00400300800600000810D4
:1051C00000000000600100C0030020030000006038
:1051D00000000000C00000C00180000100000000CD
:1051E000000000008000018001800001800000407C
:1051F000000000018000018000C00000C0000080AD
:10520000000000030000030000C000006000000078
:1052100000000006002003000060040030000000D1
:105220000000000C001006000060080018000000DC
:105230000000001800000600003000000E00008C86
:105240003200007000000C0000100000030000920B
:10525000010000C004000800001800000180009256
:105260006100018000001800000C004000E0008E8A
:105270000000070004003000000600100038008025
:1052800002001C000100600000060020000E0080EB
:10529000850070000000600000030000000780002F
:1052A0000001E0008000C000000180000000F0006C
:1052B000000F0000000180000000C00000003F005F
:1052C00000FC00016003000000006001000003FF1B
:1052D000FFC0000080060000000030008000000FCA
:1052E000F0000020000C00000000380080000000EA
:1052F00000000000001C000000001C000200000074
:10530000000000400038000000000E000100000016
:105310000000000800700000000003000100000011
:105320000000002000C0000000000180010000001B
:105330000000400001800000000000C000040000E8
:1053400000002000030000000000007000040000C6
:10535000000810000E0000000000003800040000EB
:10536000080800001C0000000000000C0002000003
:1053700004000000300000000000000700000000F2
:1053800002000000E000000000000001C00000007A
:10539000080000038000000000000000F000000092
:1053A0000000000F00000000000000003C000000B2
:1053B0000000003C00000000000000000F000000A2
:1053C000000000F0000000000000000003C000002A
:1053D000000003C000000000000000000078000092
:1053E00000001E000000000000000000001F000080
:1053F0000000F80000000000000000000003F800BA
:10540000001FC000000000000000000000003FFE80
:105410007FFC00000000000000000000000000FF12
:10542000FF0000000000000000000000000000007D
:105430000000000000000000000100080100020060
:10544000001000006454000800000020B8000000B4
:10545000040100081C550008B8000020C80700001F
:105460002001000800000000000000000000000013
:10547000000000000000000000000000E906000835
:10548000410700089D07000855080008AD080008FE
:10549000610900087909000891090008F509000868
:1054A000030A0008110A00081F0A00082D0A000854
:1054B0003B0A0008490A0008F50A0008A10B000889
:1054C000000000000000000000000048000000484C
:1054D000001400480014004800000048008000004C
:1054E00000000200000000000000000000000000BA
:1054F00000000000000000000000000000000000AC
:105500000000000000000000006CDC020000000051
:0C55100000000000010203040607080967
:04000005080000C12E
:00000001FF
