:020000040800F2
:1000000078080020A5010008C32A0008F51E000892
:1000100000000000000000000000000000000000E0
:100020000000000000000000000000006D2F00082C
:1000300000000000000000003D2B0008F12F000828
:10004000D5010008D5010008D5010008D501000838
:10005000D5010008D5010008D5010008D501000828
:10006000D5010008D5010008D5010008D501000818
:10007000D5010008D5010008D5010008D501000808
:10008000D5010008D501000800000000D5010008D6
:10009000D501000871300008D5010008D50100081D
:1000A000D5010008D5010008D5010008D5010008D8
:1000B000D501000800000000D50100080000000084
:1000C00000F002F800F03EF80CA030C80838241800
:1000D0002D18A246671EAB4654465D46AC4201D180
:1000E00000F030F87E460F3E0FCCB6460126334274
:1000F00000D0FB1AA246AB4633431847304F0000EE
:10010000504F0000103A02D378C878C1FAD852078D
:1001100001D330C830C101D504680C6070470000BD
:100120000023002400250026103A01D378C1FBD813
:10013000520700D330C100D50B6070471FB51FBDFB
:1001400010B510BD00F099F91146FFF7F7FF03F065
:1001500085FB00F0B1F903B4FFF7F2FF03BC00F038
:10016000B7F9000002B401008008081A020910184B
:10017000020A1018020C1018C0088200121852004F
:10018000891A04BC1170704740BA704730B400231C
:100190000024055B2B4414440139FADC180030BC00
:1001A000704700000F4880F308880F480168090E67
:1001B0000E4A914205D10E480E4901600E480F4982
:1001C00001600F4880470F480047FEE7FEE7FEE763
:1001D000FEE7FEE7FEE700000B480C490C4A0D4B1A
:1001E0007047000078080020040000001F00000095
:1001F0001810024001000000000001400000000053
:10020000F52F0008C10000087802002078080020BF
:100210007804002078040020FEB5054610460C4600
:10022000184373D0AE468C460020AD1A01469C415F
:1002300067D36646002701243D46B61A9D4102D386
:1002400013463A462124654676462F04360C3E4333
:100250002D0CB61A9D4104D3150C1B042B4312041C
:100260001034654676462F06360A3E432D0AB61AE6
:100270009D4104D3150E1B022B4312020834654620
:1002800076462F0736093E432D09B61A9D4104D301
:10029000150F1B012B431201241D65467646AF073F
:1002A000B6083E43AD08B61A9D4104D3950F9B0096
:1002B0002B439200A41C65467646EF0776083E4322
:1002C0006D08B61A9D411AD392185B41641C16E062
:1002D0000018764665464941B71A9D410191009044
:1002E00009D36046B11A98418E4684460098019918
:1002F0000025401C6941DD0752082A435B08641E43
:10030000E6D57246634603B0F0BDFFE70020014624
:10031000C046C0462A462346F5E7002203098B4221
:100320002CD3030A8B4211D300239C464EE0034694
:100330000B433CD4002243088B4231D303098B4248
:100340001CD3030A8B4201D394463FE0C3098B427E
:1003500001D3CB01C01A524183098B4201D38B01D7
:10036000C01A524143098B4201D34B01C01A52417A
:1003700003098B4201D30B01C01A5241C3088B42BF
:1003800001D3CB00C01A524183088B4201D38B00AA
:10039000C01A524143088B4201D34B00C01A52414C
:1003A000411A00D201465241104670475DE0CA0F23
:1003B00000D04942031000D34042534000229C46E3
:1003C00003098B422DD3030A8B4212D3FC228901ED
:1003D00012BA030A8B420CD3890192118B4208D3C3
:1003E000890192118B4204D389013AD0921100E025
:1003F0008909C3098B4201D3CB01C01A5241830939
:100400008B4201D38B01C01A524143098B4201D365
:100410004B01C01A524103098B4201D30B01C01A90
:100420005241C3088B4201D3CB00C01A524183080A
:100430008B4201D38B00C01A5241D9D243088B4260
:1004400001D34B00C01A5241411A00D20146634603
:1004500052415B10104601D34042002B00D5494267
:10046000704763465B1000D3404201B50020C04690
:10047000C04602BD704770477047754600F024F8CB
:10048000AE46050069465346C008C000854618B010
:1004900020B5FFF7A1FE60BC00274908B64600263C
:1004A000C0C5C0C5C0C5C0C5C0C5C0C5C0C5C0C524
:1004B000403D49008D46704710B50446C046C046D1
:1004C0002046FFF748FE10BD004870471802002084
:1004D00001491820ABBEFEE726000200704700006D
:1004E0004048408B40490880084600883F494843BF
:1004F00040013F4908603C4800883C4948430002AD
:100500003C490860052080033B4908603B483C4962
:1005100008603C4840693C4908433A4948610846FC
:10052000806949150843374988610920C006006879
:100530000F2108430921C90608600846C068000960
:100540000001C860314832490861324848614020A2
:10055000C8603148886008468068012108432C49FA
:1005600088600120400329494039C86000200861A3
:100570000720486129488862800529498860234806
:1005800040388068C905084320494039886000BF69
:100590001E4840388068C00FC0070028F8D12148A5
:1005A0001A494039C8600846806801210843174944
:1005B0004039886000BF154840388068C007C00FC8
:1005C0000028F8D0114840388068042108430F49BA
:1005D00040398860FF205F301349088000201349AC
:1005E00008707047A0F7FF1F82000020E40C000095
:1005F000900000208400002088000020D6380000F1
:100600008C00002000100240010006004024014040
:100610000000024098010020A02500000100020017
:1006200000270140032000008000002098000020E7
:10063000F8B51F480088FF215F31884200DAF8BD15
:1006400000201B490880042220211A48FFF79EFD44
:1006500019490860042220211648801CFFF796FDE6
:10066000154948600846416814480068FFF755FE80
:1006700013490880104840681249096848430746F2
:100680000D4800681049096802F03AFD05463A46EF
:100690000023FFF7C1FD04460C490988601A00B227
:1006A0000B49088001200B49087000BFC7E7000014
:1006B0008000002098010020780000209000002099
:1006C0009600002088000020840000208C0000207C
:1006D000940000209800002002480088401C014936
:1006E000088070478000002010B50446204603F0C3
:1006F000A3F8002804D1204603F0A7F8002818D05A
:100700000E488078C007C00F002808D00B488078BA
:10071000FE2108400949887002F06CFA07E007489A
:100720008078012108430549887002F069FA02F0D7
:100730004BFB012000F02CFE10BD00001801002032
:1007400070B505461448007A8407A40F284603F0C4
:1007500073F8002803D0032C01D2601CC4B22846D1
:1007600003F073F8002803D0002C01D0601EC4B23F
:10077000284603F061F8002804D1284603F065F804
:10078000002805D00448047202F0DAFB02F000FBF6
:10079000012000F0B9FD70BDD800002070B50646FC
:1007A000042002F0A9FA0446264800788000264971
:1007B0000D58304603F040F8002804D06019234952
:1007C000884200D86419304603F03FF8002804D06E
:1007D0001F482818A04200D8641B304603F02CF8AC
:1007E000002804D1304603F030F8002808D0214614
:1007F000042002F09FFA02F0A3FB02F0C9FA1BE00A
:10080000012E0AD10F480078401CC0B20D49087073
:10081000072811D9022008700EE0022E0CD10948D9
:100820000078022803D807200649087004E005482C
:100830000078401E034908700248007800F0B2FCBE
:1008400070BD000003000020B838000800A8610057
:10085000CC5B000010B50446204602F0EDFF0028F6
:1008600004D1204602F0F1FF002818D00E4840784D
:10087000C007C00F002802D002F0C8F90DE002F056
:1008800013FB002809D002F09FFA002805D0064883
:10089000C078002801D102F0BFF902F095FA0120DA
:1008A00000F0A2FD10BD00001801002070B5064642
:1008B0000C2002F021FA04462548007880002549E2
:1008C0000D58304602F0B8FF002804D060192249C4
:1008D000884200D86419304602F0B7FF002804D0DF
:1008E0001E482818A04200D8641B304602F0A4FF1E
:1008F000002804D1304602F0A8FF002806D0214687
:100900000C2002F017FA02F05BFD1BE0012E0AD169
:100910000F480078401CC0B20D490870072811D953
:10092000012008700EE0022E0CD109480078012841
:1009300003D807200649087004E005480078401EE7
:10094000034908700248007801F09EF870BD00006D
:1009500004000020B8380008D0121300409C0000AA
:1009600010B504460023034A1021204602F0A6FCDD
:1009700010BD00000500002010B504460123034A05
:100980001221204602F09AFC10BD00000600002053
:1009900010B504460021204602F0CAFB10BD10B578
:1009A00004460121204602F0C3FB10BD10B50446E9
:1009B0000221204602F0BCFB10BD10B50446032105
:1009C000204602F0B5FB10BD10B5044600212046BC
:1009D00002F00AFC10BD10B504460121204602F0C9
:1009E00003FC10BD70B506462C2002F079F90446D0
:1009F00024480078800024490D58304602F01CFF3E
:100A0000002804D060192149884200D86419304672
:100A100002F01BFF002802D0AC4200D3641B30461A
:100A200002F00AFF002804D1304602F00EFF002831
:100A300006D0A1B22C2002F073F902F0C1FC1BE039
:100A4000012E0AD10F480078401CC0B20D49087031
:100A5000052811D9012008700EE0022E0CD109489A
:100A60000078012803D805200649087004E00548ED
:100A70000078401E034908700248007801F09CF895
:100A800070BD00000D000020B8380008504600007E
:100A900070B505461648C479284602F0CDFE0028F8
:100AA00007D0082C01D3002001E0601CC0B204462E
:100AB0000DE0284602F0C9FE002808D0082C01D815
:100AC000002C01D1082001E0601EC0B20446284677
:100AD00002F0B2FE002804D1284602F0B6FE00283B
:100AE00002D0204602F012FA012000F03BFF70BD58
:100AF00018010020FEB5074642480078032801D9B6
:100B0000012000E000200546002D03D03D4800787C
:100B1000C01E01E03B480078C0B20290002D04D016
:100B2000029880003849085804E00298401C800070
:100B3000354908580646002D01D0302000E02E200F
:100B40000190002D01D0314801E07D20000100908E
:100B5000019802F0C5F80446384602F06DFE002800
:100B600004D0A1190098814200D8A419384602F097
:100B70006CFE002802D0B44200D3A41B384602F019
:100B80005BFE002804D1384602F05FFE002806D044
:100B9000A1B2019802F0C4F802F012FC1BE0012F90
:100BA0000AD118480078401CC0B2164908700628BF
:100BB00011D9012008700EE0022F0CD111480078E5
:100BC000012803D806200F49087004E00D4800787A
:100BD000401E0C4908700B4A1278032A03D9094AAF
:100BE0001278D21E00E000221146064A1278032A2B
:100BF00002D8044A127800E00022104600F00CFEF1
:100C0000FEBD00000E000020B8380008E703000019
:100C1000022011490870002010490870104908701E
:100C200005201049087004200F49087001200F4961
:100C300008700F49087006200E49087048708870C7
:100C4000C87003200C49087048700C4908700220D5
:100C50000B490870704700000000002001000020D0
:100C600002000020030000200400002005000020F6
:100C700006000020070000200B0000200D000020CF
:100C80000E00002010B50D480088FF212D3188424C
:100C900013D900200949088002F096F800F058FBAB
:100CA00007480078002802D100F054FC05E000F06D
:100CB00023FA002801D100F055FE10BD10000020DD
:100CC0000200002002480088401C0149088070474B
:100CD0001000002010B5BB480088082108400028FB
:100CE00008D00320FFF700FDB6480088082188439C
:100CF000B4490880B34800882021084000280CD05F
:100D0000B1480078002802D10320FFF7A3FDAD48C9
:100D1000008820218843AB490880AA4800888021A8
:100D2000084000280DD0A8480078002806D000F020
:100D3000D1F900F083FB0020A34908700020A149ED
:100D40000880A048008801214902084000280DD0F1
:100D50009D480078002806D100F0BCF900F0B8FCEE
:100D6000012099490870002096490880954800881C
:100D70001421084000283ED09348007800281AD05B
:100D80009048008804210840002806D08F48007849
:100D900080008F4A1158012088478A480088102116
:100DA0000840002821D0894800788000884A1158DE
:100DB0000220884719E08348008804210840002861
:100DC00006D0844800788000834A11580120884763
:100DD0007C48008810210840002806D07D48007813
:100DE00080007D4A115802208847764800881421E7
:100DF00088437449088073480088FF2141310840C6
:100E000000285FD07048007800282AD06D480088FC
:100E10004021084000280BD06C480078002802D1FF
:100E200009206A49087069480078401E67490870BF
:100E300064480088FF2101310840002809D0634838
:100E40000078401CC0B261490870092801D1002017
:100E500008705E48007880005D4A1158002088477D
:100E600029E0584800884021084000280BD0594804
:100E70000078002802D107205649087055480078AC
:100E8000401E544908704F480088FF210131084036
:100E9000002809D04F480078401CC0B24D49087066
:100EA000072801D1002008704A48007880004A4A8B
:100EB00011580020884743480088FF21413188436A
:100EC000404908803F4800880121890208400028E5
:100ED00019D03D480078002807D03C4800788000B1
:100EE0003B4A11580020884706E03A4800788000C5
:100EF000394A115800208847324800880121890268
:100F00008843304908802F480078C007C00F002868
:100F100028D02D48007800280FD000F0EDF80028E8
:100F200001D0032000E0002004462848007880001B
:100F3000274A1158204688470EE000F0DDF80028C7
:100F400001D0032000E00020044622480078800001
:100F5000214A1158204688471A4800884008400016
:100F6000184908801748008802210840002828D026
:100F70001548007800280FD000F0BEF8002801D0F6
:100F8000042000E000200446104800788000104A49
:100F90001158204688470EE000F0AEF8002801D036
:100FA000042000E0002004460A48007880000A4A35
:100FB0001158204688470348008802218843014988
:100FC000088010BD720000200200002001000020F7
:100FD00030000020000000201400002070B50546FD
:100FE000002414E00F4801192846FFF7BBF8054616
:100FF0000C48005D0A2805D30A48005D0A380949F3
:1010000008556D1C002D01D1641C02E0641C0A2CE3
:10101000E8D300BF03E0002002490855641C0A2CF5
:10102000F9D370BDC400002038B50446002C0FD0A1
:101030000D4805880D4800890B4908800B4AD38864
:10104000518810880C3201F09DF80748058009E0AE
:1010500006480089054B00909A8859881888102303
:1010600001F0B4FC38BD000058000020B0000020A2
:10107000FFB581B006460F46154600F02BF8134920
:101080000498C88012480088088108460680478076
:10109000002408E0295D0D480C300155285D00282A
:1010A00000D102E0641C072CF4D300BF00210748E4
:1010B000C174E004000C054988801820C872FA2029
:1010C00088720120FFF7B0FF05B0F0BDB00000202E
:1010D0005800002010B50020064988720846C07AE2
:1010E000002802D00120FFF79FFF00200149C872AD
:1010F00010BD0000B00000200148C07A7047000019
:10110000B000002008B5234801F0D6F8224880231B
:101110000122002100900D2001F058FC1E480123FF
:101120009222202100900E2001F050FC1B4B0A223D
:101130001121002001F0CAFA184B0B2233210020A4
:1011400001F0C4FA154B0C224B21002001F0BEFA2D
:10115000124B0D227021002001F0B8FA104B05222D
:101160000221002001F0B2FA0D4B042224210020BC
:1011700001F0ACFA0A4B02224421012001F0A6FA48
:10118000074B03226921012001F0A0FA00F056F973
:1011900008BD0000FFFF000018C6000051A60000B7
:1011A00030840000F8B506466A25042001F0A4FD4D
:1011B00007463846FFF712FF0020C0431649088053
:1011C000002426E01548005D3030C2B2FF23D03342
:1011D0001021284601F0B2F9601C864207D10F4861
:1011E000025DFF23D0331021284602F071F9284612
:1011F000083885B2052C01D1281F85B2042C07D1EF
:10120000291F88B2FF23D0332E22102101F096F936
:10121000641C072CD6D3F8BD58000020C400002061
:1012200008B52E482E49088000232EA219460E200C
:1012300000F0A8FF0020C0432949088000232BA20A
:101240001946502000F09EFF00232AA210210E20F4
:1012500000F098FF002329A21021742000F092FFD3
:10126000274B0D220021822001F008F9244B0E2289
:101270000021882001F002F9214B0F2200218E204D
:1012800001F0FCF81E4B10220021942001F0F6F82A
:101290001B4B112200219A2001F0F0F8184B0D226F
:1012A00009219A2001F0EAF81648112301220021B1
:1012B0000090802001F08AFB124801232022112196
:1012C0000090802001F082FB002000F061F80020F7
:1012D00000F01AF80020FFF765FF08BDFFC7000007
:1012E00058000020CEA2B2A8D4B40000B9A6C2CA49
:1012F00000000000C6B5C2CA3A00000047487A00A4
:101300005854000018C6000070B504460D48007A15
:101310008007800F410045180020C0430A4908801B
:101320000A4842191F230021702000F02BFF002CD7
:1013300006D0064842191F2300217020FFF798FEAF
:1013400070BD0000D800002058000020A43800081C
:1013500010B50020C0430B4908800B4880788007F7
:10136000800F032807D105231B02002210219220A1
:1013700001F0ACF905E0054B01221021922001F0AB
:10138000A5F910BD580000201801002007FC00003E
:1013900070B506460020C0430F4908800F4880788A
:1013A000C007C00F002803D00DA43F256D0102E047
:1013B0000CA41F25ED022B4622460021402000F000
:1013C000E1FE002E05D02B46224600214020FFF7EB
:1013D0004FFEFFF7BDFF70BD580000201801002030
:1013E000BFAA0000B9D8000070B506460020C0436F
:1013F0000E4908800E484078C007C00F002803D06F
:101400000CA43F256D0102E00BA41F25ED022B4625
:1014100022462121402000F0B5FE002E05D02B46AB
:10142000224621214020FFF723FE70BD58000020F6
:1014300018010020BFAA0000B9D8000008B5FFF7C6
:10144000EFFE2F485F239222212100900E2001F011
:10145000BDFA2C482C49088000232CA221210E2003
:1014600000F090FE0020C04327490880002329A2F5
:1014700031210E2000F086FE002329A23121902088
:1014800000F080FE002327A241210E2000F07AFE0A
:10149000002326A241215E2000F074FE002325A235
:1014A00051210E2000F06EFE002323A2512158206E
:1014B00000F068FE214B22A261210E2000F062FEA6
:1014C0001E4B17A26121882000F05CFE1B4B1EA260
:1014D00070210E2000F056FE184B1DA270218820AE
:1014E00000F050FE0020FFF77FFF002000F0CCFA54
:1014F0000021084600F0A6FA00F02CF808BD000014
:10150000FFFF0000FFC7000058000020CBF8CFE02D
:10151000BBB70000D6D0D0C4C6B5C2CA3A000000DE
:10152000487A0000B1B6C6B500000000B3FDC6B5EC
:1015300000000000C6B50000CFE0000058540000D5
:10154000CAE4B3F63A000000C6B5C2CA0000000003
:101550004D487A007CB55A4844780020FFF744FF94
:10156000482001F0B7FB0546564805232A4651217D
:1015700000901E2002F0FEF84C2001F0ABFB054667
:101580005048002101232A460091019051216820F2
:1015900002F050F8502001F0AFFB05464948002109
:1015A00007232A46009101906121362002F006F9B6
:1015B00001F0A2FF204602F003F88020204000281E
:1015C00007D11F23DB020F2221218E2001F07EF89C
:1015D0007CBD02202040002802D00520000200E04F
:1015E00039480346610801228A432121522001F033
:1015F0006DF804202040002807D01F23DB020622BC
:1016000021215E2001F062F807E0304810230C220F
:10161000212100905E2001F0D9F908202040002807
:1016200007D01F23DB02072221216A2001F04EF898
:1016300007E0264810230C22212100906A2001F0A7
:10164000C5F910202040002807D01F23DB02082204
:101650002121762001F03AF807E01C4810230C22E3
:1016600021210090762001F0B1F9202020400028AF
:1016700007D01F23DB0209222121822001F026F856
:1016800007E0124810230C2221210090822001F053
:101690009DF940202040002807D01F23DB020F22A5
:1016A00021218E2001F012F807E0084810230C22B7
:1016B000212100908E2001F089F900BF88E7000009
:1016C00018010020AACA000007FC0000FFFF00006C
:1016D00008B53B4880239222002100900E2001F0A3
:1016E00075F90020C04337490880002336A2194607
:1016F0000E2000F047FD002335A210210E2000F03F
:1017000041FD002334A220210E2000F03BFD0023E8
:1017100033A230210E2000F035FD002332A24021FB
:101720000E2000F02FFD002332A250210E2000F0E9
:1017300029FD002332A260210E2000F023FD0023AA
:1017400044226021402000F0F9FE00233122602174
:10175000482000F0F3FE00233A226021502000F0E0
:10176000EDFE002328A270210E2000F00BFD0023C7
:1017700027A27021582000F005FD0021084600F046
:101780001BF90021012000F017F90021022000F0D0
:1017900013F90021032000F00FF90021084600F0A2
:1017A00023F90021012000F01FF9002000F004FAC5
:1017B000002000F0D7F80021084600F02DF808BD01
:1017C000FFFF000058000020D7B7D7D95000000015
:1017D000D7B7D7D949000000B2B6BBF16600000008
:1017E000B9FDB6C966000000CAE4B3F6C9CFCFDEC2
:1017F00000000000CAE4B3F6CFC2CFDE0000000054
:10180000CFE0B2D0CFDE0000B7F9B6C800000000CC
:10181000C6B5B2D000000000FEB505460E462E202B
:1018200001F05EFA0290302001F05AFA01907D2119
:10183000C9000298FEF771FD3030C7B2FF23D033E4
:101840003A4670212E2000F079FEFF23D0332E225D
:101850007021362000F072FE64210298FEF75DFDD3
:101860000A210090FEF759FD0F463037FF23D03391
:101870003A4670213E2000F061FE0A210298FEF7F0
:101880004CFD0A210090FEF748FD0F463037FF233C
:10189000D0333A467021462000F050FE00235622F5
:1018A00070214E2000F04AFE012D0FD10A2102982E
:1018B000FEF733FD0A210090FEF72FFD0F46FF23B0
:1018C000D0333A467021462001F002FE022D0FD19E
:1018D00064210298FEF721FD0A210090FEF71DFD0C
:1018E0000F46FF23D0333A4670213E2001F0F0FD31
:1018F000032D0CD17D21C9000298FEF70EFDC7B261
:10190000FF23D0333A4670212E2001F0E1FD0198EB
:10191000FFF764FB032410E0611E114B595C30316A
:10192000CAB20321091BC900803188B2FF23D0331A
:10193000702100F003FE601EC4B2002CECD1002E1A
:101940000CD0711E064B5A5C0321891BC9008031E3
:1019500088B2FF23D033702101F0BAFDFEBD000034
:10196000C4000020F8B504461148C679082E03D8F3
:1019700030463030C0B200E02D2005460020C04384
:101980000C490880FF23D0332A466021582000F0FC
:10199000D5FD002C0AD06846057000214170FF2358
:1019A000D0336A4660215820FFF762FBF8BD000083
:1019B00018010020580000207CB504460D46A10007
:1019C0001431C8B201F098F90646FF21D031E8B2CF
:1019D000019100900348015D07233246582001F031
:1019E000EDFE7CBDB0380008FEB504460E46002C66
:1019F00001D0282100E02421084601F06BF90546BA
:101A0000002D01DA684200E028460746002C01D08C
:101A10002D2000E02B2002460948015DFF23D03332
:101A2000582000F08BFDFF21D031F0B201910090E1
:101A30000348015D05233A46602001F0BFFEFEBD6C
:101A4000B43800087CB504460D46102001F048F972
:101A50000646FF21D031E0B20423324601910090C6
:101A60004121362001F0AAFE122001F039F9064684
:101A7000FF21D031E8B20423324601910090412188
:101A80007E2001F09BFE7CBDF0B585B004460C20A5
:101A900001F032F903900A210398FEF73EFC064656
:101AA0000020029040481023382231210090582015
:101AB00000F08CFF0020C0433C4908803C4886422F
:101AC0002BD33046FFF78AFA062510E0691E394B02
:101AD000595C3031CAB20621491BC900583188B25D
:101AE000FF23D033312100F029FD681EC5B2002D3F
:101AF000ECD1022C55D3072C53D8A01EC000802156
:101B0000081A80B20290A01E2A490A5CFF23D03333
:101B10003121029801F0DCFC43E03046FFF75EFA29
:101B2000FF20D03000210523324600910190312161
:101B3000582001F043FEFF23D0332E223121802094
:101B400000F0FCFC0A210398FEF7E7FB0F46303754
:101B5000FF23D0333A463121882000F0EFFC012CDE
:101B60000CD10A210398FEF7D8FB0F46FF23D03390
:101B70003A463121882001F0ABFC12E0022C10D350
:101B8000062C0ED8A01EC0007821081A80B2029040
:101B9000A01E08490A5CFF23D0333121029801F0CE
:101BA00097FC05B0F0BD0000FFFF000058000020CA
:101BB000A0860100C40000207CB504462C2001F062
:101BC0008FF80546FF20D030002C01D0012100E025
:101BD000002100232A46009101906021084601F06F
:101BE00029FD7CBD10B52648C07A002810D02448B5
:101BF000807A00280CD1962021498872C97AC807BA
:101C0000C00FFFF711FA1E48C07A401E1C49C87267
:101C10001C480078002832D01B480024045F0020B4
:101C2000C0431A490880002C08DA194B0B220921FD
:101C3000842000F023FC604204B205E0144B0A2229
:101C40000921842000F01AFC2046FFF7C7F9104B49
:101C50000C220921902000F011FC0E48C2780C4B98
:101C600009218A2000F00AFC0A488278084B0921E1
:101C7000942000F003FC00200249087000BF10BD52
:101C8000B0000020980000209400002058000020A0
:101C9000AACA0000C40000200648C07A002808D064
:101CA0000448807A002804D00248807A401E014906
:101CB00088727047B00000204348C0690221084381
:101CC0004149C861084640692321490408433E4907
:101CD00048613E4800680F21090288433B4908607B
:101CE000084600680521490208433849086008464B
:101CF000006AFF2109048843344908620846006AE3
:101D0000112109040843314908620846C0680F21BF
:101D1000090288432D49C8600846C06805210902A8
:101D200008432A49C8602A4800680C21884328498A
:101D300008600520C8600920C00600680321090466
:101D400088430921C90608600846C068214908403F
:101D50000921C906C8600846C0681F49084309210F
:101D6000C906C86000201D49088088631B492031CE
:101D700008811B481949C86200208881C81348623D
:101D80001648203000880221084314492031088079
:101D9000084600881249203908401049203108803F
:101DA0000E48008B0F4908430C49088308460089F8
:101DB0000221084309490881084600880121084397
:101DC00006490880704700000010024000040048E7
:101DD00000140048FFFF3CFC0000410100040040EB
:101DE000FFFF00002121000030B53B4B5B6A9AB237
:101DF0003A4B1B889A4224D0384B1B889A4210DDFC
:101E0000364B1B88D31A012B1BDD344B1B889B1CC4
:101E1000324C2380324B1B8801242343304C2380D7
:101E20000FE02E4B1B889B1A012B0ADD2B4B1B88C6
:101E30009B1E2A4C23802A4B1B8802242343284CB8
:101E40002380264B1B88274CA34203DC234B1B8893
:101E50000F2B05DA0123DB03204C23801E4C636229
:101E6000002036E04300204CE15A83001F4CE35829
:101E70001B8A44001E4D2C5B2340002B15D14B1CAC
:101E800099B2FF23F533994208D14400E41C0123A1
:101E9000A340134C24882343114C2380114B0A3355
:101EA000994212DDFF21F6310FE003290CDDFF23FB
:101EB000F533994208DA4400A41C0123A340084CDE
:101EC00024882343064C238000214300064CE15222
:101ED000401C0528C6D330BD00040040700000201F
:101EE00072000020F0FF0000CE0000205C00002007
:101EF0002050000800BFFEE72B48406901218904FB
:101F00000843294948610846C06901214905084339
:101F10002549C86125488088C02108432349888015
:101F2000084680680F210903084320498860084655
:101F300000680F21090388431C4908600846C068EF
:101F40000F21090388431949C86008460068052124
:101F500049030843154908600846C068052109037C
:101F600008431249C8600846006A0002000A086275
:101F70000846006A1121090608430C4908620C480A
:101F800000680C4908400A4908600846006889143E
:101F9000884307490860084808610846006801212D
:101FA00008430349086070470010024000040048DD
:101FB00000540040FEE0CF000705210030B5054683
:101FC00008484468084804400120400328180121BB
:101FD00089030843044303484460202000F062F86A
:101FE00030BD000000540040009800FCFFB50746DB
:101FF00015460026002D02D1002004B0F0BD264871
:10200000806926490840002802D008462249C86154
:102010002148446822480440012040033818012127
:102020000904401804431C484460022000F03AF8B8
:10203000002801D00020E0E717490198886240207D
:1020400000F030F8002801D00020D6E7124844689C
:102050001348044001204003381801218902084335
:10206000C90340182904084304430B4844600EE0A8
:10207000042000F017F8002801D0F0B2BDE70648B0
:10208000406AC1B203988155761C681EC5B2002D06
:10209000EED1F0B2B1E7000000540040101B000088
:1020A000009800FC0146052252030EE01046521E25
:1020B000002801D1012070470D48806901231B03CE
:1020C0001840002801D00120F5E709488069084040
:1020D0000028EBD00648806910231840002804D05F
:1020E0001020034BD8610120E5E70020E3E7000062
:1020F00000540040FFB581B006460F46144600204C
:1021000000901D4880691D490840002802D00846FB
:102110001949C8611848456819480540601C000401
:102120000121490371180122520689180843054309
:10213000114845600120FFF7B5FF002801D005B028
:10214000F0BD0D4887620FE00120FFF7ABFF0028CC
:1021500000D0F4E700990498405C07498862009831
:10216000401C0090601EC4B2002CEDD10120FFF78E
:1021700099FF00BFE3E7000000540040101B00007F
:10218000009800FCFFB581B0064614462DE0FF27FD
:1021900000250EE01748405D2178884207D1154997
:1021A000681C085C6178884201D16F1005E0A81CAA
:1021B00085B21048405D0028ECD100BFFF2F0AD047
:1021C000FAB23046049B029900F020FA30461030F3
:1021D00086B2A41C09E022783046049B029900F0E4
:1021E000ADF93046083086B2641C20780028CED184
:1021F00005B0F0BDC83E00082C48406901218904A3
:1022000008432A4948610846C06989150843274997
:10221000C861274800680C218843254908600846A2
:10222000006808210843224908600846006AF02136
:1022300088431F49086208468088022188431C4958
:1022400088800846808A0C210843194988822F20FB
:1022500018490881632017492039C8620020486363
:102260000846008B60210843124920390883114831
:102270000088012108430F4908800E4820308088DB
:10228000C91308430B49203188800A482038008848
:10229000012108430749203908800846808A012126
:1022A000084304492039888270470000001002402A
:1022B000000400482020004070B504460025204658
:1022C000FDF762FF84B20021084600F079FA00F0C1
:1022D000F3FB10201149088108200921C9068861F3
:1022E00000BF0AE000BF0E4800890321C902084070
:1022F0008842F8D00A4884816D1C0520000385427D
:10230000F0D300BF06480089802108408028F9D01A
:1023100010200921C906886170BD00002000004816
:1023200000300140324880690121090308433049E7
:102330008861084640690321490408432C494861E3
:1023400001202C49088104200921C9068861102038
:10235000886108208861274820380068000900014A
:1023600024492039086008460068052108432149AE
:102370002039086008468068052108431D49203936
:10238000886008468088052188431A49203988805A
:102390000920C0060068184908400921C9060860DC
:1023A000084680681449C94308430921C906886062
:1023B00008460068114908430921C9060860084613
:1023C0008088FC2188430921C90688800846006A64
:1023D0000003000B08620A480A490880072000022F
:1023E00088800846008840210843064908807047D5
:1023F00000100240200400480F00FFFF50A9000019
:1024000004C300000030014010B5FFF78BFF01202E
:1024100001F00AF80120164988611E2001F004F835
:10242000112000F031FB0A2000F0FEFF362000F002
:102430002BFB602000F00EFB3A2000F025FB05206E
:1024400000F008FB8023A0220021084600F00AFAD1
:10245000292000F019FB0748FFF72EFFFFF7CCFEFD
:10246000632000F0A3F90020C0430349088010BD99
:1024700000040048FFFF000058000020FFB583B0B3
:1024800004460D461E46012001903046FDF77CFEB5
:1024900086B228460830C3B2A01DC2B2E9B2E0B28B
:1024A000009000F0DFF900F007FB10201F490881C1
:1024B00008200921C906886128E0002720E00621BC
:1024C000059848431A494018C05D029000BF19485A
:1024D00000890321C90208408842F8D00199029876
:1024E0000840002802D01348868105E01248008881
:1024F000FDF74AFE0F4988810298401002907F1C28
:10250000062FDCD301984006000E019001980028A8
:10251000D3D100BF07480089802108408028F9D026
:1025200010200921C906886107B0F0BD20000048CD
:10253000B44700080030014058000020F0B585B0D5
:1025400004460D4616461F4630462038C6B2384669
:10255000FDF71AFE87B228461030C3B22046083075
:10256000C2B2E9B2E0B2009000F07CF900F0A4FA47
:1025700010202249088108200921C906886100200D
:1025800003902AE030011E49411803980858019031
:10259000002002901BE000BF1A4800890321C902F5
:1025A00008408842F8D00198C007C00F002802D028
:1025B0001448878105E014480088FDF7E5FD1149BE
:1025C00088810198400801900298401C029002986E
:1025D0002028E0D30398001D039003981028D1D33E
:1025E00000BF08480089802108408028F9D01020C9
:1025F0000921C906886105B0F0BD0000200000482F
:10260000D83800080030014058000020FFB583B0E2
:1026100004460D461E463046FDF7B6FD86B22846F6
:102620001030C3B220461030C2B2E9B2E0B200901E
:1026300000F018F900F040FA102020490881082025
:102640000921C9068861002728E0059840011C4936
:102650004018C0590190002002901BE000BF1948AB
:1026600000890321C90208408842F8D00198C007B8
:10267000C00F002802D01348868105E01248008868
:10268000FDF782FD0F49888101984008019002986A
:10269000401C029002982028E0D33F1D202FD4D365
:1026A00000BF08480089802108408028F9D0102008
:1026B0000921C906886107B0F0BD0000200000486C
:1026C000343F00080030014058000020FFB583B0BF
:1026D00004460D4617460698FDF756FD80B2069053
:1026E000022F0DDA28460F30C3B220460C30C2B29A
:1026F000A81CC1B2E0B2009000F0B4F804260BE0D0
:1027000028461030C3B220460C30C2B2E9B2E0B263
:10271000009000F0A7F8002600F0CEF910201F4925
:10272000088108200921C906886128E078011C4930
:102730004018805B0190002002901CE000BF194807
:1027400000890321C90208408842F8D00198C007D7
:10275000C00F002803D013490698888105E012486D
:102760000088FDF711FD0F4988810198400801900C
:102770000298401C029002980C28DFD3B61C202E31
:10278000D4D300BF07480089802108408028F9D0B1
:1027900010200921C906886107B0F0BD200000485B
:1027A000B44500080030014058000020632800DDD7
:1027B00063206321091A014A5163704700200040D9
:1027C00070B505460C461020244908810820088170
:1027D0002A202349087300BF21480089802108402E
:1027E0008028F9D008200921C90688612846FDF70C
:1027F000CBFC1B4988819F20FDF7C6FC18498881C6
:1028000000BF17480089802108408028F9D008209F
:10281000124908812B201249087300BF1048008913
:10282000802108408028F9D008200921C906886144
:102830002046FDF7A9FC0A4988817F20FDF7A4FC0A
:102840000749888100BF0648008980210840802808
:10285000F9D010200921C906886170BD2000004808
:1028600000300140F8B507460C4615461E461020BC
:1028700024490881082008812A202349087300BFC1
:1028800021480089802108408028F9D008200921AA
:10289000C90688613846FDF777FC1B498881681EA8
:1028A000FDF772FC1849888100BF17480089802114
:1028B00008408028F9D00820124908812B201249AD
:1028C000087300BF10480089802108408028F9D093
:1028D00008200921C90688612046FDF755FC0A49F0
:1028E0008881701EFDF750FC0749888100BF0648AB
:1028F0000089802108408028F9D010200921C906CC
:102900008861F8BD2000004800300140F8B5054658
:102910000E4614461F4609E022783B4631462846BB
:10292000FFF70CFE2846083085B2641C20787E280C
:1029300002DC20782028EFDAF8BD000070B5802393
:10294000902200211020FFF78DFF00F0B5F8102035
:102950001A49088108200921C906886100241CE061
:102960001748065D002515E000BF164800890321C1
:10297000C90208408842F8D080203040002803D0A7
:1029800011481049888103E00020C0430D49888127
:1029900076006D1C082DE7D3641C0120C002844220
:1029A000DED300BF07480089802108408028F9D085
:1029B00010200921C906886170BD00002000004870
:1029C00020480008003001407C1F0000FEB504468E
:1029D0000D4616461F463046784301900898FDF78D
:1029E000D3FB80B20890E819C3B2A019C2B2E9B211
:1029F000E0B20090FFF736FF00F05EF810201349B8
:102A0000088108200921C9068861002002900DE094
:102A100000BF0F4800890321C90208408842F8D04E
:102A20000B49089888810298401C029001990298ED
:102A30008842EDD300BF06480089802108408028E5
:102A4000F9D010200921C9068861FEBD2000004888
:102A50000030014010210A4A118108210922D206C2
:102A600091610849087300BF064909898022114015
:102A70008029F9D010210922D20691617047000007
:102A800020000048003001401021094A118108212E
:102A900011810849087300BF064909898022114045
:102AA0008029F9D010210922D206916170470000D7
:102AB000200000480030014000B52C20FFF7E4FF63
:102AC00000BD704710B5002819DA1A4A03071B0F1A
:102AD000083B9B089B00D2588307DC0EFF23A340D2
:102AE0009A438B071B0E8407E40EA3401A43114B35
:102AF0000407240F083CA408A4001A5118E00E4A49
:102B000003231B02D21883089B00D2588307DC0ED4
:102B1000FF23A3409A438B071B0E8407E40EA340B8
:102B20001A43054B032424021B198408A4001A51DC
:102B300010BD00001CED00E000E100E0704770B542
:102B400005460C4600F06EF8002800D170BD002349
:102B50001A4629464A20FFF7CDFA002C02D020B2AF
:102B600000F062FC00F05EF8F0E7000008B5FFF747
:102B7000C3F92DE04A20FFF721FA00281AD16B464D
:102B8000022200214A20FFF731FA022812D16846BA
:102B90000078A5280ED16846407803280AD100F0B5
:102BA00013F9002806D00C484078802108400028FE
:102BB00000D00EE00948FFF77FFB1F23DB0208A2CD
:102BC00000210846FFF7A2FEFF20F53000F02CFCA4
:102BD000D0E700BF08BD000018010020FFFF000083
:102BE000434F4D4D554E49434154494F4E20455258
:102BF000524F520010B50021C120FFF7A0FF10BDB9
:102C000010B50121C020FFF79AFF10BD10B50121BA
:102C1000C820FFF794FF10BD10B50121C720FFF7B2
:102C20008EFF10BD38B5002413E06B46012246210B
:102C30004A20FFF7DBF9012807D168460078C00772
:102C4000C00F002801D1012038BDC82000F016FCBB
:102C5000641C02488442E8D30020F5E78813000092
:102C6000F8B504460D461746002000902AE0FFF70D
:102C7000D9FF002800D11EE03B462A4621464A20C3
:102C8000FFF738FA124803192A4621464A20FFF76F
:102C9000ADF9A84200D00EE0002608E0B85DA11909
:102CA0000B4A515C884200D005E0701CC6B2AE42AF
:102CB000F4DB0120F8BD022000F0B6FB0098401CB8
:102CC000C0B2009000980328D1D30020F2E70000A2
:102CD0003801002010B50446204600F00DF810BD64
:102CE00001460448405C034B4A1C9A5C12021043A4
:102CF00070470000D800002001460848405C074BA0
:102D00004A1C9A5C120210438A1C9A5C12041043FB
:102D1000CA1C9A5C1206104370470000D8000020BD
:102D200010B5034B19540B12014C421CA35410BD97
:102D3000D800002010B5074B19540A04130E054C97
:102D4000421CA3540A02130E821CA3540B0EC21C75
:102D5000A35410BDD800002010B50B4800880B49C3
:102D600088420FD300F030F8002808D006480088C9
:102D70000649884203D30621C320FFF7E0FE002066
:102D80000149088010BD00007400002010270000D9
:102D9000012001490880704774000020084800881D
:102DA00000280CD006480088401C054908800846C9
:102DB00000880449884202D90846014908807047C2
:102DC00074000020102700007CB5002653E001AB02
:102DD000012240214A20FFF709F9012800D045E0EF
:102DE0002E4B602200214A20FFF700F9602800D016
:102DF0003CE06B46012240214A20FFF7F7F801280A
:102E000000D033E068460179007881422DD1234813
:102E10004030007869460978884226D11F4880787A
:102E200069460978884220D10025042409E01C481D
:102E3000005D1A49095D884201D0012503E0601C4C
:102E4000C4B2402CF3D300BF002D02D0002015499E
:102E50000880002405E01148005D11490855601CF8
:102E6000C4B2602CF7D301207CBD00BF022000F06B
:102E7000DBFA701CC6B23C2EA9D30948403040781A
:102E80004106490E064840304170407840210843D1
:102E90000349403148700020E6E700003801002077
:102EA000D8000020740000201CB501AB01220221D3
:102EB0004A20FFF79BF8012801D000201CBD124AD0
:102EC0003C210420FFF7CCFE002800D1F6E70221C8
:102ED000C420FFF734FE002800D1EFE76B46012243
:102EE00002214A20FFF782F8012801D00020E5E7FF
:102EF00068460079401CC1B268460078814201D121
:102F00000120DBE70020D9E7DC00002070B5044693
:102F10000A48C579082C01D9002070BD0748C47142
:102F2000C21D01214720FFF79BFE002803D1034863
:102F3000C5710020F1E70120EFE700001801002033
:102F400010B5094B052204214A20FFF7D3F80648A3
:102F50003C308078C007C00F002802D0FFF750FE39
:102F600001E0FFF747FE10BDDC00002070470000C5
:102F700011201D4908601D4840681C4948600846EA
:102F800040684860084640687F21C9038843174964
:102F90004860084640680521C90408431349486051
:102FA000084600680121090608431049086000BF6F
:102FB0000E4800680121490608400028F8D00B4857
:102FC000406880088000094948600846406802213E
:102FD00008430649486000BF044840680C21084087
:102FE0000828F9D17047000000200240001002407C
:102FF0007047000010B51B480068012108431949BB
:103000000860084640681849084016494860084664
:103010000068164908401349086008460068012105
:10302000890488430F490860084640683F21090425
:1030300088430C4948600846C06A00090001C8621C
:103040000846006BFF21543188430649086308464F
:10305000406B40084000486300208860FFF788FF0D
:1030600010BD0000001002400CB8FF08FFFFF6FE84
:1030700010B50848008A0849084006490882FEF74A
:10308000B3FEFDF729FBFFF789FEFEF705FEFDF70E
:1030900019FE10BD00440140FEFF000010B51448A9
:1030A00080690121490408431149886115200121E3
:1030B0008140104A116000BF0221FFF703FD2F205D
:1030C0000D4908810D480C492039C86201208881CA
:1030D000084600880121084307492039088008462E
:1030E000808A0121084304492039888210BD0000EC
:1030F0000010024000E100E020440140E70300002E
:10310000F8B582B28BB2040C0D0C10465843002166
:1031100026465E43370C36048019794116466E43C5
:10312000370C36048019794126466E438919F8BD5B
:10313000F8B507460C46A0001430C0B200900098C5
:10314000FFF7DAFD05462548005D800024490E584A
:10315000384600F071FB002804D0A81921498842A4
:1031600000D8AD19384600F070FB002802D0B542F7
:1031700000D3AD1B384600F05FFB002804D1384671
:1031800000F063FB002806D029460098FFF7D2FD27
:1031900000F016F91BE0012F0AD11048005D401C19
:1031A000C0B20E490855072811D9012008550EE074
:1031B000022F0CD10948005D012803D807200749D8
:1031C000085504E00548005D401E044908550348C1
:1031D000015D2046FEF7F0FBF8BD0000070000206F
:1031E000B8380008FFFF7F00FEB507460C46002CEC
:1031F00001D0282000E0242001900198FFF76AFD0B
:103200000090002C02D00098404200E00098054653
:103210002748005D800027490E58384600F00CFB17
:10322000002804D0A8192449884200D8AD1938468E
:1032300000F00BFB002802D0B54200D3AD1B38468E
:1032400000F0FAFA002804D1384600F0FEFA00280F
:103250000BD0002C01D0684200E0284601460198BE
:10326000FFF768FD00F0ACF81BE0012F0AD1104811
:10327000005D401CC0B20E490855052811D9012037
:1032800008550EE0022F0CD10948005D012803D833
:1032900005200749085504E00548005D401E044923
:1032A00008550348015D2046FEF79EFBFEBD000069
:1032B0000B000020B8380008E87A0100FFB581B0A3
:1032C000074614460298FFF70BFD0546207880005C
:1032D00026490E58384600F0AFFA002804D0A81945
:1032E0002349884200D8AD19384600F0AEFA0028CC
:1032F00002D0B54200D9AD1B384600F09DFA002837
:1033000004D1384600F0A1FA002806D0A9B20298EC
:10331000FFF706FD00F054F815E0012F08D12078E2
:10332000401CC0B2207004280DD9012020700AE092
:10333000022F08D12078012802D80420207002E052
:103340002078401E2070049A002A01D0227800E0E4
:1033500000221146049A002A01D0002200E02278BF
:103360001046FEF76FFB05B0F0BD0000B83800084E
:103370000F270000F8B506460D4617460A24002020
:1033800000903846FDF72AFE14E0601EC4B20B48D8
:10339000005D002801D1002C01D10120009000988F
:1033A000002807D00548005D3030C2B22846691CAD
:1033B000CDB23254002CE8D12846F8BDC40000201C
:1033C00010B5FFF771FD002809D0FFF7FDFC0028BC
:1033D00005D00348C078002801D1FFF7D9FC10BD03
:1033E0001801002010B50B480069042188430949E1
:1033F0000861094909480068FCF78FFF40B2084995
:103400000870002008567D21C900484300B20549D4
:10341000088010BD00E000E000127A009C0000204F
:1034200054000020560000200146124A0023D35EBB
:103430000A465A43104B5A6100229A611A46126991
:1034400001231A430C4B1A6100BF0B4A1069C207D3
:10345000D20F002A04D0012212040240002AF4D024
:10346000054A126952085200034B1A6100229A6100
:10347000704700005600002000E000E00146124ABC
:103480000023D3560A465A43104B5A6100229A61D0
:103490001A46126901231A430C4B1A6100BF0B4AEA
:1034A0001069C207D20F002A04D001221204024080
:1034B000002AF4D0054A126952085200034B1A61DF
:1034C00000229A61704700005400002000E000E0F4
:1034D000F8B505460E4614461F4620463030C1B2A8
:1034E00068460170002141703B466A4631462846D5
:1034F000FDF7BEFDF8BD0000F8B55420FFF7FCFB5A
:1035000005462C492846FCF708FF06462949284667
:10351000FCF703FF0F463046FDF760FD2648807834
:10352000002804D0244880783030C0B200E0202049
:103530000246224B70213020FFF700F81E488078A9
:10354000002803D11C484078002804D01A4840784D
:103550003030C0B200E020200246184B70213820E5
:10356000FEF7ECFF144800783030C2B2134B7021E4
:103570004020FEF7E3FF114B2E2270214820FEF77A
:10358000DDFF3846FDF72AFD06240FE0611E0A4BD9
:10359000595C3031CAB20621091BC900503188B2CA
:1035A000064B7021FEF7CAFF601EC4B2002CEDD19D
:1035B000F8BD000040420F00C4000020AACA00006D
:1035C000F8B5054617480479092C01D8204600E0D3
:1035D0000B200746144E80202840002801D10B27DD
:1035E00015E0062C02D10526360210E0072C01D08A
:1035F000092C02D11F26F60209E0042C01D0052C6B
:1036000002D1FF26D03602E0082C00D1074E002060
:10361000C0430749088033463A4625219A20FEF7E1
:103620002DFFF8BD180100203084000007FC0000C9
:1036300058000020FFB585B016461F4600244A48B2
:1036400010233822009006990598FFF7BFF9002E45
:1036500007DA2D222046611CCCB203A90A54754218
:1036600008E03546002F05D02B222046611CCCB245
:1036700003A90A543D4885420CD3642128463230C0
:10368000FCF74BFE02462146019003A8FFF772FEAD
:1036900004464DE07D20C000854220D30A21681DEC
:1036A000FCF73BFE02900A210298FCF736FE024628
:1036B0002146019003A8FFF75DFE04462E22214615
:1036C000601CC4B203A842540A210298FCF725FEEC
:1036D00030312046621CD4B203AA115428E0642180
:1036E0002846FCF71AFE02462146019003A8FFF780
:1036F00041FE04462E222046611CCCB203A90A5486
:103700000A212846FCF709FE0A210190FCF705FE74
:1037100030312046621CD4B203AA11540A21284633
:10372000FCF7FBFD30312046621CD4B203AA1154D1
:103730007E222046611CCCB203A90A540020085501
:10374000401E0B49088003AA0F9B06990598FEF7B7
:1037500019FD0E98002805D003AA0F9B069905981D
:10376000FDF786FC09B0F0BDFFFF00001027000048
:1037700058000020FFB583B005460F4614460C9E46
:10378000002C01DA2D2000E02B200246334639467A
:103790002846FEF7D3FE002C01DA604200E0204606
:1037A00002900020294608310196009088B23946DF
:1037B000069B029A00F002F807B0F0BDFFB581B099
:1037C000054616461F46002000903046FDF706FCD1
:1037D0003C462BE0601E1749085C002804D1012CF0
:1037E00002D00A98A04201DB012000900098002836
:1037F00005D0601E0F49085C3030C0B200E02020C8
:10380000024628460B9B0299FEF798FE0A98A042B2
:1038100007D1601E07490A5C28460B9B0299FFF7F7
:1038200057FE2846083085B2601EC4B2002CD1D1A4
:1038300005B0F0BDC40000200146032901D00529D0
:1038400001D1012070470020FCE70146042901D086
:10385000062901D1012070470020FCE7FFF7C2FDD7
:10386000FEF7D2FDFCF73CFEFFF768F87D20000173
:10387000FFF7DAFDFEF720FAFFF710FCFFF776F905
:10388000FCF7D6FEFDF7C4F9FDF73CFC09E0FDF7B7
:1038900021FAFCF7CDFEFEF7A5F9FFF75DFAFDF77B
:1038A000F1F9F4E7C8F500D0A100D6D000B4F300D8
:1038B0000010203040500000000000000100000017
:1038C0000A00000064000000E80300001027000068
:1038D000A086010040420F00000000000000000030
:1038E00000000000000000000000000808080808B0
:1038F0000808000008080000004824241200000006
:1039000000000000000000000000004848487E243D
:1039100024247E24242400000000103C5252121C57
:1039200030505052523C1010000000000000824401
:103930002810284482000000000000000018180031
:10394000FF00181800000000000604040200000038
:1039500000000000000000000040201010080808CF
:103960000808081010204000000204080810101079
:1039700010101008080402000000000008086B1C6A
:103980001C6B080800000000000000000010101070
:10399000FE101010000000000000000000000000F9
:1039A0000000000006040402000000000000000007
:1039B0007E00000000000000000000000000000089
:1039C000000000000606000000004020202010102B
:1039D00008080804040202000000001824424242C1
:1039E0004242424224180000000000101C10101037
:1039F00010101010107C00000000003C42424240B9
:103A000020100804427E00000000003C424240209A
:103A100018204042423C00000000002030302824A2
:103A20002422FE2020F800000000007E0202021E78
:103A300022404042221C0000000000182402023AEA
:103A400046424242443800000000007E42202010DE
:103A500010080808080800000000003C4242422408
:103A600018244242423C00000000001C2242424214
:103A7000625C40402418000000000000000018189C
:103A800000000000181800000000000000000008FE
:103A90000000000000080808000000402010080492
:103AA00002040810204000000000000000007E001A
:103AB000007E00000000000000000002040810204A
:103AC00040201008040200000000003C4242462052
:103AD00010101000181800000000001C225A555544
:103AE0005555553A423C00000000000808181414CF
:103AF000243C224242E700000000001F2222221E36
:103B000022424242221F00000000007C424201018A
:103B100001010142221C00000000001F224242421B
:103B200042424242221F00000000003F4212121E89
:103B300012120242423F00000000003F4212121ED9
:103B400012120202020700000000003C22220101C2
:103B500001712122221C0000000000E74242424283
:103B60007E42424242E700000000003E080808088A
:103B700008080808083E00000000007C1010101023
:103B8000101010101010110F0000007722120A0EF2
:103B90000A1212222277000000000007020202022D
:103BA00002020202427F00000000007736363636FD
:103BB000362A2A2A2A6B0000000000E346464A4AB9
:103BC00052525262624700000000001C22414141F3
:103BD00041414141221C00000000003F424242425C
:103BE0003E020202020700000000001C2241414187
:103BF0004141414D321C60000000003F4242423EC4
:103C00001212222242C700000000007C424202043D
:103C100018204042423E00000000007F490808088A
:103C200008080808081C0000000000E74242424261
:103C300042424242423C0000000000E7424222244D
:103C400024141418080800000000006B2A2A2A2AED
:103C50002A36141414140000000000E7422424182B
:103C60001818242442E700000000007722221414D0
:103C700008080808081C00000000007E2120101021
:103C800008040442423F00000078080808080808B9
:103C9000080808080808780000000204040408085E
:103CA0000810102020204040001E1010101010108E
:103CB0001010101010101E0000182400000000004A
:103CC00000000000000000000000000000000000F4
:103CD00000000000000000FF0006080000000000D7
:103CE0000000000000000000000000000000001CB8
:103CF00022302C22326C0000000000000302021A65
:103D000026424242261A000000000000000000384F
:103D10004402020244380000000000006040407C81
:103D20004242424262DC0000000000000000003C11
:103D300042427E02423C0000000000003048083E43
:103D400008080808083E0000000000000000007C91
:103D500022221C023C42423C000000000302023AC4
:103D60004642424242E700000000000C0C00000EF8
:103D700008080808083E0000000000303000003845
:103D8000202020202020221E0000000003020272BA
:103D9000120A0E1222770000000000080E08080820
:103DA00008080808083E0000000000000000007F2E
:103DB0009292929292B70000000000000000003B37
:103DC0004642424242E70000000000000000003C82
:103DD00042424242423C0000000000000000001B42
:103DE00026424242261A0207000000000000005846
:103DF00064424242645840E0000000000000007746
:103E00004C040404041F0000000000000000007CBB
:103E100042023C40423E0000000000000008083E14
:103E20000808080848300000000000000000006397
:103E30004242424262DC00000000000000000077C5
:103E4000222214140808000000000000000000DB1B
:103E500091525A2A24240000000000000000006E45
:103E6000241818182476000000000000000000E765
:103E70004224241818080806000000000000007EF4
:103E800022100808447E000000C0202020202020AE
:103E9000102020202020C000101010101010101032
:103EA0001010101010101010000304040404040477
:103EB000080404040404030000182424180000006B
:103EC0000000000000000000CEA2B2A8D4B4CBF8DD
:103ED000CFE0BBB7C6B5C2CAB9A6B3FDB1B6B6A8E6
:103EE000D7B4CCACCAE4B3F6D6B5CBB2CAB1CFE046
:103EF000CEBBB2D0B2EEB7B6CEA7B5F7D6C6C6F730
:103F0000C6ABD6C3B5E7D1B9BFAAB9D8B4F3D6D03A
:103F1000D0A1C8F5D0C4B7F9B6C8C9CFCFC2CFDEDB
:103F2000B2CECAFDD7B7D7D9B2B6BBF1B9FDB6C9C3
:103F3000000000008810A812A412A20AE97B08243D
:103F40000428F62B0528E4292429241524132429E0
:103F500014280C44000404040804C87F414442248B
:103F60005204D03F482148114712440A4404240A0D
:103F7000241190600000E47F28042802A13FA220C1
:103F8000A23FA820A83FA424270424159424544425
:103F90000C050002080488243C2504150204BD3FDA
:103FA00088208824BF24882488248824280A18117B
:103FB000882040401000103F102110217F21103F29
:103FC000182138215421543F122111211021102190
:103FD000103F102100000000BF7F080808080804F7
:103FE00008043E1608258844484408043804070499
:103FF000020400040800887F0A043A028A3F8A20EB
:10400000FF2480248824AA24AA24AA22210A101189
:104010008C20434040008000FE3F40002222F411EB
:1040200088084412F22700048000FF7F800080008F
:10403000800080000002000200027F02883F082208
:104040000822082208220821082178218F208220B6
:104050004014200800021E0212058A084A10A66FAA
:104060000A021202F23F1202560A4A1222221222B7
:104070008202020110011002D03F080048108C108B
:104080008C08EA7F09000800C83F482048204820E3
:10409000C83F482040008000FE7F02400120000011
:1040A000FC1F800080008800881F88008800940022
:1040B000E27F010010021012102212221402F47F7B
:1040C0001002100218021405130510099008901030
:1040D0005020304080008000FE3F800040012002E0
:1040E00050048C18036080001011122112481248ED
:1040F000E10F00000402040584085F10A46F0200B1
:10410000CA23492A5F2AC82B582A4F2ACA2B482279
:10411000482A481380008000841084108410841082
:10412000FC1F80108000800082208220822082205C
:10413000FE3F002010021002F03F08020802CC1FD0
:104140004C10CA1F4910C81F4810C81F48104810FB
:10415000F87F0800003CE0030F2249248910EF7F1C
:10416000294059104F10C97D291159158F7C4910CC
:1041700020101010001000103E102210A27F2210FC
:1041800022103E1022112212221222103E10221062
:10419000001400081000103F102110217F21103F53
:1041A000182138215421543F1221112110211021AE
:1041B000103F10211001100210020800E83F0C000F
:1041C0000C104A10491088088808880888040804D8
:1041D000F87F0800000A00123F02043A84073C02FC
:1041E000227AE20726222912100C1044084A0451B0
:1041F000C260014010042002FE3F80008000FC1FCE
:1042000040004000FF7F20001000E81F0401020171
:104210000101F83F20022002FF7F20020800901FCA
:1042200092108410A410A01490088E4088408840FA
:10423000087F00000000FE3F82208220FA2F8220AB
:10424000F2278220FA2F82288228822A8224822042
:10425000FE3F02200000E23F24222422A02F202241
:104260002722E43F2420A42FA428B428AC2F242004
:1042700020281010202024202420FC252224202463
:10428000FF2720242024FC25242524256421A42084
:104290002028201000007C3E442244227C3E8004E2
:1042A0008008FF7F400130060C1803607C3E4422EA
:1042B00044227C3E08010802E83F24202420E63FF7
:1042C00026002500E43F64255425D43F5425542579
:1042D0004C254430FE3F2222FE3F8000FE3F8000FE
:1042E000F80F0808F80F0808F80F0808F80F080872
:1042F000FF7F0000800080008000FC1F841084107D
:104300008410FC1F841084108410FC1F8450804093
:104310008040007F0000FC7F0400040104010401D0
:104320000401F43F04010401040904110411020111
:10433000FA7F01000000FE3F100410041004100476
:104340001004FF7F10041004100410040804080473
:10435000040402040808100810040000FC1F800078
:1043600080008000FF7F8000400140012002100497
:104370000C18036080008000800080008000FF7FB8
:104380008000800040014001200220021004080843
:10439000041003608000800080008000FC1F8410F7
:1043A0008410841084108410FC1F8410800080000E
:1043B00080008000800080008000800080008808ED
:1043C00088108820842084408240814080008000C2
:1043D000A000400000007E3F402040207E3F0201C0
:1043E00002017E3F442248246030582C462340205E
:1043F0002814100800004000800000010001200087
:104400002010242024202440224022482108200873
:10441000C00F00000800887F08003E1F2A112A11E3
:104420002A1F2A00AA3FAA24AA24BA3F8824882443
:10443000883F882080000001FC7F44044404FC3F46
:1044400044044404C4070400F40F24084204820313
:10445000610C1C70400040004000400040004000E3
:10446000C01F4000400040004000400040004000AD
:10447000FF7F00000000FF7F400040004000400040
:1044800040024004400840104010400040004000FE
:10449000400040000000DE1F52104A10CA1F4610A4
:1044A0004A10D21F52225212560C4A04420842119C
:1044B000C2604200400020021004F80F4000FE3F9E
:1044C00010040809C4103362800160081804000356
:1044D000E0001E00100492045404107CFF225422B9
:1044E0009222112508147F14440842082614181437
:1044F0002C2243410402C83F48204020C03F4F00C7
:104500004800C87F48404840C87F48401400E27FC8
:10451000000000001E04D27F524032209E1F08007F
:104520000800CA7F3A048A148A245A4427440005A2
:10453000000200000822E87F08023F02C83F48222C
:104540006822D83F4C224B22C83F482248224A2AA0
:10455000441000001004FF7F10042202140A081205
:104560001402F27F190214051205910890084A10EE
:104570002460000004080808E87F000800084F08CD
:104580008808880808080808080A08041400E27F58
:10459000000000000404E87F28112111E27F2211AD
:1045A000281F2800A43F27212411240A1404141BC7
:1045B000C86000000000000000000000E0001001E2
:1045C00010011001F803FC071C071C07FC07F80387
:1045D00000000000000000000000E00010011001D9
:1045E00000010001F803FC071C071C07FC07F80387
:1045F000000000000000000000000000000020009B
:104600007000D8008C01040106030202FF07FF07B7
:104610000000000000000000000000000000FF0794
:10462000FF070202060304018C01D800700020007D
:10463000000000000000000000000C003C00EC0046
:104640008C010C030C060C038C01EC003C000C00EC
:104650000000000000000000000000068007E006E7
:10466000300618060C0618063006E006800700061D
:1046700000000000000000008000C001A0028000D7
:10468000FE0780008E00920092008E000200020061
:1046900002000000000000008000C001A0028000B5
:1046A000FE0780009E00820082008E000200020051
:1046B00002000000000000008000C001A002800095
:1046C000FE078000920092009200920012000C00FF
:1046D0000000000000000000000000000E0092003A
:1046E000920092008E008000FE078000A002C001B0
:1046F000800000000000360E4901490649084907BC
:104700000000800040003800AF0F380000000000BB
:104710000000000000002702290227022102E10E0A
:104720000000800040003800AF0F3800000000009B
:104730000000000000000000000000000000000079
:104740000000000000001E022203A2021E0202025C
:1047500002028207000000000000000000000000CC
:104760000000000000001E03A20422041E02020139
:10477000820082076700920092006200000010032E
:10478000900450084E09800458032400520E420140
:1047900024011801EE0EA20AEE0E6206AE0A100304
:1047A000900450084E09800458032400520E420120
:1047B000240118017E8181817E000082FF8000003B
:1047C000C6A191898600428189897600102C22FF3A
:1047D000A0004F89898971007E89898B700003014F
:1047E000F90701007689898976000ED191917E00C2
:1047F00008087F0808000808080808000080000072
:104800000000011FE038070181FF8989760081815E
:10481000FF81810080F8273CE080C6898991630090
:104820000000000000000000000000000000000088
:1048300000000000000000FFFF000000000000007A
:104840000000000000003FFE3FFC000000000000F0
:10485000000000000003F800001FC000000000007E
:1048600000000000001F00000000F8000000000031
:10487000000000000078000000001E0000000000A2
:104880000000000003C00000000003C000000000A2
:10489000000000000F000700038000F0000000008F
:1048A000000000003C0003100300001C000000009A
:1048B00000000000F00001B80038000F0000000008
:1048C00000000001C0001EC00500000380000000C1
:1048D000000000070000188006F80000E00000005B
:1048E0000000000C00001300020000003000000077
:1048F00000000038030001803E7000001C00000032
:104900000000007027800300024000400E000000FD
:10491000000000C0620001E00480007C0300000091
:1049200000000180648003E004180078018000002A
:104930000000030031800C00001803E000C00000FC
:104940000000060068080000000003F0007000008E
:1049500000001C00397800000000178000380000BB
:10496000000038003938000000000EC0001C0000B4
:10497000000030003500000FF00000C0000C000007
:1049800000006000710003FFFFC00040000600004F
:104990000000C00052003F0000FC00600003000067
:1049A000000180800000F000000F00700001800016
:1049B00000030100000780000001E0380000C00093
:1049C00000060E00000E00000000700004306000C1
:1049D00000061C800038000000001C00077060000A
:1049E000000C058000E000000000070003F030002C
:1049F00000180998018000000000018023E01800E1
:104A000000100AD803000000000000C01FB008001A
:104A1000003013C00E0000000000007001100C00F8
:104A2000006001E01800000000000018010006000E
:104A300000600030300000000000000C01000600A3
:104A400000C00000600000000000000603800300BA
:104A500000C00000C000000000000003038003004D
:104A6000018000818000000000000401818001803D
:104A7000018000010000002000001C0080800180F7
:104A8000030000030000006000007800C00000C0C8
:104A900003010006000000600001F018600000C083
:104AA000020D000C000000600007F04030000040E4
:104AB000060F180800000060001FE100100390605E
:104AC0000401901800000FFE00FFC42018014820C8
:104AD0000C00F01000000FFF83FFD0000800B03082
:104AE0000C0C0030000000F00FFF80000C057E3041
:104AF000081E0060000006603FFF00800610BA102C
:104B0000181F806000007860FFFF00000613C518C2
:104B10001807C0400003E063FFFE0000023F5F98FB
:104B20001006C0C0001FC06FFFFC02000301108808
:104B300010004080007F807FFFFC04000100180807
:104B40003000418000FF00FFFFF800000180080CEA
:104B50003000618003FF03FFFFF808000180000CB4
:104B60003000010007FE0FFFFFF016000080000C70
:104B7000200001000FFC3FFFFFE007000080000461
:104B8000200003001FFC03FFFFE02F8000C0000493
:104B9000200003003FF800FFFFC05FC000C000041A
:104BA000600002007FF8003FFF803FE00040000609
:104BB000600002007FF8081FFF80BFF00040000681
:104BC00060000200FFF00E1FFF017FF000400006B2
:104BD00060000200FFF0002FFE007FF000400006A2
:104BE00060000601FFF0000FFE027FF80060000683
:104BF00060000601FFF0000FFC047FF80060000673
:104C000060000601FFF0000FF8007FF8006000066A
:104C100040000601FFF0000FF8087FF80060000276
:104C200040000601FFF0001FF0107FF80060000256
:104C300060000600FFF0001FE0007FF80060000643
:104C400060000600FFF0001FE0207FF0006000061B
:104C5000600006000000001FC04000000060000669
:104C600060000200FFFFFFBFC03FFFF000400006F2
:104C700060000200FFFFFFBF807FFFF000400006E2
:104C800060000200FFFFFFBF017FFFF00040000651
:104C9000600002000000003F00000000004000062D
:104CA000200003000FFE007E0001FF0000C0000492
:104CB000200003000000007C0400000000C000048D
:104CC00020000100FFFFFF7E03FFFFF800800004CB
:104CD00030000100FFFFFEF807FFFFF80080000C26
:104CE00030000181FFFFFEF417FFFFFC0180000C84
:104CF00030000180000000F4000000000180000C82
:104D0000100000800001F1E0007800000100800840
:104D1000100000C000003DC041C00000030040087A
:104D200018010040000001C8000000000201E01866
:104D30001808006000000380000000000600001852
:104D400008018060000003810000000006000010E0
:104D50000C06003000000310000000000C000030C2
:104D60000C000010000002000000000008000030ED
:104D700004000018000006040000000018040020D1
:104D80000600000800000428000000001000006079
:104D90000200300C0000000000000000300A00405B
:104DA000030080060000081000000000600100C041
:104DB000030020030000006000000000C00000C0ED
:104DC0000180000100000000000000008000018060
:104DD000018000018000004000000001800001808F
:104DE00000C00000C00000800000000300000300BD
:104DF00000C000006000000000000006002003006A
:104E000000600400300000000000000C00100600EC
:104E100000600800180000000000001800000600F4
:104E2000003000000E00008C3200007000000C000A
:104E30000010000003000092010000C00400080000
:104E4000001800000180009261000180000018003D
:104E5000000C004000E0008E00000700040030005D
:104E6000000600100038008002001C0001006000F5
:104E700000060020000E0080850070000000600029
:104E800000030000000780000001E0008000C00077
:104E9000000180000000F000000F00000001800011
:104EA0000000C00000003F0000FC000160030000A3
:104EB00000006001000003FFFFC00000800600004A
:104EC000000030008000000FF0000020000C000007
:104ED000000038008000000000000000001C0000FE
:104EE00000001C000200000000000040003800002C
:104EF00000000E000100000000000008007000002B
:104F000000000300010000000000002000C00000BD
:104F1000000001800100000000004000018000004E
:104F2000000000C00004000000002000030000009A
:104F30000000007000040000000810000E000000D7
:104F40000000003800040000080800001C000000F9
:104F50000000000C0002000004000000300000000F
:104F6000000000070000000002000000E000000058
:104F700000000001C00000000800000380000000E5
:104F800000000000F00000000000000F0000000022
:104F9000000000003C0000000000003C0000000099
:104FA000000000000F000000000000F00000000002
:104FB0000000000003C00000000003C0000000006B
:104FC000000000000078000000001E00000000004B
:104FD00000000000001F00000000F80000000000BA
:104FE000000000000003F800001FC00000000000E7
:104FF0000000000000003FFE7FFC000000000000F9
:1050000000000000000000FFFF00000000000000A2
:105010000000000000000000000000000000000090
:105020000001000801000200001000004C500008C0
:1050300000000020B000000004010008FC5000083F
:10504000B0000020C8070000200100080000000098
:105050000000000000000000000000000000000050
:10506000E9060008410700089D07000855080008E8
:10507000AD080008610900087909000891090008D5
:105080009F090008AD090008BB090008C90900080C
:10509000D7090008E5090008910A0008F50A000888
:1050A0000000000000000000000000480000004870
:1050B0000014004800140048000000480080000070
:1050C00000000000000000000000000000000000E0
:1050D00000000000000000000000000000000000D0
:1050E0000000000000000000006CDC020000000076
:0C50F0000000000001020304060708098C
:04000005080000C12E
:00000001FF
