:020000040800F2
:1000000080080020A5010008B32C0008E91F0008A3
:1000100000000000000000000000000000000000E0
:10002000000000000000000000000000D5310008C2
:1000300000000000000000002D2D000859320008CB
:10004000D5010008D5010008D5010008D501000838
:10005000D5010008D5010008D5010008D501000828
:10006000D5010008D5010008D5010008D501000818
:10007000D5010008D5010008D5010008D501000808
:10008000D5010008D501000800000000D5010008D6
:10009000D5010008D9320008D5010008D5010008B3
:1000A000D5010008D5010008D5010008D5010008D8
:1000B000D501000800000000D50100080000000084
:1000C00000F002F800F03EF80CA030C80838241800
:1000D0002D18A246671EAB4654465D46AC4201D180
:1000E00000F030F87E460F3E0FCCB6460126334274
:1000F00000D0FB1AA246AB46334318476C540000AD
:100100008C540000103A02D378C878C1FAD852074C
:1001100001D330C830C101D504680C6070470000BD
:100120000023002400250026103A01D378C1FBD813
:10013000520700D330C100D50B6070471FB51FBDFB
:1001400010B510BD00F099F91146FFF7F7FF03F065
:1001500013FE00F0B1F903B4FFF7F2FF03BC00F0A7
:10016000B7F9000002B401008008081A020910184B
:10017000020A1018020C1018C0088200121852004F
:10018000891A04BC1170704740BA704730B400231C
:100190000024055B2B4414440139FADC180030BC00
:1001A000704700000F4880F308880F480168090E67
:1001B0000E4A914205D10E480E4901600E480F4982
:1001C00001600F4880470F480047FEE7FEE7FEE763
:1001D000FEE7FEE7FEE700000B480C490C4A0D4B1A
:1001E0007047000080080020040000001F0000008D
:1001F0001810024001000000000001400000000053
:100200005D320008C1000008800200208008002044
:100210008004002080040020FEB5054610460C46F0
:10022000184373D0AE468C460020AD1A01469C415F
:1002300067D36646002701243D46B61A9D4102D386
:1002400013463A462124654676462F04360C3E4333
:100250002D0CB61A9D4104D3150C1B042B4312041C
:100260001034654676462F06360A3E432D0AB61AE6
:100270009D4104D3150E1B022B4312020834654620
:1002800076462F0736093E432D09B61A9D4104D301
:10029000150F1B012B431201241D65467646AF073F
:1002A000B6083E43AD08B61A9D4104D3950F9B0096
:1002B0002B439200A41C65467646EF0776083E4322
:1002C0006D08B61A9D411AD392185B41641C16E062
:1002D0000018764665464941B71A9D410191009044
:1002E00009D36046B11A98418E4684460098019918
:1002F0000025401C6941DD0752082A435B08641E43
:10030000E6D57246634603B0F0BDFFE70020014624
:10031000C046C0462A462346F5E7002203098B4221
:100320002CD3030A8B4211D300239C464EE0034694
:100330000B433CD4002243088B4231D303098B4248
:100340001CD3030A8B4201D394463FE0C3098B427E
:1003500001D3CB01C01A524183098B4201D38B01D7
:10036000C01A524143098B4201D34B01C01A52417A
:1003700003098B4201D30B01C01A5241C3088B42BF
:1003800001D3CB00C01A524183088B4201D38B00AA
:10039000C01A524143088B4201D34B00C01A52414C
:1003A000411A00D201465241104670475DE0CA0F23
:1003B00000D04942031000D34042534000229C46E3
:1003C00003098B422DD3030A8B4212D3FC228901ED
:1003D00012BA030A8B420CD3890192118B4208D3C3
:1003E000890192118B4204D389013AD0921100E025
:1003F0008909C3098B4201D3CB01C01A5241830939
:100400008B4201D38B01C01A524143098B4201D365
:100410004B01C01A524103098B4201D30B01C01A90
:100420005241C3088B4201D3CB00C01A524183080A
:100430008B4201D38B00C01A5241D9D243088B4260
:1004400001D34B00C01A5241411A00D20146634603
:1004500052415B10104601D34042002B00D5494267
:10046000704763465B1000D3404201B50020C04690
:10047000C04602BD704770477047754600F024F8CB
:10048000AE46050069465346C008C000854618B010
:1004900020B5FFF7A1FE60BC00274908B64600263C
:1004A000C0C5C0C5C0C5C0C5C0C5C0C5C0C5C0C524
:1004B000403D49008D46704710B50446C046C046D1
:1004C0002046FFF748FE10BD00487047200200207C
:1004D00001491820ABBEFEE726000200704700006D
:1004E0004048408B40490880084600883F494843BF
:1004F00040013F4908603C4800883C4948430002AD
:100500003C490860052080033B4908603B483C4962
:1005100008603C4840693C4908433A4948610846FC
:10052000806949150843374988610920C006006879
:100530000F2108430921C90608600846C068000960
:100540000001C860314832490861324848614020A2
:10055000C8603148886008468068012108432C49FA
:1005600088600120400329494039C86000200861A3
:100570000720486129488862800529498860234806
:1005800040388068C905084320494039886000BF69
:100590001E4840388068C00FC0070028F8D12148A5
:1005A0001A494039C8600846806801210843174944
:1005B0004039886000BF154840388068C007C00FC8
:1005C0000028F8D0114840388068042108430F49BA
:1005D00040398860FF205F301349088000201349AC
:1005E00008707047A0F7FF1F8A000020E40C00008D
:1005F000980000208C00002090000020D6380000D9
:100600009400002000100240010006004024014038
:1006100000000240A0010020A0250000010002000F
:10062000002701400320000088000020A0000020D7
:10063000F8B51F480088FF215F31884200DAF8BD15
:1006400000201B490880042220211A48FFF79EFD44
:1006500019490860042220211648801CFFF796FDE6
:10066000154948600846416814480068FFF755FE80
:1006700013490880104840681249096848430746F2
:100680000D4800681049096802F06EFE05463A46BA
:100690000023FFF7C1FD04460C490988601A00B227
:1006A0000B49088001200B49087000BFC7E7000014
:1006B00088000020A0010020800000209800002079
:1006C0009E000020900000208C000020940000205C
:1006D0009C000020A000002002480088401C014926
:1006E000088070478800002010B50446204603F0BB
:1006F00031FB002804D1204603F035FB002818D038
:100700000E488078C007C00F002808D00B488078BA
:10071000FE2108400949887002F025FB07E00748E0
:100720008078012108430549887002F022FB02F01D
:100730000BFC012000F08CFE10BD00002001002009
:1007400070B505461448007A8407A40F284603F0C4
:1007500001FB002803D0032C01D2601CC4B2284640
:1007600003F001FB002803D0002C01D0601EC4B2AE
:10077000284603F0EFFA002804D1284603F0F3FAE4
:10078000002805D00448047202F0FCFC02F0BAFB19
:10079000012000F019FE70BDE000002070B5064693
:1007A000042002F063FB04462648007880002649B6
:1007B0000D58304603F0CEFA002804D060192349C2
:1007C000884200D86419304603F0CDFA002804D0DE
:1007D0001F482818A04200D8641B304603F0BAFA1C
:1007E000002804D1304603F0BEFA002808D0214684
:1007F000042002F059FB02F0C5FC02F083FB1BE071
:10080000012E0AD10F480078401CC0B20D49087073
:10081000072811D9022008700EE0022E0CD10948D9
:100820000078022803D807200649087004E005482C
:100830000078401E034908700248007800F012FD5D
:1008400070BD000007000020D43D000800A8610032
:10085000CC5B000010B50446204603F07BFA00286C
:1008600004D1204603F07FFA002818D00E484078C3
:10087000C007C00F002802D002F081FA0DE002F09C
:1008800035FC002809D002F093FC002805D006486A
:10089000C078002801D102F078FA02F055FB01205F
:1008A00000F002FE10BD00002001002070B50646D9
:1008B0000C2002F0DBFA0446254800788000254928
:1008C0000D58304603F046FA002804D0601922493A
:1008D000884200D86419304603F045FA002804D055
:1008E0001E482818A04200D8641B304603F032FA94
:1008F000002804D1304603F036FA002806D02146FD
:100900000C2002F0D1FA02F077FE1BE0012E0AD192
:100910000F480078401CC0B20D490870072811D953
:10092000012008700EE0022E0CD109480078012841
:1009300003D807200649087004E005480078401EE7
:10094000034908700248007801F046F970BD0000C4
:1009500008000020D43D0008A0252600409C00008F
:1009600010B504460023034A1021204602F0DAFDA8
:1009700010BD00000900002010B504460123034A01
:100980001221204602F0CEFD10BD00000A0000201A
:1009900070B505461648C479284603F0DBF90028EF
:1009A00007D0082C01D3002001E0601CC0B204462F
:1009B0000DE0284603F0D7F9002808D0082C01D80C
:1009C000002C01D1082001E0601EC0B20446284678
:1009D00003F0C0F9002804D1284603F0C4F9002828
:1009E00002D0204602F0B4FB012001F065F870BD92
:1009F0002001002010B504460021204602F0CCFC66
:100A000010BD10B504460121204602F0C5FC10BD02
:100A100010B504460221204602F0BEFC10BD10B500
:100A200004460321204602F0B7FC10BD10B5044671
:100A30000021204602F00CFD10BD10B50446012136
:100A4000204602F005FD10BD70B506462C2002F0D0
:100A500001FA044624480078800024490D583046A5
:100A600003F078F9002804D060192149884200D8A1
:100A70006419304603F077F9002802D0AC4200D365
:100A8000641B304603F066F9002804D1304603F0B9
:100A90006AF9002806D0A1B22C2002F0FBF902F07E
:100AA000ABFD1BE0012E0AD10F480078401CC0B2FC
:100AB0000D490870052811D9012008700EE0022E9A
:100AC0000CD109480078012803D805200649087090
:100AD00004E005480078401E034908700248007889
:100AE00001F0D8F870BD000011000020D43D0008CE
:100AF0005046000070B506462E2002F0ABF90446C1
:100B000025480078401C800024490D58304603F0E9
:100B100021F9002805D060197D210901884200D8FB
:100B20006419304603F01FF9002802D0AC4200D30C
:100B3000641B304603F00EF9002804D1304603F060
:100B400012F9002806D0A1B22E2002F0A3F902F07B
:100B500053FD1BE0012E0AD10F480078401CC0B2A3
:100B60000D490870032811D9012008700EE0022EEB
:100B70000CD109480078012803D8032006490870E1
:100B800004E005480078401E03490870002102482F
:100B9000007800F0EBFE70BD12000020D43D00088C
:100BA00070B50646302002F055F904462448007816
:100BB000800024490D58304603F0CCF8002804D0BA
:100BC00060192149884200D86419304603F0CBF8F7
:100BD000002802D0AC4200D3641B304603F0BAF8C0
:100BE000002804D1304603F0BEF8002806D0A1B298
:100BF000302002F04FF902F0FFFC1BE0012E0AD179
:100C00000F480078401CC0B20D490870032811D964
:100C1000012008700EE0022E0CD10948007801284E
:100C200003D803200649087004E005480078401EF8
:100C30000349087002480178002000F097FE70BD5B
:100C400013000020D43D0008E703000002201249F1
:100C500008700020114908701149087005201149D9
:100C600008700420104908700120104908701049CC
:100C7000087006200F49087048708870C8700320FB
:100C80000D49087048700D49087002200C49087021
:100C90000C49087070470000040000200500002087
:100CA00006000020070000200800002009000020A6
:100CB0000A0000200B0000200F000020110000207F
:100CC000120000201300002010B50D480088FF21FD
:100CD0002D31884212D900200949088002F034F9E8
:100CE00008480078002809D100F092FB00F0C8FC09
:100CF00000F062FA002801D100F0DEFE10BD000015
:100D0000140000200600002002480088401C014911
:100D1000088070471400002010B5C74800880821DB
:100D20000840002808D00320FFF7DEFCC2480088F6
:100D300008218843C0490880BF4800882021084016
:100D400000280CD0BD480078002802D10320FFF70E
:100D500081FDB948008820218843B7490880B648FA
:100D600000888021084000280DD0B4480078002871
:100D700006D000F0E9F900F0C9FB0020AF49087087
:100D80000020AD490880AC48008801214902084094
:100D900000280DD0A9480078002806D100F0D4F929
:100DA00000F050FD0120A54908700020A2490880EC
:100DB000A14800880121C9020840002810D09F489E
:100DC0000078002805D102F0B9F8002801D102F01E
:100DD00083F9994800880121C9028843964908800F
:100DE000954800881421084000283ED09348007898
:100DF00000281AD09048008804210840002806D016
:100E00008F48007880008F4A1158012088478A480F
:100E1000008810210840002821D0894800788000EF
:100E2000884A11580220884719E083480088042125
:100E30000840002806D0844800788000834A115872
:100E4000012088477C48008810210840002806D0EF
:100E50007D48007880007D4A1158022088477648F6
:100E60000088142188437449088073480088FF2152
:100E70004131084000285FD07048007800282AD00F
:100E80006D4800884021084000280BD06C4800784D
:100E9000002802D109206A49087069480078401E7C
:100EA0006749087064480088FF2101310840002824
:100EB00009D063480078401CC0B261490870092815
:100EC00001D1002008705E48007880005D4A11580A
:100ED0000020884729E05848008840210840002821
:100EE0000BD059480078002802D1082056490870D4
:100EF00055480078401E544908704F480088FF212B
:100F000001310840002809D04F480078401CC0B289
:100F10004D490870082801D1002008704A4800781F
:100F200080004A4A11580020884743480088FF2122
:100F300041318843404908803F48008801218902A7
:100F40000840002819D03D480078002807D03C48C8
:100F5000007880003B4A11580020884706E03A4854
:100F600000788000394A11580020884732480088AC
:100F7000012189028843304908802F480078C00742
:100F8000C00F002828D02D48007800280FD000F08E
:100F900013F9002801D0032000E00020044628486F
:100FA00000788000274A1158204688470EE000F05C
:100FB00003F9002801D0032000E000200446224865
:100FC00000788000214A1158204688471A48008836
:100FD000400840001849088017480088022108404E
:100FE000002828D01548007800280FD000F0E4F839
:100FF000002801D0042000E00020044610480078BA
:101000008000104A1158204688470EE000F0D4F8BE
:10101000002801D0042000E0002004460A4800789F
:1010200080000A4A11582046884703480088022158
:1010300088430149088010BD7A0000200600002086
:1010400005000020380000200400002018000020C7
:1010500070B50546002414E00F4801192846FFF733
:1010600081F805460C48005D0A2805D30A48005D52
:101070000A38094908556D1C002D01D1641C02E095
:10108000641C0A2CE8D300BF03E000200249085585
:10109000641C0A2CF9D370BDCC00002038B504467E
:1010A000002C0FD00D4805880D4800890B49088099
:1010B0000B4AD388518810880C3201F073F9074825
:1010C000058009E006480089054B00909A885988F8
:1010D0001888102301F072FD38BD00006000002068
:1010E000B8000020FFB581B006460F46154600F057
:1010F0002BF813490498C8801248008808810846D4
:1011000006804780002408E0295D0D480C30015519
:10111000285D002800D102E0641C072CF4D300BF36
:1011200000210748C174E004000C0549888018209C
:10113000C872FA2088720120FFF7B0FF05B0F0BD39
:10114000B80000206000002010B500200649887219
:101150000846C07A002802D00120FFF79FFF002038
:101160000149C87210BD0000B800002070B50446E7
:10117000104DED7A002D07D00E4D2D88A54203D1DC
:101180000C4D6D888D4200D070BD0A4DEB80002063
:1011900008E0165C074D0C352E54155C002D00D16F
:1011A00002E0401C0728F4D300BF0026014DEE7476
:1011B00000BFE9E7B80000200148C07A704700008E
:1011C000B800002008B5234801F086F922488023A2
:1011D0000122002100900D2001F0F0FC1E480123A7
:1011E0009222202100900E2001F0E8FC1B4B0A22E5
:1011F0001121002001F07AFB184B0B223321002033
:1012000001F074FB154B0C224B21002001F06EFB0A
:10121000124B0D227021002001F068FB104B0522BB
:101220000221002001F062FB0D4B0422242100204A
:1012300001F05CFB0A4B02224421012001F056FB25
:10124000074B03226921012001F050FB00F05EF9F9
:1012500008BD0000FFFF000018C6000051A60000F6
:1012600030840000F8B506466A25042001F0FEFD32
:1012700007463846FFF7ECFE0020C04316490880B9
:10128000002426E01548005D3030C2B2FF23D03381
:101290001021284601F062FA601C864207D10F48EF
:1012A000025DFF23D0331021284602F02DFA284694
:1012B000083885B2052C01D1281F85B2042C07D12E
:1012C000291F88B2FF23D0332E22102101F046FAC5
:1012D000641C072CD6D3F8BD60000020CC00002091
:1012E00008B52E482E49088000232EA219460E204C
:1012F00001F058F80020C0432949088000232BA2A0
:101300001946502001F04EF800232AA210210E2089
:1013100001F048F8002329A21021742001F042F8BE
:10132000274B0D220021822001F0B8F9244B0E2218
:101330000021882001F0B2F9214B0F2200218E20DC
:1013400001F0ACF91E4B10220021942001F0A6F907
:101350001B4B112200219A2001F0A0F9184B0D22FD
:1013600009219A2001F09AF916481123012200213F
:101370000090802001F022FC12480123202211213C
:101380000090802001F01AFC002000F061F800209D
:1013900000F01AF80020FFF765FF08BDFFC7000046
:1013A00060000020CEA2B2A8D4B40000B9A6C2CA80
:1013B00000000000C6B5C2CA3A00000047487A00E3
:1013C0005854000018C6000070B504460D48007A55
:1013D0008007800F410045180020C0430A4908805B
:1013E0000A4842191F230021702000F0DBFF002C67
:1013F00006D0064842191F2300217020FFF772FE15
:1014000070BD0000E000002060000020C03D00082A
:1014100010B50020C0430B4908800B488078800736
:10142000800F032807D105231B02002210219220E0
:1014300001F05CFA05E0054B01221021922001F039
:1014400055FA10BD600000202001002007FC0000BC
:1014500070B506460020C0430F4908800F488078C9
:10146000C007C00F002803D00DA43F256D0102E086
:101470000CA41F25ED022B4622460021402000F03F
:1014800091FF002E05D02B46224600214020FFF779
:1014900029FEFFF7BDFF70BD600000202001002085
:1014A000BFAA0000B9D8000070B506460020C043AE
:1014B0001249088012484078C007C00F002803D0A6
:1014C00010A43F256D0102E00FA41F25ED022B465D
:1014D00022462121402000F065FF002E06D02B4639
:1014E000224621214020FFF7FDFD05E02B46224644
:1014F00021214020FFF73AFE70BD0000600000206F
:1015000020010020BFAA0000B9D8000008B50020C3
:1015100045490870454820239222002100900E2062
:1015200001F04CFBFFF7DCFE40485F2392222121B3
:1015300000900E2001F042FB3D483E490880002308
:101540003DA221210E2000F02DFF0020C04339498B
:10155000088000233A2231214C2001F0FFF80023BB
:1015600037A231210E2000F01DFF002337A23121C8
:10157000902000F017FF002335A241210E2000F03B
:1015800011FF00232A2241212E2001F0E7F8002339
:101590002F2241215C2001F0E1F800234422412167
:1015A000842001F0DBF80023312241218B2001F05F
:1015B000D5F800233A224121912001F0CFF80023F1
:1015C00025A251210E2000F0EDFE002324A251217E
:1015D000522000F0E7FE244B24A261210E2000F0EF
:1015E000E1FE214B19A26121882000F0DBFE1E4B99
:1015F00020A270210E2000F0D5FE1B4B1FA27021EF
:101600007A2000F0CFFE0020FFF74EFF002000F010
:10161000E3FA0021084600F0BDFA002000F04CFA81
:1016200000F02EF808BD000000000020FFFF0000C1
:10163000FFC7000060000020CBF8CFE0BBB7000080
:10164000D6D0D0C4C6B5C2CA00000000487A000097
:10165000B1B6C6B500000000C6B5B2D000000000AB
:10166000CFE0B2D00000000058540000CAE4B3F646
:101670003A000000D6D8C6B5000000004D487A00F8
:10168000FEB56B48447801F059FC05460020FFF791
:101690000BFF482001F0D8FB06466648032332467C
:1016A000512100902E2002F029FA4C2001F0CCFBB1
:1016B000064660480021009133462E220191029097
:1016C0005121722002F074F902F032F802F096F81B
:1016D0002946204602F02EF9002D2AD05648102324
:1016E000482221210090522001F068FA012D06D1F4
:1016F000524B0E222121522001F0F8F818E0022D61
:1017000007D11F23DB020E222121522001F0EEF827
:101710000EE0032D06D14A4B0F222121522001F069
:10172000E5F805E0434B0F222121522001F0DEF8BD
:10173000FEBD41481023482221210090522001F093
:101740003DFA02202040002802D00520000200E0DF
:101750003A480346610801228A432121522001F0C0
:10176000C5F804202040002807D01F23DB020622F2
:1017700021215E2001F0BAF807E02F4810230C2247
:10178000212100905E2001F019FA08202040002855
:1017900007D01F23DB02072221216A2001F0A6F8CF
:1017A00007E0254810230C22212100906A2001F037
:1017B00005FA10202040002807D01F23DB02082252
:1017C0002121762001F092F807E01B4810230C221B
:1017D00021210090762001F0F1F9202020400028FE
:1017E00007D01F23DB0209222121822001F07EF88D
:1017F00007E0114810230C2221210090822001F0E3
:10180000DDF940202040002807D01F23DB020F22F3
:1018100021218E2001F06AF807E0074810230C22EE
:10182000212100908E2001F0C9F900BF80E700005F
:1018300020010020AACA0000FFFF000007FC0000F2
:101840001FF8000008B50120314908703148802395
:101850009222002100900E2001F0B0F90020C04338
:101860002D49088000232DA219460E2000F09AFD74
:1018700000232CA210210E2000F094FD00232BA2A7
:1018800020210E2000F08EFD00232AA230210E2000
:1018900000F088FD002329A240210E2000F082FDE7
:1018A000002329A250210E2000F07CFD002329A254
:1018B00060210E2000F076FD002328A270210E206A
:1018C00000F070FD002327A27021582000F06AFD6F
:1018D0000021084600F018F90021012000F014F959
:1018E0000021022000F010F90021032000F00CF983
:1018F0000021084600F020F90021012000F01CF929
:10190000002000F0C7F90021084600F02FF808BDBC
:1019100000000020FFFF000060000020D7B7D7D9EB
:1019200050000000D7B7D7D949000000B2B6BBF1CC
:1019300066000000B9FDB6C966000000CAE4B3F64F
:10194000C9CFCFDE00000000CAE4B3F6CFC2CFDEBD
:1019500000000000CFE0B2D0CFDE0000B7F9B6C87B
:1019600000000000C6B5B2D000000000FEB505467C
:101970000E462E2001F06EFA0290302001F06AFA35
:1019800001907D21C9000298FEF7C7FC3030C7B234
:10199000FF23D0333A4670212E2000F0DFFEFF23D4
:1019A000D0332E227021362000F0D8FE6421029818
:1019B000FEF7B3FC0A210090FEF7AFFC0F4630376C
:1019C000FF23D0333A4670213A2000F0C7FE0A21A7
:1019D0000298FEF7A2FC0A210090FEF79EFC0F463B
:1019E0003037FF23D0333A467021422000F0B6FE54
:1019F0000023562270214A2000F0B0FE012D0FD1A5
:101A00000A210298FEF789FC0A210090FEF785FC66
:101A10000F46FF23D0333A467021422001F074FE76
:101A2000022D0FD164210298FEF777FC0A21009065
:101A3000FEF773FC0F46FF23D0333A4670213A205D
:101A400001F062FE032D0CD17D21C9000298FEF742
:101A500064FCC7B2FF23D0333A4670212E2001F038
:101A600053FE0198FFF7F4FA032410E0611E114BB6
:101A7000595C3031CAB20321091BC900803188B2D8
:101A8000FF23D033702100F069FE601EC4B2002C29
:101A9000ECD1002E0CD0711E064B5A5C0321891B21
:101AA000C900803188B2FF23D033702101F02CFEB1
:101AB000FEBD0000CC00002070B505461048C4797A
:101AC000082C03D820463030C0B200E02D20064656
:101AD0000020C0430B490880FF23D0333246412108
:101AE000962000F03BFE002D08D0082C06D8FF23DE
:101AF000D03322464121962001F006FE70BD000041
:101B000020010020600000207CB504460D46A100A5
:101B10001431C8B201F0AAF90646FF21D031E8B26B
:101B2000019100900348015D07233246582002F0DE
:101B30001BF87CBDCC3D0008FEB504460E46002CCB
:101B400001D0282100E02421084601F07DF9054656
:101B5000002D01DA684200E028460746002C01D03B
:101B60002D2000E02B2002460948015DFF23D033E1
:101B7000582000F0F3FDFF21D031F0B20191009028
:101B80000348015D05233A46602001F0EDFFFEBDEC
:101B9000D03D00087CB504460D46102001F05AF9EE
:101BA0000646FF21D031E0B2052332460191009074
:101BB0004121362001F0D8FF122001F04BF90646F2
:101BC000FF21D031E8B20423324601910090412137
:101BD000622001F0C9FF7CBDFEB504460C2001F077
:101BE00045F907460A213846FEF797FB029026483A
:101BF00010233E2231210090522000F0DFFF002010
:101C0000C04322490880FF20D030002106230091E4
:101C1000019031215220029A01F0A6FFFF23D03318
:101C20002E223121822000F099FD0A213846FEF74C
:101C300074FB0E463036FF23D033324631218620E6
:101C400000F08CFD012C0CD10A213846FEF765FB13
:101C50000E46FF23D03332463121862001F054FD59
:101C600011E0022C0FD3072C0DD8A01EC0007A2142
:101C7000081A85B2A01E06490A5CFF23D033312121
:101C8000284601F041FDFEBDFFFF0000600000207E
:101C9000CC0000203EB504462C2001F0DBF80546C0
:101CA000FF21D031E0B200222B4600920291019038
:101CB00038226021582001F07BFE3EBD10B52C4833
:101CC000C07A002810D02A48807A00280CD19620AB
:101CD00027498872C97AC807C00FFFF7DFF924487F
:101CE000C07A401E2249C87222480078002836D0A7
:101CF00021480078002832D120480024045F0020C9
:101D0000C0431F490880002C08DA1E4B0B22092112
:101D1000842000F0C3FC604204B205E0194B0A22A3
:101D20000921842000F0BAFC2046FFF791F9154BF9
:101D30000C220921902000F0B1FC1348C278114B0D
:101D400009218A2000F0AAFC0F4882780D4B092156
:101D5000942000F0A3FC00200649087006E0054826
:101D60000078002802D000200249087010BD000051
:101D7000B8000020A0000020000000209C000020EF
:101D800060000020AACA0000CC0000200648C07AEB
:101D9000002808D00448807A002804D00248807ABD
:101DA000401E014988727047B80000204348C0694E
:101DB000022108434149C86108464069232149047A
:101DC00008433E4948613E4800680F2109028843A4
:101DD0003B49086008460068052149020843384924
:101DE00008600846006AFF210904884334490862F4
:101DF0000846006A1121090408433149086208466F
:101E0000C0680F21090288432D49C8600846C06890
:101E10000521090208432A49C8602A4800680C21A4
:101E20008843284908600520C8600920C00600686A
:101E30000321090488430921C90608600846C068CF
:101E4000214908400921C906C8600846C0681F49E1
:101E500008430921C906C86000201D49088088631D
:101E60001B49203108811B481949C862002088811C
:101E7000C8134862164820300088022108431449DC
:101E8000203108800846008812492039084010494E
:101E9000203108800E48008B0F4908430C49088305
:101EA000084600890221084309490881084600883C
:101EB00001210843064908807047000000100240D5
:101EC0000004004800140048FFFF3CFC00004101F2
:101ED00000040040FFFF00002121000030B53B4B13
:101EE0005B6A9AB23A4B1B889A4224D0384B1B88C3
:101EF0009A4210DD364B1B88D31A012B1BDD344B65
:101F00001B889B1C324C2380324B1B8801242343AB
:101F1000304C23800FE02E4B1B889B1A012B0ADDCF
:101F20002B4B1B889B1E2A4C23802A4B1B88022488
:101F30002343284C2380264B1B88274CA34203DCD9
:101F4000234B1B880F2B05DA0123DB03204C238056
:101F50001E4C6362002036E04300204CE15A8300AF
:101F60001F4CE3581B8A44001E4D2C5B2340002B62
:101F700015D14B1C99B2FF23F533994208D1440087
:101F8000E41C0123A340134C24882343114C2380D9
:101F9000114B0A33994212DDFF21F6310FE003297C
:101FA0000CDDFF23F533994208DA4400A41C012319
:101FB000A340084C24882343064C2380002143007F
:101FC000064CE152401C0528C6D330BD0004004039
:101FD000780000207A000020F0FF0000D6000020EA
:101FE000640000205C55000800BFFEE72B484069F4
:101FF000012189040843294948610846C069012133
:10200000490508432549C86125488088C0210843FF
:1020100023498880084680680F2109030843204926
:102020008860084600680F21090388431C4908603E
:102030000846C0680F21090388431949C86008464B
:102040000068052149030843154908600846C0682F
:102050000521090308431249C8600846006A0002C6
:10206000000A08620846006A1121090608430C4963
:1020700008620C4800680C4908400A490860084694
:1020800000688914884307490860084808610846C1
:1020900000680121084303490860704700100240AE
:1020A0000004004800540040FEE0CF000705210076
:1020B00010B533484068012189030843304948601E
:1020C0000846006840084000086000F077F82D4896
:1020D0008088C02108432B498880084600680F216A
:1020E0000903884327490860084600680521090359
:1020F000084324490860C0208861052001F0DAFA0D
:1021000000240EE0012080051E498861052001F0B1
:10211000D1FA40201B498861052001F0CBFA601CF0
:10212000C4B2092C05D21748008A80210840002833
:10213000E8D00120C00513498861052001F0BAFAF2
:10214000402010498861052001F0B4FA80200D4933
:102150008861052001F0AEFA0B48006901214905AC
:102160000843094908610846006901214905884377
:1021700005490861FFF73AFF00F020F810BD0000A4
:1021800000540040000400480010024070B50546AD
:1021900000F014F807484468074804400120400351
:1021A000281801218903084304430248446000F0D1
:1021B000ADF870BD00540040009800FC0148024991
:1021C000C8617047301F000000540040FFB581B067
:1021D000074615460026002D02D1002005B0F0BDAF
:1021E000FFF7ECFF274844682748044001204003DC
:1021F0003818012109044018044322484460022091
:1022000000F044F8002803D0FFF7D8FF0020E5E7EE
:102210001C4902988862402000F038F8002803D05A
:10222000FFF7CCFF0020D9E7164844681648044061
:10223000012040033818012189020843C9034018CE
:102240002904084304430F48446010E0042000F0D0
:102250001DF8002803D0FFF7B1FFF0B2BEE7094830
:10226000406AC1B204988155761C681EC5B2002D23
:10227000ECD100F04BF8002801D00020AEE7F0B21E
:10228000ACE7000000540040009800FC70B5054623
:10229000052676031AE01C488469172000022040B6
:1022A000002803D0FFF704FF012070BD102020405C
:1022B000002803D0FFF782FF0120F6E73046761EA4
:1022C000002803D1FFF7F4FE0120EEE70E488069F5
:1022D00028400028DFD00C488069172109020840F7
:1022E000002803D0FFF7E4FE0120DEE706488069FE
:1022F00010210840002804D010200349C8610120A3
:10230000D3E70020D1E700000054004010B52020A2
:10231000FFF7BCFF0446FFF751FF204610BD000049
:10232000FFB581B006460F46144600200090FFF727
:1023300045FF1A4845681A480540601C0004012101
:1023400049037118012252068918084305431348AE
:1023500045600120FFF79AFF002803D0FFF72EFF0A
:1023600005B0F0BD0D48876211E00120FFF78EFF38
:10237000002802D0FFF722FFF2E700990498405CA2
:10238000064988620098401C0090601EC4B2002C70
:10239000EBD1FFF7BBFF00BFE2E7000000540040B5
:1023A000009800FCFFB581B0064614462DE0FF27DB
:1023B00000250EE01748405D2178884207D1154975
:1023C000681C085C6178884201D16F1005E0A81C88
:1023D00085B21048405D0028ECD100BFFF2F0AD025
:1023E000FAB23046049B029900F020FA30461030D1
:1023F00086B2A41C09E022783046049B029900F0C2
:10240000ADF93046083086B2641C20780028CED161
:1024100005B0F0BDE44300082C484069012189045F
:1024200008432A4948610846C06989150843274975
:10243000C861274800680C21884325490860084680
:10244000006808210843224908600846006AF02114
:1024500088431F49086208468088022188431C4936
:1024600088800846808A0C210843194988822F20D9
:1024700018490881632017492039C8620020486341
:102480000846008B6021084312492039088311480F
:102490000088012108430F4908800E4820308088B9
:1024A000C91308430B49203188800A482038008826
:1024B000012108430749203908800846808A012104
:1024C0000843044920398882704700000010024008
:1024D000000400482020004070B504460025204636
:1024E000FDF752FE84B20021084600F079FA00F0B0
:1024F000DBFB10201149088108200921C9068861E9
:1025000000BF0AE000BF0E4800890321C90208404D
:102510008842F8D00A4884816D1C0520000385425A
:10252000F0D300BF06480089802108408028F9D0F8
:1025300010200921C906886170BD000020000048F4
:1025400000300140324880690121090308433049C5
:102550008861084640690321490408432C494861C1
:1025600001202C49088104200921C9068861102016
:102570008861082088612748203800680009000128
:10258000244920390860084600680521084321498C
:102590002039086008468068052108431D49203914
:1025A000886008468088052188431A492039888038
:1025B0000920C0060068184908400921C9060860BA
:1025C000084680681449C94308430921C906886040
:1025D00008460068114908430921C90608600846F1
:1025E0008088FC2188430921C90688800846006A42
:1025F0000003000B08620A480A490880072000020D
:1026000088800846008840210843064908807047B2
:1026100000100240200400480F00FFFF50A90000F6
:1026200004C300000030014010B5FFF78BFF01200C
:1026300001F016F80120164988611E2001F010F8FB
:10264000112000F019FB0A2001F00AF8362000F0F2
:1026500013FB602000F0F6FA3A2000F00DFB052095
:1026600000F0F0FA8023A0220021084600F00AFAC8
:10267000292000F001FB0748FFF72EFFFFF7CCFEF3
:10268000632000F0A3F90020C0430349088010BD77
:1026900000040048FFFF000060000020FFB583B089
:1026A00004460D461E46012001903046FDF76CFDA4
:1026B00086B228460830C3B2A01DC2B2E9B2E0B269
:1026C000009000F0DFF900F0EFFA10201F490881B8
:1026D00008200921C906886128E0002720E006219A
:1026E000059848431A494018C05D029000BF194838
:1026F00000890321C90208408842F8D00199029854
:102700000840002802D01348868105E0124800885E
:10271000FDF73AFD0F4988810298401002907F1C16
:10272000062FDCD301984006000E01900198002886
:10273000D3D100BF07480089802108408028F9D004
:1027400010200921C906886107B0F0BD20000048AB
:10275000F04C00080030014060000020F0B585B06A
:1027600004460D4616461F4630462038C6B2384647
:10277000FDF70AFD87B228461030C3B22046083064
:10278000C2B2E9B2E0B2009000F07CF900F08CFA3D
:1027900010202249088108200921C90688610020EB
:1027A00003902AE030011E4941180398085801900F
:1027B000002002901BE000BF1A4800890321C902D3
:1027C00008408842F8D00198C007C00F002802D006
:1027D0001448878105E014480088FDF7D5FC1149AD
:1027E00088810198400801900298401C029002984C
:1027F0002028E0D30398001D039003981028D1D31C
:1028000000BF08480089802108408028F9D01020A6
:102810000921C906886105B0F0BD0000200000480C
:10282000F43D00080030014060000020FFB583B097
:1028300004460D461E463046FDF7A6FC86B22846E5
:102840001030C3B220461030C2B2E9B2E0B20090FC
:1028500000F018F900F028FA10202049088108201B
:102860000921C9068861002728E0059840011C4914
:102870004018C0590190002002901BE000BF194889
:1028800000890321C90208408842F8D00198C00796
:10289000C00F002802D01348868105E01248008846
:1028A000FDF772FC0F498881019840080190029859
:1028B000401C029002982028E0D33F1D202FD4D343
:1028C00000BF08480089802108408028F9D01020E6
:1028D0000921C906886107B0F0BD0000200000484A
:1028E000504400080030014060000020FFB583B074
:1028F00004460D4617460698FDF746FC80B2069042
:10290000022F0DDA28460F30C3B220460C30C2B277
:10291000A81CC1B2E0B2009000F0B4F804260BE0AD
:1029200028461030C3B220460C30C2B2E9B2E0B241
:10293000009000F0A7F8002600F0B6F910201F491B
:10294000088108200921C906886128E078011C490E
:102950004018805B0190002002901CE000BF1948E5
:1029600000890321C90208408842F8D00198C007B5
:10297000C00F002803D013490698888105E012484B
:102980000088FDF701FC0F498881019840080190FB
:102990000298401C029002980C28DFD3B61C202E0F
:1029A000D4D300BF07480089802108408028F9D08F
:1029B00010200921C906886107B0F0BD2000004839
:1029C000F04A00080030014060000020632800DD6C
:1029D00063206321091A014A5163704700200040B7
:1029E00070B505460C46102024490881082008814E
:1029F0002A202349087300BF21480089802108400C
:102A00008028F9D008200921C90688612846FDF7E9
:102A1000BBFB1B4988819F20FDF7B6FB18498881C5
:102A200000BF17480089802108408028F9D008207D
:102A3000124908812B201249087300BF10480089F1
:102A4000802108408028F9D008200921C906886122
:102A50002046FDF799FB0A4988817F20FDF794FB0A
:102A60000749888100BF06480089802108408028E6
:102A7000F9D010200921C906886170BD20000048E6
:102A800000300140F8B507460C4615461E4610209A
:102A900024490881082008812A202349087300BF9F
:102AA00021480089802108408028F9D00820092188
:102AB000C90688613846FDF767FB1B498881681E97
:102AC000FDF762FB1849888100BF17480089802103
:102AD00008408028F9D00820124908812B2012498B
:102AE000087300BF10480089802108408028F9D071
:102AF00008200921C90688612046FDF745FB0A49DF
:102B00008881701EFDF740FB0749888100BF064899
:102B10000089802108408028F9D010200921C906A9
:102B20008861F8BD200000480030014070B5802366
:102B3000902200211020FFF7A5FF00F0B5F810202B
:102B40001A49088108200921C906886100241CE06F
:102B50001748065D002515E000BF164800890321CF
:102B6000C90208408842F8D080203040002803D0B5
:102B700011481049888103E00020C0430D49888135
:102B800076006D1C082DE7D3641C0120C00284422E
:102B9000DED300BF07480089802108408028F9D093
:102BA00010200921C906886170BD0000200000487E
:102BB0005C4D0008003001407C1F0000FEB504465B
:102BC0000D4616461F463046784301900898FDF79B
:102BD000DBFA80B20890E819C3B2A019C2B2E9B218
:102BE000E0B20090FFF74EFF00F05EF810201349AE
:102BF000088108200921C9068861002002900DE0A3
:102C000000BF0F4800890321C90208408842F8D05C
:102C10000B49089888810298401C029001990298FB
:102C20008842EDD300BF06480089802108408028F3
:102C3000F9D010200921C9068861FEBD2000004896
:102C40000030014010210A4A118108210922D206D0
:102C500091610849087300BF064909898022114023
:102C60008029F9D010210922D20691617047000015
:102C700020000048003001401021094A118108213C
:102C800011810849087300BF064909898022114053
:102C90008029F9D010210922D206916170470000E5
:102CA000200000480030014000B52C20FFF7E4FF71
:102CB00000BD704710B5002819DA1A4A03071B0F28
:102CC000083B9B089B00D2588307DC0EFF23A340E0
:102CD0009A438B071B0E8407E40EA3401A43114B43
:102CE0000407240F083CA408A4001A5118E00E4A57
:102CF00003231B02D21883089B00D2588307DC0EE3
:102D0000FF23A3409A438B071B0E8407E40EA340C6
:102D10001A43054B032424021B198408A4001A51EA
:102D200010BD00001CED00E000E100E0704770B550
:102D300005460C4600F030F8002800D170BD002395
:102D40001A4629464A20FFF7EBFA002C02D020B29F
:102D500000F086FC00F020F8F0E710B5FFF746F928
:102D600000F0F2F810BD10B50021C120FFF7DFFF21
:102D700010BD10B50121C020FFF7D9FF10BD10B55F
:102D80000121C820FFF7D3FF10BD10B50121C720D6
:102D9000FFF7CDFF10BD000038B5002413E06B46EF
:102DA000012246214A20FFF711FA012807D168467F
:102DB0000078C007C00F002801D1012038BDC8200D
:102DC00000F078FC641C02488442E8D30020F5E758
:102DD00088130000F8B504460D4617460020009001
:102DE0002AE0FFF7D9FF002800D11EE03B462A4623
:102DF00021464A20FFF794FA124803192A46214631
:102E00004A20FFF7E3F9A84200D00EE0002608E0D0
:102E1000B85DA1190B4A515C884200D005E0701CD6
:102E2000C6B2AE42F4DB0120F8BD022000F018FC6F
:102E30000098401CC0B2009000980328D1D3002015
:102E4000F2E700004001002010B50446204600F0E3
:102E50000DF810BD01460448405C034B4A1C9A5CC7
:102E60001202104370470000E000002001460848AD
:102E7000405C074B4A1C9A5C120210438A1C9A5C05
:102E800012041043CA1C9A5C1206104370470000DB
:102E9000E000002010B5034B19540B12014C421CEA
:102EA000A35410BDE000002010B5074B19540A04CC
:102EB000130E054C421CA3540A02130E821CA35489
:102EC0000B0EC21CA35410BDE000002010B50B482F
:102ED00000880B4988420FD300F036F8002808D04C
:102EE000064800880649884203D30621C320FFF71D
:102EF0001EFF00200149088010BD00007C0000205A
:102F00001027000001200149088070477C00002044
:102F10000848008800280CD006480088401C054955
:102F20000880084600880449884202D908460149B9
:102F3000088070477C0000201027000001480078BE
:102F4000704700007E000020FEB54A20FFF71EF902
:102F5000002807D102AB022200214A20FFF736F9F0
:102F600002280AD002205849087058484078410683
:102F7000490E564841700020FEBD6846007AA528DB
:102F800003D16846407A032804D003204E490870D4
:102F90000020F1E701AB012240214A20FFF716F99A
:102FA00001280FD14A4B602200214A20FFF70EF979
:102FB000602807D16B46012240214A20FFF706F91D
:102FC00001280AD002204049087040484078410654
:102FD000490E3E4841700020CEE7684601790078EE
:102FE000814206D13A4840300078694609788842E3
:102FF00001D00020C0E736480078A52803D1344826
:103000004078032804D003202F4908700020B3E73C
:103010002F48807869460978884201D1012000E074
:1030200000200646002E21D0002504240AE027486F
:103030004038005D2649095D884201D0012503E042
:10304000601CC4B2402CF2D300BF002D02D000207F
:1030500020490880002406E01D48005D1B494039D6
:103060000855601CC4B2602CF6D30AE0402406E088
:103070001748005D154940390855601CC4B2602CE2
:10308000F6D313484030807902210840002803D04D
:1030900004200D4908700DE00D4840304078802133
:1030A0000840002803D101200749087002E00020F1
:1030B00005490870002E05D003480078002801D18A
:1030C000012059E7002057E77E0000202001002062
:1030D000400100207C00002008B5FE2000906A46D8
:1030E00001214720FFF776FE08BD00001CB501ABAB
:1030F000012202214A20FFF769F8012801D00020AF
:103100001CBD124A3C210420FFF764FE002800D1B8
:10311000F6E70221C420FFF70AFE002800D1EFE7FE
:103120006B46012202214A20FFF750F8012801D006
:103130000020E5E768460079401CC1B26846007887
:10314000814201D10120DBE70020D9E7E400002023
:1031500070B504460A48C579082C01D9002070BD15
:103160000748C471C21D01214720FFF733FE002824
:1031700003D10348C5710020F1E70120EFE700000B
:103180002001002010B5094B052204214A20FFF739
:10319000C7F806483C308078C007C00F002802D02E
:1031A000FFF7E7FD01E0FFF7DEFD10BDE4000020C2
:1031B00010B500240AE0FFF7C7FE002801D0012067
:1031C00010BD022000F04CFA601CC4B23C2CF2D3BB
:1031D0000020F5E77047000011201D4908601D48D8
:1031E00040681C4948600846406848600846406896
:1031F0007F21C90388431749486008464068052174
:10320000C9040843134948600846006801210906BB
:1032100008431049086000BF0E48006801214906B4
:1032200008400028F8D00B48406880088000094911
:10323000486008464068022108430649486000BFCC
:10324000044840680C2108400828F9D17047000064
:1032500000200240001002407047000010B51B48DB
:103260000068012108431949086008464068184968
:103270000840164948600846006816490840134946
:103280000860084600680121890488430F490860E6
:10329000084640683F21090488430C4948600846B5
:1032A000C06A00090001C8620846006BFF21543162
:1032B0008843064908630846406B4008400048635D
:1032C00000208860FFF788FF10BD0000001002405A
:1032D0000CB8FF08FFFFF6FE10B50848008A084941
:1032E000084006490882FEF7F9FDFDF7F5F9FFF7FA
:1032F0000FFEFEF74BFDFDF707FD10BD004401403A
:10330000FEFF000010B514488069012149040843FC
:1033100011498861152001218140104A116000BFC8
:103320000221FFF7C7FC2F200D4908810D480C49E9
:103330002039C8620120888108460088012108439D
:103340000749203908800846808A0121084304493A
:103350002039888210BD00000010024000E100E02A
:1033600020440140E7030000F8B582B28BB2040CA0
:103370000D0C10465843002126465E43370C360498
:103380008019794116466E43370C3604801979410D
:1033900026466E438919F8BDF8B507460C46A000CD
:1033A0001430C0B200900098FFF760FD0546254834
:1033B000005D800024490E58384600F0CBFC002800
:1033C00004D0A8192149884200D8AD19384600F028
:1033D000CAFC002802D0B54200D3AD1B384600F02D
:1033E000B9FC002804D1384600F0BDFC002806D006
:1033F00029460098FFF758FD00F0FEF81BE0012F6A
:103400000AD11048005D401CC0B20E49085507287B
:1034100011D9012008550EE0022F0CD10948005D9A
:10342000012803D807200749085504E00548005D36
:10343000401E044908550348015D2046FEF764FB21
:10344000F8BD00000B000020D43D0008FFFF7F0006
:10345000FEB507460C46002C01D0282000E02420B1
:1034600001900198FFF7F0FC0090002C02D000982A
:10347000404200E0009805462748005D800027494B
:103480000E58384600F066FC002804D0A8192449DC
:10349000884200D8AD19384600F065FC002802D0FB
:1034A000B54200D3AD1B384600F054FC002804D1CF
:1034B000384600F058FC00280BD0002C01D06842A0
:1034C00000E0284601460198FFF7EEFC00F094F872
:1034D0001BE0012F0AD11048005D401CC0B20E490C
:1034E0000855052811D9012008550EE0022F0CD1EE
:1034F0000948005D012803D805200749085504E064
:103500000548005D401E044908550348015D2046FA
:10351000FEF712FBFEBD00000F000020D43D0008A6
:10352000E87A0100FFB583B014461D460498FFF702
:1035300091FC0646207880002C490F58002D01D0C0
:103540002B4800E02B480290002D01D0042000E021
:1035500005200190039800F0FDFB002804D0F1192C
:103560000298814200D8F619039800F0FCFB00286D
:1035700002D0BE4200D9F61B039800F0EBFB0028F6
:1035800004D1039800F0EFFB002806D0B1B20498F4
:10359000FFF780FC00F030F818E00398012809D10B
:1035A0002078401CC1B22170019881420EDD0120BB
:1035B00020700BE00398022808D12078012802D857
:1035C0000198207002E02078401E2070002D01D06C
:1035D000227800E000221146002D01D0002200E0F8
:1035E00022781046FEF7D6FA07B0F0BDD43D0008A9
:1035F0000F270000FFFF000010B5FFF777FD002840
:1036000009D0FFF7D5FD002805D00348C078002871
:1036100001D1FFF777FC10BD2001002010B50B4849
:10362000006904218843094908610949094800687B
:10363000FCF773FE40B208490870002008567D214F
:10364000C900484300B20549088010BD00E000E011
:1036500000127A00A40000205C0000205E00002020
:103660000146124A0023D35E0A465A43104B5A6160
:1036700000229A611A46126901231A430C4B1A61FF
:1036800000BF0B4A1069C207D20F002A04D00122E2
:1036900012040240002AF4D0054A1269520852006E
:1036A000034B1A6100229A61704700005E000020FF
:1036B00000E000E00146124A0023D3560A465A436E
:1036C000104B5A6100229A611A46126901231A436B
:1036D0000C4B1A6100BF0B4A1069C207D20F002AB7
:1036E00004D0012212040240002AF4D0054A1269D3
:1036F00052085200034B1A6100229A617047000081
:103700005C00002000E000E0F8B505460E461446D7
:103710001F4620463030C1B268460170002141701A
:103720003B466A4631462846FDF7DCFCF8BD000002
:10373000FEB55020FFF79AFB02907D21C900029848
:10374000FCF7EBFD06467D21C9000298FCF7E5FD7C
:103750000F462448864202D33624062507E0224835
:10376000864202D33E24052501E0462404251F4855
:1037700010234C22612100903620FFF71FFA002011
:10378000C0431B4908801B4800212B46324600914C
:1037900001906121204600F0E7F9164B2E226121AD
:1037A0006620FEF7DBFF3846FDF752FC12488078B2
:1037B0003030C2B20F4B61216A20FEF7CFFF0E48B6
:1037C00040783030C2B20B4B61217220FEF7C6FF49
:1037D000094800783030C2B2064B61217A20FEF7EA
:1037E000BDFFFEBDA086010010270000FFFF000006
:1037F00060000020AACA0000CC000020F0B587B00D
:103800005420FFF733FB06905820FFF72FFB0546A7
:1038100042490698FCF781FD059040490698FCF75F
:103820007CFD0491FFF78AFB03903D4840780290AD
:10383000EE0F0398002806D1802102980840002846
:1038400001D0012000E0002007460598FDF700FCAC
:1038500034488078002804D0324880783030C0B2B4
:1038600000E020200246304B70212E20FEF776FF2C
:103870002C488078002803D12A484078002804D0BA
:10388000284840783030C0B200E020200246264B65
:1038900070213620FEF762FF224800783030C2B235
:1038A000214B70213E20FEF759FF1F4B2E22702125
:1038B0004620FEF753FF0498FDF7CAFB062410E0EC
:1038C000601E1849085C3030C2B20620001BC000E0
:1038D0004A3080B2144B70210090FEF73FFF601E0B
:1038E000C4B2002CECD1002F02D11048019006E0A8
:1038F000002E02D00520000200E00D480190002FAC
:1039000001D0002E01D1012000E0002002467021EC
:103910009320019BFEF7EAFF07B0F0BD40420F0085
:1039200020010020CC000020AACA00003084000042
:1039300007FC0000F8B505460E4619480479092C25
:1039400001D8204600E00B200090164F002E03D136
:1039500080202840002802D10B20009015E0062C82
:1039600002D105273F0210E0072C01D0092C02D11B
:103970001F27FF0209E0042C01D0052C02D1FF27EC
:10398000D03702E0082C00D1074F0020C043074980
:1039900008803B4625219A20009AFEF77FFEF8BD5D
:1039A000200100203084000007FC0000600000209F
:1039B000FFB58BB0159D06A807A908AA0092019132
:1039C0000290032D02D3A81EC0B200E001200346DE
:1039D000012D01D1022004E0022D01D1012000E0DF
:1039E0000020024614990E9800F0FCF807460020CB
:1039F0000590049000240CE008A8005D2E2801D159
:103A0000042100E008210498081880B20490601C8A
:103A1000C4B2BC42F0DB0D990B9841180498081A07
:103A200086B203963348102300900BA807C8FFF70F
:103A3000C5F80020C04330490880039E002418E0E8
:103A400008A8005D2E2808D12E223046169B0C991E
:103A5000FEF784FE301D86B209E008A8025D3046FC
:103A6000169B0C99FEF77AFE3046083086B2601C31
:103A7000C4B2BC42E4DB002D01D10FB0F0BD012D7A
:103A800007D16846017F007E0818801CC0B20590EF
:103A900012E0022D07D16846017F007E0818401C05
:103AA000C0B2059008E06846017F007E0818401EFD
:103AB000E91E401AC0B20590039E00240AE008A83F
:103AC000005D2E2801D1042000E00820801986B274
:103AD000601CC4B205988442F1DB08A90598085C13
:103AE0003038C2B23046169B0C99FFF70DFE00BF6E
:103AF000C3E70000FFFF000060000020FFB583B0B7
:103B0000054614461E460C9F002C01DA604200E078
:103B10002046029012480090701CC20010232846D4
:103B20000499FFF74BF80020C0430E490880002C91
:103B300001DA2D2000E02B2002463B46284604995E
:103B4000FEF70CFE0020294608310197009088B24C
:103B50003346029A049900F007F807B0F0BD000060
:103B6000FFFF000060000020FFB581B0054616464B
:103B70001F46002000903046FDF76AFA3C462BE0D5
:103B8000601E1749085C002804D1012C02D00A9855
:103B9000A04201DB012000900098002805D0601EA3
:103BA0000F49085C3030C0B200E0202002462846B1
:103BB0000B9B0299FEF7D2FD0A98A04207D1601E26
:103BC00007490A5C28460B9B0299FFF79DFD284692
:103BD000083085B2601EC4B2002CD1D105B0F0BD52
:103BE000CC000020FFB585B00E9D0A2700240020E0
:103BF00001900598002807DA2D222146601CC4B2E6
:103C00006A540598464208E0059E0698002804D0AC
:103C10002B222046611CCCB22A544C48864201D348
:103C2000002006E07D20C000864201D3012000E094
:103C30000220049007990498884201DA07980490BA
:103C40000498002806D1642130463230FCF765FB29
:103C500002902AE0049801281DD10A21701DFCF76A
:103C60005CFB00900A210098FCF757FB02900A21A8
:103C70000098FCF752FB01910798002815D1029893
:103C8000642812D300200490642130463230FCF7BF
:103C900044FB029009E064213046FCF73EFB0290B1
:103CA00064213046FCF739FB01910298FDF7D0F909
:103CB00001E0781EC7B2012F04D9781E2449085CA0
:103CC0000028F6D00898B84200DD089F0F980470CD
:103CD0001098077003970DE00398401E1C49085C7C
:103CE0003030C2B22146601CC4B26A540398401EF0
:103CF000C0B2039003980028EED1049800281AD08F
:103D00002E222046611CCCB22A540498022809D1E4
:103D10000A210198FCF701FB3030C2B22046611C39
:103D2000CCB22A540A210198FCF7F7FA3031204628
:103D3000621CD4B229547E222046611CCCB22A5483
:103D400000202855204609B0F0BD000010270000D3
:103D5000CC0000200146032901D0052901D1012012
:103D600070470020FCE70146042901D0062901D153
:103D7000012070470020FCE7FFF750FCFEF754FCE1
:103D8000FCF7AEFBFEF7D2FE7D200001FFF768FCDA
:103D9000FEF70CF8FFF7B6FAFEF7DFFFFCF748FC7A
:103DA000FCF754FFFDF70EFA09E0FCF7B5FFFCF74E
:103DB0003FFCFDF783FFFFF789F8FCF785FFF4E789
:103DC000C8F500D0A100D6D000B4F3000010203018
:103DD0004050000000000000010000000A00000048
:103DE00064000000E803000010270000A086010026
:103DF00040420F0000000000000000000000000032
:103E0000000000000000000808080808080800007A
:103E100008080000004824241200000000000000F0
:103E2000000000000000004848487E2424247E242E
:103E3000242400000000103C5252121C30505052FA
:103E4000523C10100000000000008244281028445A
:103E5000820000000000000000181800FF00181881
:103E60000000000000060404020000000000000042
:103E70000000000000402010100808080808081082
:103E80001020400000020408081010101010100844
:103E9000080402000000000008086B1C1C6B0808E6
:103EA000000000000000000000101010FE101010B4
:103EB0000000000000000000000000000000000002
:103EC0000604040200000000000000007E00000064
:103ED00000000000000000000000000000000000E2
:103EE00006060000000040202020101008080804EA
:103EF00004020200000000182442424242424242B0
:103F000024180000000000101C10101010101010D9
:103F1000107C00000000003C424242402010080497
:103F2000427E00000000003C4242402018204042F7
:103F3000423C000000000020303028242422FE20D3
:103F400020F800000000007E0202021E22404042D3
:103F5000221C0000000000182402023A464242429D
:103F6000443800000000007E42202010100808089D
:103F7000080800000000003C42424224182442424B
:103F8000423C00000000001C22424242625C404071
:103F900024180000000000000000181800000000B5
:103FA00018180000000000000000000800000000D9
:103FB000000808080000004020100804020408104F
:103FC000204000000000000000007E00007E000095
:103FD000000000000000000204081020402010082B
:103FE000040200000000003C424246201010100075
:103FF000181800000000001C225A55555555553A16
:10400000423C00000000000808181414243C22421E
:1040100042E700000000001F2222221E22424242EC
:10402000221F00000000007C424201010101014208
:10403000221C00000000001F224242424242424233
:10404000221F00000000003F4212121E1212024204
:10405000423F00000000003F4212121E12120202F4
:10406000020700000000003C222201010171212210
:10407000221C0000000000E7424242427E424242CF
:1040800042E700000000003E080808080808080889
:10409000083E00000000007C1010101010101010DE
:1040A0001010110F0000007722120A0E0A121222BD
:1040B0002277000000000007020202020202020250
:1040C000427F00000000007736363636362A2A2A2C
:1040D0002A6B0000000000E346464A4A52525262F0
:1040E000624700000000001C224141414141414122
:1040F000221C00000000003F424242423E020202F7
:10410000020700000000001C224141414141414D95
:10411000321C60000000003F4242423E1212222246
:1041200042C700000000007C4242020418204042C6
:10413000423E00000000007F4908080808080808FF
:10414000081C0000000000E7424242424242424254
:10415000423C0000000000E74242222424141418CC
:10416000080800000000006B2A2A2A2A2A361414A4
:1041700014140000000000E7422424181818242416
:1041800042E7000000000077222214140808080803
:10419000081C00000000007E2120101008040442CA
:1041A000423F0000007808080808080808080808C6
:1041B0000808780000000204040408080810102011
:1041C00020204040001E1010101010101010101071
:1041D00010101E0000182400000000000000000065
:1041E00000000000000000000000000000000000CF
:1041F000000000FF000608000000000000000000B2
:1042000000000000000000000000001C22302C22F2
:10421000326C0000000000000302021A26424242F3
:10422000261A0000000000000000003844020202CC
:1042300044380000000000006040407C424242429E
:1042400062DC0000000000000000003C42427E02F0
:10425000423C0000000000003048083E0808080802
:10426000083E0000000000000000007C22221C022A
:104270003C42423C000000000302023A46424242F5
:1042800042E700000000000C0C00000E08080808BF
:10429000083E0000000000303000003820202020C0
:1042A0002020221E0000000003020272120A0E12D9
:1042B00022770000000000080E0808080808080817
:1042C000083E0000000000000000007F92929292E1
:1042D00092B70000000000000000003B464242424E
:1042E00042E70000000000000000003C4242424261
:1042F000423C0000000000000000001B2642424239
:10430000261A0207000000000000005864424242E2
:10431000645840E000000000000000774C040404F2
:10432000041F0000000000000000007C42023C402E
:10433000423E0000000000000008083E080808088F
:10434000483000000000000000000063424242428A
:1043500062DC00000000000000000077222214143C
:104360000808000000000000000000DB91525A2AFB
:1043700024240000000000000000006E241818181B
:104380002476000000000000000000E7422424180A
:1043900018080806000000000000007E221008082F
:1043A000447E000000C0202020202020102020205B
:1043B0002020C0001010101010101010101010103D
:1043C000101010100003040404040404080404047E
:1043D000040403000018242418000000000000005A
:1043E00000000000CEA2B2A8D4B4CBF8CFE0BBB797
:1043F000C6B5C2CAB9A6B3FDB1B6B6A8D7B4CCACDF
:10440000CAE4B3F6D6B5CBB2CAB1CFE0CEBBB2D018
:10441000B2EEB7B6CEA7B5F7D6C6C6F7C6ABD6C30B
:10442000B5E7D1B9BFAAB9D8B4F3D6D0D0A1C8F5F1
:10443000D0C4B7F9B6C8C9CFCFC2CFDEB2CECAFD9D
:10444000D7B7D7D9B2B6BBF1B9FDB6C9D6D8000037
:104450008810A812A412A20AE97B08240428F62BCB
:104460000528E429242924152413242914280C447C
:10447000000404040804C87F414442245204D03F8D
:10448000482148114712440A4404240A2411906028
:104490000000E47F28042802A13FA220A23FA82018
:1044A000A83FA42427042415942454440C05000296
:1044B000080488243C2504150204BD3F8820882474
:1044C000BF24882488248824280A18118820404082
:1044D0001000103F102110217F21103F182138219A
:1044E0005421543F1221112110211021103F10217D
:1044F00000000000BF7F08080808080408043E16F2
:1045000008258844484408043804070402040004C9
:104510000800887F0A043A028A3F8A20FF24802408
:104520008824AA24AA24AA22210A10118C204340FC
:1045300040008000FE3F40002222F411880844120F
:10454000F22700048000FF7F800080008000800050
:104550000002000200027F02883F0822082208228F
:1045600008220821082178218F2082204014200869
:1045700000021E0212058A084A10A66F0A021202E1
:10458000F23F1202560A4A1222221222820202012B
:1045900010011002D03F080048108C108C08EA7FF0
:1045A00009000800C83F482048204820C83F48204C
:1045B00040008000FE7F024001200000FC1F8000C0
:1045C00080008800881F880088009400E27F010036
:1045D00010021012102212221402F47F1002100294
:1045E000180214051305100990089010502030404F
:1045F00080008000FE3F80004001200250048C18A3
:10460000036080001011122112481248E10F0000CF
:104610000402040584085F10A46F0200CA23492A1B
:104620005F2AC82B582A4F2ACA2B4822482A4813E7
:10463000800080008410841084108410FC1F80107F
:10464000800080008220822082208220FE3F002085
:1046500010021002F03F08020802CC1F4C10CA1FC3
:104660004910C81F4810C81F48104810F87F08009C
:10467000003CE0030F2249248910EF7F29405910A4
:104680004F10C97D291159158F7C49102010101029
:10469000001000103E102210A27F221022103E10A7
:1046A00022112212221222103E10221000140008A1
:1046B0001000103F102110217F21103F18213821B8
:1046C0005421543F1221112110211021103F10219B
:1046D0001001100210020800E83F0C000C104A10F4
:1046E000491088088808880888040804F87F0800AA
:1046F000000A00123F02043A84073C02227AE207D1
:1047000026222912100C1044084A0451C2600140AC
:1047100010042002FE3F80008000FC1F400040008B
:10472000FF7F20001000E81F040102010101F83F93
:1047300020022002FF7F20020800901F92108410A8
:10474000A410A01490088E4088408840087F000084
:104750000000FE3F82208220FA2F8220F227822052
:10476000FA2F82288228822A82248220FE3F022079
:104770000000E23F24222422A02F20222722E43F0F
:104780002420A42FA428B428AC2F242020281010E3
:10479000202024202420FC2522242024FF2720243C
:1047A0002024FC25242524256421A4202028201051
:1047B00000007C3E442244227C3E80048008FF7F2F
:1047C000400130060C1803607C3E442244227C3EAB
:1047D00008010802E83F24202420E63F26002500A7
:1047E000E43F64255425D43F542554254C254430BA
:1047F000FE3F2222FE3F8000FE3F8000F80F0808A7
:10480000F80F0808F80F0808F80F0808FF7F0000E5
:10481000800080008000FC1F841084108410FC1F26
:10482000841084108410FC1F845080408040007FDE
:104830000000FC7F04000401040104010401F43FB2
:10484000040104010409041104110201FA7F0100AA
:104850000000FE3F10041004100410041004FF7F39
:1048600010041004100410040804080404040204D2
:104870000808100810040000FC1F80008000800061
:10488000FF7F800040014001200210040C180360EB
:1048900080008000800080008000FF7F800080001A
:1048A00040014001200220021004080804100360A7
:1048B0008000800080008000FC1F84108410841021
:1048C00084108410FC1F8410800080008000800011
:1048D0008000800080008000800088088810882088
:1048E000842084408240814080008000A0004000FD
:1048F00000007E3F402040207E3F020102017E3FBB
:10490000442248246030582C4623402028141008A4
:104910000000400080000001000120002010242041
:10492000242024402240224821082008C00F0000F3
:104930000800887F08003E1F2A112A112A1F2A001A
:10494000AA3FAA24AA24BA3F88248824883F882022
:1049500080000001FC7F44044404FC3F4404440400
:10496000C4070400F40F240842048203610C1C7085
:10497000400040004000400040004000C01F400098
:10498000400040004000400040004000FF7F000029
:104990000000FF7F40004000400040004002400413
:1049A00040084010401040004000400040004000DF
:1049B0000000DE1F52104A10CA1F46104A10D21FB4
:1049C00052225212560C4A0442084211C26042005E
:1049D000400020021004F80F4000FE3F10040809B8
:1049E000C41033628001600818040003E0001E0058
:1049F000100492045404107CFF22542292221125A8
:104A000008147F1444084208261418142C22434129
:104A10000402C83F48204020C03F4F004800C87FE4
:104A200048404840C87F48401400E27F0000000032
:104A30001E04D27F524032209E1F08000800CA7F09
:104A40003A048A148A245A442744000500020000CC
:104A50000822E87F08023F02C83F48226822D83F68
:104A60004C224B22C83F482248224A2A44100000C8
:104A70001004FF7F10042202140A08121402F27FAD
:104A8000190214051205910890084A1024600000CC
:104A900004080808E87F000800084F08880888080C
:104AA00008080808080A08041400E27F0000000053
:104AB0000404E87F28112111E27F2211281F280019
:104AC000A43F27212411240A1404141BC8600000E9
:104AD0000008001FFC008000FF7F8000F80F88089E
:104AE000F80F8808F80F8000FC1F8000FF7F00008F
:104AF0000000000000000000E000100110011001A3
:104B0000F803FC071C071C07FC07F8030000000063
:104B1000000000000000E000100110010001000191
:104B2000F803FC071C071C07FC07F8030000000043
:104B30000000000000000000000020007000D8000D
:104B40008C01040106030202FF07FF0700000000BA
:104B500000000000000000000000FF07FF07020245
:104B6000060304018C01D800700020000000000042
:104B70000000000000000C003C00EC008C010C0365
:104B80000C060C038C01EC003C000C000000000043
:104B900000000000000000068007E006300618064E
:104BA0000C0618063006E00680070006000000002C
:104BB000000000008000C001A0028000FE0780000D
:104BC0008E00920092008E0002000200020000009F
:104BD000000000008000C001A0028000FE078000ED
:104BE0009E00820082008E0002000200020000008F
:104BF000000000008000C001A0028000FE078000CD
:104C0000920092009200920012000C00000000003E
:104C100000000000000000000E00920092009200D0
:104C20008E008000FE078000A002C001800000000E
:104C30000000360E49014906490849070000800076
:104C400040003800AF0F38000000000000000000F6
:104C500000002702290227022102E10E0000800045
:104C600040003800AF0F38000000000000000000D6
:104C70000000000000000000000000000000000034
:104C800000001E022203A2021E020202020282078A
:104C90000000000000000000000000000000000014
:104CA00000001E03A20422041E02020182008207E9
:104CB0006700920092006200000010039004500808
:104CC0004E09800458032400520E420124011801A9
:104CD000EE0EA20AEE0E6206AE0A10039004500811
:104CE0004E09800458032400520E42012401180189
:104CF0007E8181817E000082FF800000C6A19189B3
:104D00008600428189897600102C22FFA0004F89FD
:104D1000898971007E89898B70000301F907010080
:104D20007689898976000ED191917E0008087F08E6
:104D30000800080808080800008000000000011FA3
:104D4000E038070181FF898976008181FF81810038
:104D500080F8273CE080C68989916300000000004C
:104D60000000000000000000000000000000000043
:104D7000000000FFFF000000000000000000000035
:104D800000003FFE3FFC00000000000000000000AB
:104D90000003F800001FC000000000000000000039
:104DA000001F00000000F8000000000000000000EC
:104DB0000078000000001E0000000000000000005D
:104DC00003C00000000003C000000000000000005D
:104DD0000F000700038000F000000000000000004A
:104DE0003C0003100300001C000000000000000055
:104DF000F00001B80038000F0000000000000001C2
:104E0000C0001EC005000003800000000000000775
:104E10000000188006F80000E00000000000000C10
:104E20000000130002000000300000000000003805
:104E3000030001803E7000001C00000000000070B4
:104E400027800300024000400E000000000000C068
:104E5000620001E00480007C03000000000001808B
:104E6000648003E004180078018000000000030063
:104E700031800C00001803E000C0000000000600B4
:104E800068080000000003F00070000000001C0033
:104E9000397800000000178000380000000038005A
:104EA0003938000000000EC0001C00000000300077
:104EB0003500000FF00000C0000C00000000600092
:104EC000710003FFFFC00040000600000000C000AA
:104ED00052003F0000FC00600003000000018080E1
:104EE0000000F000000F00700001800000030100CE
:104EF000000780000001E0380000C00000060E003E
:104F0000000E0000000070000430600000061C80ED
:104F10000038000000001C0007706000000C0580D5
:104F200000E000000000070003F0300000180998BE
:104F3000018000000000018023E0180000100AD862
:104F400003000000000000C01FB00800003013C0C4
:104F50000E0000000000007001100C00006001E075
:104F6000180000000000001801000600006000307A
:104F7000300000000000000C0100060000C000002E
:104F800060000000000000060380030000C0000075
:104F9000C0000000000000030380030001800081C6
:104FA0008000000000000401818001800180000178
:104FB0000000002000001C0080800180030000032E
:104FC0000000006000007800C00000C0030100067F
:104FD000000000600001F018600000C0020D000C2D
:104FE000000000600007F04030000040060F180885
:104FF00000000060001FE1001003906004019018A1
:1050000000000FFE00FFC420180148200C00F01023
:1050100000000FFF83FFD0000800B0300C0C003000
:10502000000000F00FFF80000C057E30081E0060BD
:10503000000006603FFF00800610BA10181F806055
:1050400000007860FFFF00000613C5181807C04075
:105050000003E063FFFE0000023F5F981006C0C03F
:10506000001FC06FFFFC0200030110881000408089
:10507000007F807FFFFC04000100180830004180A1
:1050800000FF00FFFFF800000180080C3000618085
:1050900003FF03FFFFF808000180000C300001004F
:1050A00007FE0FFFFFF016000080000C200001003B
:1050B0000FFC3FFFFFE0070000800004200003001A
:1050C0001FFC03FFFFE02F8000C00004200003004E
:1050D0003FF800FFFFC05FC000C000046000020096
:1050E0007FF8003FFF803FE00040000660000200C4
:1050F0007FF8081FFF80BFF000400006600002003C
:10510000FFF00E1FFF017FF000400006600002006C
:10511000FFF0002FFE007FF0004000066000060157
:10512000FFF0000FFE027FF800600006600006013D
:10513000FFF0000FFC047FF800600006600006012D
:10514000FFF0000FF8007FF8006000064000060145
:10515000FFF0000FF8087FF8006000024000060131
:10516000FFF0001FF0107FF80060000260000600F2
:10517000FFF0001FE0007FF80060000660000600FE
:10518000FFF0001FE0207FF00060000660000600D6
:105190000000001FC0400000006000066000020028
:1051A000FFFFFFBFC03FFFF00040000660000200AD
:1051B000FFFFFFBF807FFFF000400006600002009D
:1051C000FFFFFFBF017FFFF000400006600002000C
:1051D0000000003F00000000004000062000030027
:1051E0000FFE007E0001FF0000C00004200003004D
:1051F0000000007C0400000000C00004200001004A
:10520000FFFFFF7E03FFFFF8008000043000010075
:10521000FFFFFEF807FFFFF80080000C300001815F
:10522000FFFFFEF417FFFFFC0180000C300001803F
:10523000000000F4000000000180000C100000805D
:105240000001F1E00078000001008008100000C0BB
:1052500000003DC041C000000300400818010040AC
:10526000000001C8000000000201E01818080060FA
:1052700000000380000000000600001808018060A4
:105280000000038100000000060000100C06003042
:1052900000000310000000000C0000300C000010A3
:1052A00000000200000000000800003004000018A8
:1052B000000006040000000018040020060000089A
:1052C0000000042800000000100000600200300C04
:1052D0000000000000000000300A004003008006CB
:1052E0000000081000000000600100C0030020035F
:1052F0000000006000000000C00000C0018000014C
:10530000000000000000000080000180018000011A
:1053100080000040000000018000018000C000000B
:10532000C0000080000000030000030000C0000077
:105330006000000000000006002003000060040080
:10534000300000000000000C0010060000600800A3
:1053500018000000000000180000060000300000E7
:105360000E00008C3200007000000C0000100000E5
:1053700003000092010000C00400080000180000B3
:10538000018000926100018000001800000C0040C4
:1053900000E0008E0000070004003000000600104E
:1053A0000038008002001C000100600000060020A0
:1053B000000E008085007000000060000003000007
:1053C000000780000001E0008000C00000018000B4
:1053D0000000F000000F0000000180000000C0008D
:1053E00000003F0000FC00016003000000006001BD
:1053F000000003FFFFC00000800600000000300036
:105400008000000FF0000020000C000000003800B9
:105410008000000000000000001C000000001C00D4
:1054200002000000000000400038000000000E00F4
:1054300001000000000000080070000000000300F0
:10544000010000000000002000C0000000000180FA
:10545000010000000000400001800000000000C0CA
:1054600000040000000020000300000000000070A5
:1054700000040000000810000E00000000000038CA
:1054800000040000080800001C0000000000000CE0
:1054900000020000040000003000000000000007CF
:1054A0000000000002000000E00000000000000119
:1054B000C0000000080000038000000000000000A1
:1054C000F00000000000000F0000000000000000DD
:1054D0003C0000000000003C000000000000000054
:1054E0000F000000000000F00000000000000000BD
:1054F00003C00000000003C0000000000000000026
:105500000078000000001E00000000000000000005
:10551000001F00000000F800000000000000000074
:105520000003F800001FC0000000000000000000A1
:1055300000003FFE7FFC00000000000000000000B3
:10554000000000FFFF00000000000000000000005D
:105550000000000000000000000000000001000842
:105560000100020000100000885500080000002023
:10557000B80000000401000840560008B8000020F0
:10558000C807000020010008000000000000000023
:10559000000000000000000000000000000000000B
:1055A000E9060008410700089D07000855080008A3
:1055B000AD08000861090008790900089109000890
:1055C000F5090008030A0008110A00081F0A00086C
:1055D0002D0A00083B0A0008490A0008F50A0008DD
:1055E000A10B0008000000000000000000000048BF
:1055F0000000004800140048001400480000004863
:105600000080000000000200000000000000000018
:10561000000000000000000000000000000000008A
:10562000000000000000000000000000006CDC0230
:105630000000000000000000010203040607080942
:04000005080000C12E
:00000001FF
