:020000040800F2
:1000000008080020A5010008333300086527000810
:1000100000000000000000000000000000000000E0
:100020000000000000000000000000004D36000845
:100030000000000000000000F5330008D136000881
:10004000D5010008D5010008D5010008D501000838
:10005000D5010008D5010008D5010008D501000828
:10006000D5010008D5010008D5010008D501000818
:10007000D5010008D5010008D5010008D501000808
:10008000D5010008D501000800000000D5010008D6
:10009000D501000851370008D5010008D501000836
:1000A000D5010008D5010008D5010008D5010008D8
:1000B000D501000800000000D50100080000000084
:1000C00000F002F800F03EF80CA030C80838241800
:1000D0002D18A246671EAB4654465D46AC4201D180
:1000E00000F030F87E460F3E0FCCB6460126334274
:1000F00000D0FB1AA246AB4633431847544F0000CA
:10010000744F0000103A02D378C878C1FAD8520769
:1001100001D330C830C101D504680C6070470000BD
:100120000023002400250026103A01D378C1FBD813
:10013000520700D330C100D50B6070471FB51FBDFB
:1001400010B510BD00F0E9F91146FFF7F7FF03F015
:10015000FBFB00F001FA03B4FFF7F2FF03BC00F071
:1001600007FA000002B401008008081A02091018FA
:10017000020A1018020C1018C0088200121852004F
:10018000891A04BC1170704740BA704730B400231C
:100190000024055B2B4414440139FADC180030BC00
:1001A000704700000F4880F308880F480168090E67
:1001B0000E4A914205D10E480E4901600E480F4982
:1001C00001600F4880470F480047FEE7FEE7FEE763
:1001D000FEE7FEE7FEE700000B480C490C4A0D4B1A
:1001E0007047000008080020040000001F00000005
:1001F0001810024001000000000001400000000053
:10020000D5360008C10000080802002008080020B8
:1002100008040020080400204343514330B55C1813
:10022000010C130C0D4692B25D4380B251432C1960
:10023000054655430A0C09044D1962415843010C07
:1002400000044019514130BD70B500252C46AD1A4F
:100250009C4112DA00252C462D1A8C4102DA00F05E
:100260002BF870BD002440428C41214600F024F858
:10027000002440428C41214619E000252C462D1ACD
:100280008C410ADA002452429C41234600F014F8C3
:10029000002440428C41214670BD002452429C41C2
:1002A0004042234600248C41214600F005F80024FA
:1002B00052429C41234670BDFEB5054610460C4691
:1002C000184373D0AE468C460020AD1A01469C41BF
:1002D00067D36646002701243D46B61A9D4102D3E6
:1002E00013463A462124654676462F04360C3E4393
:1002F0002D0CB61A9D4104D3150C1B042B4312047C
:100300001034654676462F06360A3E432D0AB61A45
:100310009D4104D3150E1B022B431202083465467F
:1003200076462F0736093E432D09B61A9D4104D360
:10033000150F1B012B431201241D65467646AF079E
:10034000B6083E43AD08B61A9D4104D3950F9B00F5
:100350002B439200A41C65467646EF0776083E4381
:100360006D08B61A9D411AD392185B41641C16E0C1
:100370000018764665464941B71A9D4101910090A3
:1003800009D36046B11A98418E4684460098019977
:100390000025401C6941DD0752082A435B08641EA2
:1003A000E6D57246634603B0F0BDFFE70020014684
:1003B000C046C0462A462346F5E7002203098B4281
:1003C0002CD3030A8B4211D300239C464EE00346F4
:1003D0000B433CD4002243088B4231D303098B42A8
:1003E0001CD3030A8B4201D394463FE0C3098B42DE
:1003F00001D3CB01C01A524183098B4201D38B0137
:10040000C01A524143098B4201D34B01C01A5241D9
:1004100003098B4201D30B01C01A5241C3088B421E
:1004200001D3CB00C01A524183088B4201D38B0009
:10043000C01A524143088B4201D34B00C01A5241AB
:10044000411A00D201465241104670475DE0CA0F82
:1004500000D04942031000D34042534000229C4642
:1004600003098B422DD3030A8B4212D3FC2289014C
:1004700012BA030A8B420CD3890192118B4208D322
:10048000890192118B4204D389013AD0921100E084
:100490008909C3098B4201D3CB01C01A5241830998
:1004A0008B4201D38B01C01A524143098B4201D3C5
:1004B0004B01C01A524103098B4201D30B01C01AF0
:1004C0005241C3088B4201D3CB00C01A524183086A
:1004D0008B4201D38B00C01A5241D9D243088B42C0
:1004E00001D34B00C01A5241411A00D20146634663
:1004F00052415B10104601D34042002B00D54942C7
:10050000704763465B1000D3404201B50020C046EF
:10051000C04602BD704770477047754600F024F82A
:10052000AE46050069465346C008C000854618B06F
:1005300020B5FFF751FE60BC00274908B6460026EB
:10054000C0C5C0C5C0C5C0C5C0C5C0C5C0C5C0C583
:10055000403D49008D46704710B50446C046C04630
:100560002046FFF7F8FD10BD00487047A8010020A5
:1005700001491820ABBEFEE72600020070470000CC
:100580004048408B40490880084600883F4948431E
:1005900040013F4908603C4800883C49484300020C
:1005A0003C490860052080033B4908603B483C49C2
:1005B00008603C4840693C4908433A49486108465C
:1005C000806949150843374988610920C0060068D9
:1005D0000F2108430921C90608600846C0680009C0
:1005E0000001C86031483249086132484861402002
:1005F000C8603148886008468068012108432C495A
:1006000088600120400329494039C8600020086102
:100610000720486129488862800529498860234865
:1006200040388068C905084320494039886000BFC8
:100630001E4840388068C00FC0070028F8D1214804
:100640001A494039C86008468068012108431749A3
:100650004039886000BF154840388068C007C00F27
:100660000028F8D0114840388068042108430F4919
:1006700040398860FF205F3013490880002013490B
:1006800008707047A0F7FF1F9E000020E40C0000D8
:10069000AC000020A0000020A4000020D6380000FC
:1006A000A800002000100240010006004024014084
:1006B0000000024028010020A025000001000200E7
:1006C00000270140032000009C000020B40000200F
:1006D000F8B51F480088FF215F31884200DAF8BD75
:1006E00000201B490880042220211A48FFF74EFDF4
:1006F00019490860042220211648801CFFF746FD96
:10070000154948600846416814480068FFF755FEDF
:100710001349088010484068124909684843074651
:100720000D4800681049096803F072F805463A461A
:100730000023FFF7C1FD04460C490988601A00B286
:100740000B49088001200B49087000BFC7E7000073
:100750009C0000202801002094000020AC00002014
:10076000B2000020A4000020A0000020A80000206B
:10077000B0000020B400002002480088401C01495D
:10078000088070479C00002010B50446230003F049
:1007900057F807161718050607081C0000BF00BF0A
:1007A00000BF0B484078C007C00F002802D002F0FD
:1007B00067FE01E002F06EFE02F012FF00BF00BF14
:1007C00000BF012001F0BCF900E000BF00BF10BD78
:1007D000F400002070B505461948C0788407A40FBE
:1007E0002B0003F02DF807232425051406152900F6
:1007F00000BF032C01DA601CC4B21148C47002F0BF
:100800000FFF012001F058F902F0CEFE15E000BF05
:10081000002C01DD601EC4B20948C47002F000FF64
:10082000012001F049F902F0BFFE06E000BF00BF61
:10083000012001F041F900E000BF00BF70BD0000E1
:10084000F400002070B505462B0002F0F9FF075BAD
:100850003B4B051C061D600000BF2E4840682E491A
:10086000097889002D4A515844182D48844203D8EC
:100870002848446002F0D4FE2748007801F064F86C
:1008800002F092FE44E000BF234800788000234934
:100890000858244944181F484068A0420BD91D48F5
:1008A00040681D49097889001C4A5158401A194965
:1008B000486002F0B5FE1848007801F045F802F0F3
:1008C00073FE25E014480078401C13490870084660
:1008D0000078072801DD022008700F48007801F039
:1008E00033F815E00C480078401E0B4908700846A4
:1008F0000078022801DA072008700748007801F024
:1009000023F805E00448007801F01EF800E000BF7D
:1009100000BF70BDF4000020130000209C390008C7
:1009200000A86100CC5B000010B50446230002F073
:1009300087FF0718191A050607081E0000BF00BF29
:1009400000BF0C48807820210840202802D102F006
:10095000AEFD03E002F058FE02F0B6FD02F040FEEC
:1009600000BF00BF00BF012001F03CF900E000BF64
:1009700000BF10BDF400002070B50446230002F053
:100980005FFF07684657052206236E0000BF354803
:1009900000788000344908583449096845183448BB
:1009A000854208D831480560006802F0FFFC3149F3
:1009B000886002F029FE2B490978881E01F00AFDA3
:1009C00002F0F2FD4CE000BF264800788000264986
:1009D000085826490968884211D2224800788000C8
:1009E0002149085821490968081A20490860084621
:1009F000006802F0DBFC1F49886002F005FE19491F
:100A00000978881E01F0E6FC02F0CEFD28E01548CA
:100A10000078401C1349087008460078092801DD59
:100A2000032008700F490978881E01F0D3FC17E0F5
:100A30000C480078401E0B490870084600780328CF
:100A400001DA0920087007490978881E01F0C2FC04
:100A500006E004490978881E01F0BCFC00E000BFF4
:100A600000BF70BD140000209C3900080000002069
:100A700018C69A3BF400002070B505462B0002F022
:100A8000DFFE075C3A4B051D061E620000BF2F48C3
:100A900080892F49097889002E4A515844182E48D8
:100AA000844203D229498C8102F0AEFD00212848FE
:100AB000007801F0F5FB02F077FD45E000BF234828
:100AC0008089234909788900224A515888420AD9E5
:100AD0001E4880891E4909788900515A401A1B49CD
:100AE000888102F091FD00211948007801F0D8FBBF
:100AF00002F05AFD28E016480078401C144908709E
:100B000008460078042801DD012008700021104803
:100B1000007801F0C5FB17E00D480078401E0C4935
:100B2000087008460078002801D1042008700021D0
:100B30000748007801F0B4FB06E000210448007883
:100B400001F0AEFB00E000BF00BF70BDF40000206C
:100B5000150000209C3900081027000070B50546DC
:100B60002B0002F06DFE075C3A4B051D061E62006D
:100B700000BF2F48C0892F49097889002E4A515853
:100B800044182E48844203D22949CC8102F03CFD0E
:100B900028480178002001F083FB02F005FD45E0C4
:100BA00000BF2348C089234909788900224A515847
:100BB00088420AD91E48C0891E4909788900515ABD
:100BC000401A1B49C88102F01FFD1A480178002015
:100BD00001F066FB02F0E8FC28E016480078401CB3
:100BE0001449087008460078042801DD01200870C7
:100BF00010480178002001F053FB17E00D48007801
:100C0000401E0C49087008460078002801D10420D5
:100C1000087008480178002001F042FB06E0054812
:100C20000178002001F03CFB00E000BF00BF70BD78
:100C3000F4000020160000209C3900081027000056
:100C400070B50446230002F0FBFD077250610528D1
:100C50000629780000BF3A480078800039490858D2
:100C60003949096845187D20000185420DD836486C
:100C7000056001460968491EC8037D210901FFF787
:100C80009CFB3249088502F0BFFC2D490978481EBB
:100C900001F0B0FA02F088FC50E000BF284800786C
:100CA0008000284908580A3027490968884214D228
:100CB0002348007880002349085823490968081A06
:100CC000214908600968491EC8037D210901FFF711
:100CD00074FB1E49088502F097FC19490978481EE3
:100CE00001F088FA02F060FC28E015480078401C0A
:100CF0001349087008460078042801DD02200870B6
:100D00000F490978481E01F075FA17E00C48007881
:100D1000401E0B49087008460078022801DA0420BA
:100D2000087007490978481E01F064FA06E0044992
:100D30000978481E01F05EFA00E000BF00BF70BDF8
:100D4000170000209C39000804000020F400002057
:100D500070B505462B0002F073FD075C3A4B051D8C
:100D6000061E620000BF2F48808C2F490978890039
:100D70002E4A515844182E48844203D229498C8463
:100D800002F042FC00212848007801F06DFA02F0E0
:100D90000BFC45E000BF2348808C2349097889007B
:100DA000224A515888420AD91E48808C1E49097827
:100DB0008900515A401A1B49888402F025FC002101
:100DC0001948007801F050FA02F0EEFB28E01648CE
:100DD0000078401C1449087008460078042801DD9A
:100DE0000120087000211048007801F03DFA17E05A
:100DF0000D480078401E0C4908700846007800280D
:100E000001D10420087000210748007801F02CFA75
:100E100006E000210448007801F026FA00E000BF57
:100E200000BF70BDF4000020180000209C390008AD
:100E30001027000070B505462B0002F001FD075C8D
:100E40003A4B051D061E620000BF2F48C08C2F497B
:100E5000097889002E4A515844182E48844203D2FA
:100E60002949CC8402F0D0FB28480178002001F009
:100E7000FBF902F099FB45E000BF2348C08C2349F1
:100E800009788900224A515888420AD91E48C08CE4
:100E90001E4909788900515A401A1B49C88402F03A
:100EA000B3FB1A480178002001F0DEF902F07CFB68
:100EB00028E016480078401C14490870084600785D
:100EC000042801DD0120087010480178002001F09D
:100ED000CBF917E00D480078401E0C490870084611
:100EE0000078002801D1042008700848017800200B
:100EF00001F0BAF906E005480178002001F0B4F9E4
:100F000000E000BF00BF70BDF40000201900002009
:100F10009C3900081027000070B506460D4614469F
:100F2000330002F08DFC0743313A051E061F4300D3
:100F300000BF0022207880001E4B1858296808182E
:100F400052410121001E8A4108D2217889001A46A7
:100F5000515828684018286002F056FB02F024FB24
:100F600025E000BF21788900124A5158286888423C
:100F700007D92178890051582868401A286002F062
:100F800043FB02F011FB12E02078401C2070207817
:100F9000092801DD0120207009E02078401E207022
:100FA0002078002801D10920207000E000BF00BF98
:100FB00070BD00009C39000810B50446064A074978
:100FC0002046FFF7A9FF00231A4619460248007879
:100FD00001F0CCF910BD00001A000020040100202F
:100FE00010B50446064A07492046FFF795FF00233F
:100FF0001A4603480178184601F0B8F910BD000000
:101000001B0000200801002010B50446064A0749CD
:101010002046FFF781FF002303480278194618464F
:1010200001F0A4F910BD00001C0000200C010020FC
:1010300010B50446064A07492046FFF76DFF0448ED
:10104000037800221146104601F090F910BD00000F
:101050001D00002010010020F8B505462B0002F00D
:10106000EFFB07785667052A062B7E0000BF3D4838
:10107000007880003C4908583C49096844183C48BD
:10108000844210DC3948046000680121090502F03F
:10109000A7FB0646374A0023FFF7D6F80446364931
:1010A0000C8402F0B1FA00212E48007801F0E8F932
:1010B00002F07AFA54E000BF2A48007880002A49FA
:1010C00008582A490968884219D2264800788000C1
:1010D0002549085825490968081A2449086008461E
:1010E00000680121090502F07BFB0646214A002326
:1010F000FFF7AAF8044620490C8402F085FA002183
:101100001848007801F0BCF902F04EFA28E01548C2
:101110000078401C1349087008460078052801DD56
:101120000220087000210F48007801F0A9F917E0AB
:101130000C480078401E0B490870084600780228C9
:1011400001DA0520087000210648007801F098F9BE
:1011500006E000210348007801F092F900E000BFAA
:1011600000BFF8BD1E0000209C39000808000020C8
:10117000E87A010008AF2F00F4000020F8B505461A
:101180002B0002F05DFB07795768053306347F00BA
:1011900000BF3E48007880003D4908583D49096835
:1011A0000C1A3D48844219DB3848007880003849E1
:1011B000085838490968081A36490860084600681E
:1011C0000121090502F00CFB0646344A0023FFF713
:1011D0003BF8044632494C8402F016FA2B48017859
:1011E000002001F04DF902F0DFF94CE000BF274884
:1011F0000078800026490858264909684418002CC0
:1012000010DA2448046000680121090502F0E8FAB8
:101210000646224A0023FFF717F8044620494C846B
:1012200002F0F2F919480178002001F029F902F0E2
:10123000BBF928E015480078401C1449087008469E
:101240000078052801DD0220087010480178002090
:1012500001F016F917E00D480078401E0B490870A0
:1012600008460078022801DA05200870074801784E
:10127000002001F005F906E004480178002001F0A3
:10128000FFF800E000BF00BFF8BD00001F00002015
:101290009C3900080C0000201885FEFF08AF2F00C5
:1012A000F400002070B53A49098D7D2212015143A6
:1012B0000846C917490C0918C913491C354A116059
:1012C0003349886802F086F8334908603048008C5A
:1012D000324902F09DFA0446012212050023FEF76E
:1012E000B3FF2F4908600A212D480068401DFFF711
:1012F0006EF82B4908602648408C00B2274902F05E
:101300006FFA0446012212050023FEF79DFF2549CE
:1013100008600968481F0A21FFF759F82149086049
:101320001F4800680A2148431D4908601D4800689D
:101330000A2148431B49086002201B49087000200D
:101340001A4908701A49087005201A4908700720C0
:1013500019490870012019490870194908700320BB
:1013600018490870012018490870032017490870AF
:10137000062017490870174908701749087017495F
:1013800008700420164908701649087070BD0000E6
:10139000F4000020040000200000002008AF2F000F
:1013A000080000200C000020100000201100002088
:1013B000120000201300002014000020150000205F
:1013C000160000201700002018000020190000203F
:1013D0001A0000201B0000201C0000201D0000201F
:1013E0001E0000201F00002010B50A480088FF21C1
:1013F0002D3188420CDD00200649088002F0F0F80B
:1014000000F07EFB04480078002801D100F0DEFCEB
:1014100010BD00007000002012000020024800886B
:10142000401C0149088070477000002010B5CC486E
:10143000008808210840002808D00320FFF7A4F9FD
:10144000C748008808218843C5490880C4480088E7
:101450002021084000280CD0C2480078002802D182
:101460000320FFF761FABE48008820218843BC4969
:101470000880BB48008880210840002815D0B94862
:10148000007800280ED000F0F3F900F0E1FB002016
:10149000B4490870B4480078032803DAB2480078E9
:1014A000B24908700020AE490880AD48008801218B
:1014B00049020840002815D0AA48007800280ED11B
:1014C00000F0D6F900F04EFD0120A6490870A748AB
:1014D0000078032803DAA5480078A34908700020A3
:1014E0009F4908809E4800881421084000283ED06B
:1014F0009C48007800281AD09948008804210840A8
:10150000002806D0984800788000994A1158012098
:1015100088479348008810210840002821D092482D
:1015200000788000924A11580220884719E08C48C0
:10153000008804210840002806D08C4800788000EC
:101540008C4A11580120884785480088102108409E
:10155000002806D0854800788000864A115802206D
:1015600088477F480088142188437D4908807C484B
:101570000088FF2141310840002861D07948007877
:1015800000282BD0764800884021084000280BD046
:1015900075480078002802D1092073490870724804
:1015A0000078401E704908706D480088FF210131A5
:1015B000084000280AD06C480078401C6A4908702E
:1015C00008460078092801D1002008706648007894
:1015D0008000674A1158002088472AE06048008848
:1015E0004021084000280BD060480078002802D134
:1015F0000A205E4908705D480078401E5B4908700B
:1016000057480088FF210131084000280AD0574878
:101610000078401C55490870084600780A2801D116
:1016200000200870514800788000524A115800206C
:1016300088474B480088FF2141318843484908804A
:1016400047480088012189020840002819D04548F0
:101650000078002807D0444800788000444A115898
:101660000020884706E0414800788000414A115830
:10167000002088473A480088012189028843384978
:10168000088037480078C007C00F002830D03548A0
:101690000078002813D000F0FDF8002807D0324869
:1016A00000788000324A1158032088471AE02E48FB
:1016B000007880002E4A11580020884712E000F080
:1016C000E9F8002807D0294800788000294A1158F5
:1016D0000320884706E0254800788000254A1158F5
:1016E000002088471E480088400840001C490880A8
:1016F0001B48008802210840002830D01948007893
:10170000002813D000F0C6F8002807D0164800784B
:101710008000174A1158042088471AE012480078C0
:101720008000134A11580020884712E000F0B2F8F8
:10173000002807D00D48007880000E4A1158042078
:10174000884706E00948007880000A4A11580020BE
:10175000884703480088022188430149088010BD5A
:101760008E00002012000020110000201000002038
:10177000480000202000002070B50546002414E039
:101780000F4801192846FEF7EDFC05460C48005DA0
:101790000A2805DB0A48005D0A38094908556D1C0E
:1017A000002D01D1641C02E0641C0A2CE8D300BFA8
:1017B00003E0002002490855641C0A2CF9D370BDCF
:1017C000E000002038B50446002C0FD00D480588F5
:1017D0000D4800890B4908800B4AD388518810882E
:1017E0000C3201F007F90748058009E00648008936
:1017F000054B00909A8859881888102301F01EFD27
:1018000038BD000076000020CC000020FFB581B07C
:1018100006460F46154600F02BF813490498C88079
:10182000124800880881084606804780002408E0A6
:10183000295D0D480C300155285D002800D102E0DB
:10184000641C072CF4D300BF00210748C174E004D6
:10185000000C054988801820C872FA20887201207F
:10186000FFF7B0FF05B0F0BDCC00002076000020EF
:1018700010B50020064988720846C07A002802D0B8
:101880000120FFF79FFF00200149C87210BD000032
:10189000CC0000200148C07A70470000CC00002036
:1018A00008B5254801F040F9244880230122002191
:1018B00000900D2001F0C2FC20480123922220213B
:1018C00000900E2001F0BAFC1D4B0A2211210020CD
:1018D00001F034FB1A4B0B223321002001F02EFBC8
:1018E000174B0C224B21002001F028FB144B0D223A
:1018F0007021002001F022FB124B05220221002062
:1019000001F01CFB0F4B04222421002001F016FBE8
:101910000C4B02224421012001F010FB094B032251
:101920006921012001F00AFB01F05AFE00F04EF897
:1019300000F08EF908BD0000FFFF000018C600008F
:1019400051A6000030840000F8B506466A25002044
:10195000C0431B4908801B494868FFF70DFF00245E
:101960002AE01949095D3031CAB2A8B2FF23D03349
:10197000102101F01BFA601C86420ED11248005D56
:101980003030C1B26846017000214170A8B2FF2317
:10199000D0336A461021FFF739FF083D052C00D1EE
:1019A0002D1F042C07D1291F88B2FF23D0332E22EC
:1019B000102101F0FBF9641C072CD2D3F8BD000004
:1019C00076000020F4000020E000002008B52F4839
:1019D0002F49088000232FA219460E2001F00AF893
:1019E0000020C0432A49088000232CA21946502019
:1019F00001F000F800232BA210210E2000F0FAFFC6
:101A000000232AA21021742000F0F4FF284B0D229D
:101A10000021822001F06AF9254B0E220021882046
:101A200001F064F9224B0F2200218E2001F05EF9B3
:101A30001F4B10220021942001F058F91C4B112259
:101A400000219A2001F052F9194B0D2209219A2008
:101A500001F04CF917481123012200210090802049
:101A600001F0ECFB1348012320221121009080207B
:101A700001F0E4FB002000F063F8002000F01CF807
:101A80000020FFF761FF00F02BFB08BDFFC700003F
:101A900076000020CEA2B2A8D4B40000B9A6C2CA73
:101AA00000000000C6B5C2CA3A00000047487A00EC
:101AB0005854000018C6000070B505460020C04309
:101AC0000C4908800C48C0788407A40F60002418D3
:101AD0000A4802191F230021702000F08BFF002DFF
:101AE00006D0064802191F2300217020FFF78EFE42
:101AF00070BD000076000020F4000020903900083E
:101B000010B50020C0430B4908800B48407880077F
:101B1000800F032807D105231B02002210219220E9
:101B200001F00CFA05E0054B01221021922001F092
:101B300005FA10BD76000020F400002007FC00002C
:101B400010B504460020C043214908802148407850
:101B5000C007C00F002824D03F235B011EA2002134
:101B6000402000F047FF002C06D03F235B011AA263
:101B700000214020FFF74AFE164840780221084025
:101B8000022807D105231B0200221021922001F018
:101B9000D5F91CE0114B01221021922001F0CEF961
:101BA00015E01F23DB020EA20021402000F022FFDF
:101BB000002C06D01F23DB0209A200214020FFF7E2
:101BC00025FE064B01221021922001F0B7F910BD2D
:101BD00076000020F4000020BFAA000007FC0000EF
:101BE000B9D8000010B504460020C043144908804D
:101BF0001448807820210840202810D13F235B0121
:101C000011A22121402000F0F5FE002C17D03F2327
:101C10005B010DA221214020FFF7F8FD0FE01F23FB
:101C2000DB020AA22121402000F0E4FE002C06D0B5
:101C30001F23DB0205A221214020FFF7E7FD10BD95
:101C400076000020F4000020BFAA0000B9D80000F0
:101C500008B547485F239222212100900E2001F011
:101C6000EDFA444844490880002344A221210E2073
:101C700000F0C0FE0020C0433F490880002341A27D
:101C800031210E2000F0B6FE002341A23121902028
:101C900000F0B0FE00233A2241213B2001F086F8FB
:101CA00000233CA241210E2000F0A4FE00233BA211
:101CB0004121402000F09EFE00233A2251212B209A
:101CC00001F074F800233A2251217D2001F06EF8D2
:101CD000002335A251210E2000F08CFE0023562255
:101CE00051214C2001F062F8002331A251215820EB
:101CF00000F080FE00233A226121332001F056F8E3
:101D000000232DA261210E2000F074FE2C4B3A22FC
:101D100061215D2001F04AF8294B4E2261215820B3
:101D200001F044F8264B3A2270212B2001F03EF8B6
:101D3000234B24A270210E2000F05CFE204B14A245
:101D40007021842000F056FE0020FFF74BFF00209A
:101D500000F040FB0021084600F0A2FA00210846EE
:101D600000F082FA002000F045FA00F02FF808BDDC
:101D7000FFFF0000FFC7000076000020CBF8CFE097
:101D8000BBB70000D6D0D0C4C6B5C2CA3A00000066
:101D9000487A0000B1B6B3FDC6B500003430252046
:101DA0002020202600000000B7F9B6C8000000007F
:101DB000C6B5B2D054000000CFE0B2D0540000004D
:101DC00058540000CAE4B3F6000000001CB5614896
:101DD000C46A002C07DA604B2D226121642000F0D8
:101DE000E5FF644205E05C4B2B226121642000F09A
:101DF000DDFF594800210623224600910190612110
:101E00006C2000F0A7F90020FFF7ECFE5148807825
:101E10008021084080280ED15048102348222121DB
:101E20000090522001F00AFA4D4B0E22212152203F
:101E300001F084F81CBD494810230C222121009098
:101E4000522001F0FBF94348807810210840102807
:101E500007D105231B0200222121522001F06EF838
:101E600005E03F4B01222121522001F067F839485B
:101E70008078C007C00F002807D01F23DB0206228E
:101E800021215E2001F05AF807E0344810230C228B
:101E9000212100905E2001F0D1F92E4880780221A6
:101EA0000840022807D11F23DB02072221216A20D4
:101EB00001F044F807E0294810230C22212100906A
:101EC0006A2001F0BBF923488078042108400428E7
:101ED00007D11F23DB0209222121822001F02EF8E5
:101EE00007E01E4810230C2221210090822001F0DF
:101EF000A5F91848807808210840082807D11F2331
:101F0000DB0208222121762001F018F807E01348AF
:101F100010230C2221210090762001F08FF90D482A
:101F2000807840210840402807D11F23DB020F2280
:101F300021218E2001F002F807E0084810230C222E
:101F4000212100908E2001F079F900F0C5F900BF41
:101F500070E70000F4000020AACA0000FFFF0000A4
:101F600007FC000008B549485F2392222121009018
:101F70000E2001F063F9464846490880002346A236
:101F800021210E2000F036FD002344A231210E2035
:101F900000F030FD002342A241210E2000F02AFD76
:101FA0000020C0433B49088000233A2221214B20D6
:101FB00000F0FCFE00233A2231214B2000F0F6FE17
:101FC00000233A2241214B2000F0F0FE00233A2268
:101FD00051214B2000F0EAFE002332A221211E20D5
:101FE00000F008FD002331A231211E2000F002FD87
:101FF000002330A240211E2000F0FCFC00232FA271
:1020000051211E2000F0F6FC00233A2260215B20C3
:1020100000F0CCFE00233A2270215B2000F0C6FEC7
:1020200000232B226021084600F0C0FE00232D2251
:102030007021602000F0BAFE002322A260211E2041
:1020400000F0D8FC002320A261212E2000F0D2FC59
:1020500000231FA270211E2000F0CCFC00231FA231
:102060006021902000F0C6FC00231CA2702190206B
:1020700000F0C0FC0021084600F002FA00231A46D6
:102080001946184600F072F908BD0000FFFF000075
:10209000FFC7000076000020CBF80000CFE0000072
:1020A000BBB700005020B2CECAFD00004920B2CE1E
:1020B000CAFD00004949B2CECAFD00004420B2CE9C
:1020C000CAFD0000CAE40000B3F6C9CFCFDE0000AD
:1020D000CAE4B3F6CFC2CFDE00000000487A0000A9
:1020E00010B518480024045F0020C043164908803A
:1020F000002C08DA154B0B220921842000F0F6FD94
:10210000604204B205E0114B0A220921842000F04C
:10211000EDFD2046FFF730FB0C4B0C2209219020EF
:1021200000F0E4FD0A48C278084B09218A2000F03B
:10213000DDFD07488278054B0921942000F0D6FD8B
:1021400010BD0000B000002076000020AACA0000E8
:10215000E0000020FFB583B0054616461F463C460A
:10216000002001903046FFF707FB0020C0431F49C5
:10217000088037E0641E1E48005D002801D0012061
:102180000190002C01D1012001900C98A04201D9AE
:1021900001200190019800281BD01548005D3030C7
:1021A000C2B228460D9B049900F000FE611C0C98F9
:1021B000884214D10E48005D3030C1B268460172C9
:1021C0000021417202AA28460D9B0499FFF71EFBCD
:1021D00005E0202228460D9B049900F0E7FD2846E3
:1021E000083085B2002CC5D107B0F0BD76000020C4
:1021F000E0000020F8B5064619480068FFF7BCFA71
:102200000324302528E0641E164B611C595C3031D4
:10221000CAB2A8B2FF23D033512100F0C7FD601C21
:1022200086420ED10F49085C3030C1B26846017059
:1022300000214170A8B2FF23D0336A465121FFF735
:10224000E5FA0835022C07D1A8B2FF23D0332E229D
:10225000512100F0ABFD2D1D002CD4D1F8BD0000A4
:1022600004000020E00000207CB504460D46FF205D
:10227000D030009401900948828C0323512184209E
:10228000FFF768FFFF20D030009501900348C28C13
:10229000042361213820FFF75DFF7CBDF40000209E
:1022A0007CB504460D46FF20D030009401900948CB
:1022B0008289042341215820FFF74CFFFF20D030B2
:1022C000009501900348C289042341218020FFF733
:1022D00041FF7CBDF4000020F8B500271F48066BC5
:1022E0003046F117090F09180E111C488068801933
:1022F0000090009801F06EF800900098FFF73CFA0B
:10230000781E174908800A24302524E0641E1548E9
:10231000005D002800D00127012C00D10127002FEB
:1023200009D01049095D3031CAB2A8B20E4B7021F4
:1023300000F03CFD05E0A8B20B4B2022702100F01C
:1023400035FD0835032C06D1A8B2074B2E2270218B
:1023500000F02CFD2D1D002CD8D1F8BDF40000207C
:1023600076000020E0000020AACA0000FEB5044666
:102370000D4616461F46FF20D030009401901448A9
:102380000A23212102695020FFF7E4FEFF20D0300C
:10239000009501900E480A23312142695020FFF731
:1023A000D9FEFF20D0300096019009480A23402131
:1023B00082695020FFF7CEFEFF20D03000970190B9
:1023C00003480A235121C2695020FFF7C3FEFEBD16
:1023D000F4000020F8B50646002726480068FFF7FD
:1023E000CBF9781E24490880072454253FE0641E59
:1023F0002249A01C085C002800D00127012C00D134
:102400000127A64200D90127002F1ED01B49A31C7B
:10241000C95C3031CAB2A8B2FF23D033312100F0F9
:10242000C5FC601C864217D11449A01C085C3030E2
:10243000C1B26846017000214170A8B2FF23D033B9
:102440006A463121FFF7E2F906E0A8B2FF23D03354
:102450002022312100F0AAFC0835012C07D1A8B2B6
:10246000FF23D0332E22312100F0A0FC2D1D002CA3
:10247000BDD1F8BD0000002076000020E000002063
:102480007CB504460D46FF20D03005230094019012
:102490000948602102686820FFF75CFEFF20D03009
:1024A000052300950190054800684242702168208C
:1024B000FFF750FE7CBD0000080000200C0000204B
:1024C00010B50F48C07A002810D00D48807A002837
:1024D0000CD196200A498872C97AC807C00FFFF745
:1024E00071F90748C07A401E0549C872054800784E
:1024F000002804D0FFF7F4FD00200249087010BD49
:10250000CC000020B40000200648C07A002808D083
:102510000448807A002804D00248807A401E01498D
:1025200088727047CC0000204348C06902210843EC
:102530004149C861084640692321490408433E498E
:1025400048613E4800680F21090288433B49086002
:1025500008460068052149020843384908600846D2
:10256000006AFF2109048843344908620846006A6A
:10257000112109040843314908620846C0680F2147
:10258000090288432D49C8600846C0680521090230
:1025900008432A49C8602A4800680C218843284912
:1025A00008600520C8600920C006006803210904EE
:1025B00088430921C90608600846C06821490840C7
:1025C0000921C906C8600846C0681F490843092197
:1025D000C906C86000201D49088088631B49203156
:1025E00008811B481949C86200208881C8134862C5
:1025F0001648203000880221084314492031088001
:1026000008460088124920390840104920310880C6
:102610000E48008B0F4908430C490883084600897F
:10262000022108430949088108460088012108431E
:10263000064908807047000000100240000400486E
:1026400000140048FFFF3CFC000041010004004072
:10265000FFFF00002121000030B53B4B5B6A9AB2BE
:102660003A4B1B889A4224D0384B1B889A4210DD83
:10267000364B1B88D31A012B1BDD344B1B889B1C4C
:10268000324C2380324B1B8801242343304C23805F
:102690000FE02E4B1B889B1A012B0ADD2B4B1B884E
:1026A0009B1E2A4C23802A4B1B8802242343284C40
:1026B0002380264B1B88274CA34203DC234B1B881B
:1026C0000F2B05DA0123DB03204C23801E4C6362B1
:1026D000002036E04300204CE15A83001F4CE358B1
:1026E0001B8A44001E4D2C5B2340002B15D14B1C34
:1026F00099B2FF23F533994208D14400E41C012329
:10270000A340134C24882343114C2380114B0A33DC
:10271000994212DDFF21F6310FE003290CDDFF2382
:10272000F533994208DA4400A41C0123A340084C65
:1027300024882343064C238000214300064CE152A9
:10274000401C0528C6D330BD000400408C0000208A
:102750008E000020F0FF0000EA000020780000203A
:102760004450000800BFFEE72B484069012189045E
:102770000843294948610846C069012149050843C1
:102780002549C86125488088C0210843234988809D
:10279000084680680F2109030843204988600846DD
:1027A00000680F21090388431C4908600846C06877
:1027B0000F21090388431949C860084600680521AC
:1027C00049030843154908600846C0680521090304
:1027D00008431249C8600846006A0002000A0862FD
:1027E0000846006A1121090608430C4908620C4892
:1027F00000680C4908400A490860084600688914C6
:1028000088430749086008480861084600680121B4
:102810000843034908607047001002400004004864
:1028200000540040FEE0CF000705210030B505460A
:102830000848446808480440012040032818012142
:1028400089030843044303484460202000F062F8F1
:1028500030BD000000540040009800FCFFB5074662
:1028600015460026002D02D1002004B0F0BD2648F8
:10287000806926490840002802D008462249C861DC
:1028800021484468224804400120400338180121AF
:102890000904401804431C484460022000F03AF840
:1028A000002801D00020E0E7174901988862402005
:1028B00000F030F8002801D00020D6E71248446824
:1028C00013480440012040033818012189020843BD
:1028D000C90340182904084304430B4844600EE030
:1028E000042000F017F8002801D0F0B2BDE7064838
:1028F000406AC1B203988155761C681EC5B2002D8E
:10290000EED1F0B2B1E7000000540040101B00000F
:10291000009800FC0146052252030EE01046521EAC
:10292000002801D1012070470D48806901231B0355
:102930001840002801D00120F5E7094880690840C7
:102940000028EBD00648806910231840002804D0E6
:102950001020034BD8610120E5E70020E3E70000E9
:1029600000540040FFB581B006460F4614460020D3
:1029700000901D4880691D490840002802D0084683
:102980001949C8611848456819480540601C000489
:102990000121490371180122520689180843054391
:1029A000114845600120FFF7B5FF002801D005B0B0
:1029B000F0BD0D4887620FE00120FFF7ABFF002854
:1029C00000D0F4E700990498405C074988620098B9
:1029D000401C0090601EC4B2002CEDD10120FFF716
:1029E00099FF00BFE3E7000000540040101B000007
:1029F000009800FCFFB581B0064614462DE0FF2785
:102A000000250EE01748405D2178884207D115491E
:102A1000681C085C6178884201D16F1005E0A81C31
:102A200085B21048405D0028ECD100BFFF2F0AD0CE
:102A3000FAB23046049B029900F020FA304610307A
:102A400086B2A41C09E022783046049B029900F06B
:102A5000ADF93046083086B2641C20780028CED10B
:102A600005B0F0BDB83F00082C4840690121890439
:102A700008432A4948610846C0698915084327491F
:102A8000C861274800680C2188432549086008462A
:102A9000006808210843224908600846006AF021BE
:102AA00088431F49086208468088022188431C49E0
:102AB00088800846808A0C210843194988822F2083
:102AC00018490881632017492039C86200204863EB
:102AD0000846008B602108431249203908831148B9
:102AE0000088012108430F4908800E482030808863
:102AF000C91308430B49203188800A4820380088D0
:102B0000012108430749203908800846808A0121AD
:102B100008430449203988827047000000100240B1
:102B2000000400482020004070B5044600252046DF
:102B3000FDF72AFB84B20021084600F079FA00F084
:102B4000F3FB10201149088108200921C90688617A
:102B500000BF0AE000BF0E4800890321C9020840F7
:102B60008842F8D00A4884816D1C05200003854204
:102B7000F0D300BF06480089802108408028F9D0A2
:102B800010200921C906886170BD0000200000489E
:102B9000003001403248806901210903084330496F
:102BA0008861084640690321490408432C4948616B
:102BB00001202C49088104200921C90688611020C0
:102BC00088610820886127482038006800090001D2
:102BD0002449203908600846006805210843214936
:102BE0002039086008468068052108431D492039BE
:102BF000886008468088052188431A4920398880E2
:102C00000920C0060068184908400921C906086063
:102C1000084680681449C94308430921C9068860E9
:102C200008460068114908430921C906086008469A
:102C30008088FC2188430921C90688800846006AEB
:102C40000003000B08620A480A49088007200002B6
:102C5000888008460088402108430649088070475C
:102C600000100240200400480F00FFFF50A90000A0
:102C700004C300000030014010B5FFF78BFF0120B6
:102C800000F00EFE0120164988611E2000F008FEAB
:102C9000112000F031FB0A2000F002FE362000F087
:102CA0002BFB602000F00EFB3A2000F025FB0520F6
:102CB00000F008FB8023A0220021084600F00AFA59
:102CC000292000F019FB0748FFF72EFFFFF7CCFE85
:102CD000632000F0A3F90020C0430349088010BD21
:102CE00000040048FFFF000076000020FFB583B01D
:102CF00004460D461E46012001903046FDF744FA79
:102D000086B228460830C3B2A01DC2B2E9B2E0B212
:102D1000009000F0DFF900F007FB10201F49088148
:102D200008200921C906886128E0002720E0062143
:102D3000059848431A494018C05D029000BF1948E1
:102D400000890321C90208408842F8D001990298FD
:102D50000840002802D01348868105E01248008808
:102D6000FDF712FA0F4988810298401002907F1CEB
:102D7000062FDCD301984006000E01900198002830
:102D8000D3D100BF07480089802108408028F9D0AE
:102D900010200921C906886107B0F0BD2000004855
:102DA000D84700080030014076000020F0B585B01B
:102DB00004460D4616461F4630462038C6B23846F1
:102DC000FDF7E2F987B228461030C3B2204608303A
:102DD000C2B2E9B2E0B2009000F07CF900F0A4FACF
:102DE00010202249088108200921C9068861002095
:102DF00003902AE030011E494118039808580190B9
:102E0000002002901BE000BF1A4800890321C9027C
:102E100008408842F8D00198C007C00F002802D0AF
:102E20001448878105E014480088FDF7ADF9114981
:102E300088810198400801900298401C02900298F5
:102E40002028E0D30398001D039003981028D1D3C5
:102E500000BF08480089802108408028F9D0102050
:102E60000921C906886105B0F0BD000020000048B6
:102E7000C83900080030014076000020FFB583B05B
:102E800004460D461E463046FDF77EF986B22846BA
:102E90001030C3B220461030C2B2E9B2E0B20090A6
:102EA00000F018F900F040FA1020204908810820AD
:102EB0000921C9068861002728E0059840011C49BE
:102EC0004018C0590190002002901BE000BF194833
:102ED00000890321C90208408842F8D00198C00740
:102EE000C00F002802D01348868105E012480088F0
:102EF000FDF74AF90F49888101984008019002982E
:102F0000401C029002982028E0D33F1D202FD4D3EC
:102F100000BF08480089802108408028F9D010208F
:102F20000921C906886107B0F0BD000020000048F3
:102F3000184000080030014076000020FFB583B043
:102F400004460D4617460698FDF71EF980B2069016
:102F5000022F0DDA28460F30C3B220460C30C2B221
:102F6000A81CC1B2E0B2009000F0B4F804260BE057
:102F700028461030C3B220460C30C2B2E9B2E0B2EB
:102F8000009000F0A7F8002600F0CEF910201F49AD
:102F9000088108200921C906886128E078011C49B8
:102FA0004018805B0190002002901CE000BF19488F
:102FB00000890321C90208408842F8D00198C0075F
:102FC000C00F002803D013490698888105E01248F5
:102FD0000088FDF7D9F80F498881019840080190D1
:102FE0000298401C029002980C28DFD3B61C202EB9
:102FF000D4D300BF07480089802108408028F9D039
:1030000010200921C906886107B0F0BD20000048E2
:10301000D84500080030014076000020632800DD1C
:1030200063206321091A014A516370470020004060
:1030300070B505460C4610202449088108200881F7
:103040002A202349087300BF2148008980210840B5
:103050008028F9D008200921C90688612846FDF793
:1030600093F81B4988819F20FDF78EF818498881C5
:1030700000BF17480089802108408028F9D0082027
:10308000124908812B201249087300BF104800899B
:10309000802108408028F9D008200921C9068861CC
:1030A0002046FDF771F80A4988817F20FDF76CF80A
:1030B0000749888100BF0648008980210840802890
:1030C000F9D010200921C906886170BD2000004890
:1030D00000300140F8B507460C4615461E46102044
:1030E00024490881082008812A202349087300BF49
:1030F00021480089802108408028F9D00820092132
:10310000C90688613846FDF73FF81B498881681E6B
:10311000FDF73AF81849888100BF174800898021D7
:1031200008408028F9D00820124908812B20124934
:10313000087300BF10480089802108408028F9D01A
:1031400008200921C90688612046FDF71DF80A49B3
:103150008881701EFDF718F80749888100BF06486E
:103160000089802108408028F9D010200921C90653
:103170008861F8BD2000004800300140F8B50546E0
:103180000E4614461F4609E022783B463146284643
:10319000FFF70CFE2846083085B2641C20787E2894
:1031A00002DC20782028EFDAF8BD000070B580231B
:1031B000902200211020FFF78DFF00F0B5F81020BD
:1031C0001A49088108200921C906886100241CE0E9
:1031D0001748065D002515E000BF16480089032149
:1031E000C90208408842F8D080203040002803D02F
:1031F00011481049888103E00020C0430D498881AF
:1032000076006D1C082DE7D3641C0120C0028442A7
:10321000DED300BF07480089802108408028F9D00C
:1032200010200921C906886170BD000020000048F7
:1032300044480008003001407C1F0000FEB50446F1
:103240000D4616461F463046784301900898FCF715
:103250009BFF80B20890E819C3B2A019C2B2E9B2CC
:10326000E0B20090FFF736FF00F05EF8102013493F
:10327000088108200921C9068861002002900DE01C
:1032800000BF0F4800890321C90208408842F8D0D6
:103290000B49089888810298401C02900199029875
:1032A0008842EDD300BF064800898021084080286D
:1032B000F9D010200921C9068861FEBD2000004810
:1032C0000030014010210A4A118108210922D2064A
:1032D00091610849087300BF06490989802211409D
:1032E0008029F9D010210922D2069161704700008F
:1032F00020000048003001401021094A11810821B6
:1033000011810849087300BF0649098980221140CC
:103310008029F9D010210922D2069161704700005E
:10332000200000480030014000B52C20FFF7E4FFEA
:1033300000BD704710B5002819DA1A4A03071B0FA1
:10334000083B9B089B00D2588307DC0EFF23A34059
:103350009A438B071B0E8407E40EA3401A43114BBC
:103360000407240F083CA408A4001A5118E00E4AD0
:1033700003231B02D21883089B00D2588307DC0E5C
:10338000FF23A3409A438B071B0E8407E40EA34040
:103390001A43054B032424021B198408A4001A5164
:1033A00010BD00001CED00E000E100E0FEB50446A9
:1033B00000252E4601272046294632463B46FCF78B
:1033C0002BFF034A002301910090FCF775FFFEBD1F
:1033D00040B743BA70B506463046054900F018FAC2
:1033E000044600220123FCF767FF401C70BD00006B
:1033F00040B743BA7047000008B5FFF7B5F922E0BF
:103400004A20FFF713FA00280CD16B460122002155
:103410004A20FFF723FA002804D068460078A52840
:1034200000D111E00F48FFF77FFB642000F038FA6D
:103430001F23DB020CA200210846FFF79FFEFF209E
:10344000913000F02DFADBE700BF00F057F80B4B8E
:10345000342200214A20FFF701FA00F042F800F080
:1034600086F808BDFFFF0000494943204348454313
:103470004B204552524F522100000000F400002022
:1034800010B500231A46C1214A20FFF76BFA00F05D
:103490004CF810BD10B500231A46C0214A20FFF792
:1034A00061FA642000F026FA00F03FF810BD10B574
:1034B00000231A46C8214A20FFF754FA012000F0E1
:1034C000EFF900F032F810BD10B500231A46C721FD
:1034D0004A20FFF747FA012000F0E2F900F025F852
:1034E00010BD10B500231A46C9214A20FFF73AFA49
:1034F000012000F0D5F900F018F810BD10B5002338
:103500001A46C2214A20FFF72DFA00F00EF810BD2E
:1035100010B500231A46C5214A20FFF723FA0120DF
:1035200000F0BEF900F001F810BD08B50FE06B46E1
:10353000012211464A20FFF791F9684600780421DC
:103540000840002800D108BDC82000F0D3F9EEE7FC
:1035500010B5FFF7EAFF00231A46C3214A20FFF700
:1035600001FA062000F09CF9FFF7DFFF10BD10B54F
:1035700000231A46C4214A20FFF7F4F9022000F084
:103580008FF9FFF7D2FF10BD10B505480088054937
:10359000884204DBFFF7DCFF00200149088010BDF2
:1035A000900000201027000001200149088070478A
:1035B000900000200848008800280CD006480088A9
:1035C000401C05490880084600880449884202DDFD
:1035D000084601490880704790000020102700002D
:1035E00010B5FFF795FF074B022201214A20FFF794
:1035F00035F9044B29330A222A214A20FFF72EF9F4
:1036000010BD0000F500002010B5044B2222082157
:103610004A20FFF7A7F9FFF7AAFF10BDFC00002022
:1036200010B5094B052203214A20FFF79BF90648F4
:10363000C01E4078C007C00F002802D0FFF72AFF45
:1036400001E0FFF71DFF10BDF700002070470000EC
:1036500011201D4908601D4840681C494860084603
:1036600040684860084640687F21C903884317497D
:103670004860084640680521C9040843134948606A
:10368000084600680121090608431049086000BF88
:103690000E4800680121490608400028F8D00B4870
:1036A0004068800880000949486008464068022157
:1036B00008430649486000BF044840680C210840A0
:1036C0000828F9D170470000002002400010024095
:1036D0007047000010B51B480068012108431949D4
:1036E000086008464068184908401649486008467E
:1036F000006816490840134908600846006801211F
:10370000890488430F490860084640683F2109043E
:1037100088430C4948600846C06A00090001C86235
:103720000846006BFF215431884306490863084668
:10373000406B40084000486300208860FFF788FF26
:1037400010BD0000001002400CB8FF08FFFFF6FE9D
:1037500010B50848008A0849084006490882FEF763
:103760007BFFFDF709F8FFF725FFFEF7CDFEFDF71C
:1037700055FE10BD00440140FEFF000010B5144886
:1037800080690121490408431149886115200121FC
:103790008140104A116000BF0221FFF7CBFD2F20AE
:1037A0000D4908810D480C492039C86201208881E3
:1037B0000846008801210843074920390880084647
:1037C000808A0121084304492039888210BD000005
:1037D0000010024000E100E020440140E703000047
:1037E000F8B582B28BB204140D1410465843002170
:1037F00026465E43371436048019794116466E43D7
:10380000371436048019794126466E438919F8BD6C
:10381000F8B582B28BB2040C0D0C1046584300214F
:1038200026465E43370C36048019794116466E43AE
:10383000370C36048019794126466E438919F8BD44
:1038400030B47446641E2578641CAB4204D3635DB7
:103850005B00E31830BC18471D46F8E710B50B486D
:103860000069042188430949086109490948006839
:10387000FCF7A3FD40B208490870002008567D21DE
:10388000C900484300B20549088010BD00E000E0CF
:1038900000127A00B800002072000020740000209E
:1038A0000146124A0023D35E0A465A43104B5A611E
:1038B00000229A611A46126901231A430C4B1A61BD
:1038C00000BF0B4A1069C207D20F002A04D00122A0
:1038D00012040240002AF4D0054A1269520852002C
:1038E000034B1A6100229A617047000074000020A7
:1038F00000E000E00146124A0023D3560A465A432C
:10390000104B5A6100229A611A46126901231A4328
:103910000C4B1A6100BF0B4A1069C207D20F002A74
:1039200004D0012212040240002AF4D0054A126990
:1039300052085200034B1A6100229A61704700003E
:103940007200002000E000E0FFF788FFFFF794F925
:10395000FCF716FEFFF72AFC7D200001FFF7A0FF11
:10396000FEF7E2FDFFF70AFFFFF746FDFCF7B0FEAA
:10397000FDF798FCFDF794FF09E0FDF757FDFCF714
:10398000A7FEFEF79DFDFFF7FFFDFDF72DFDF4E718
:10399000C8F500D0A100D6D000B4F30000000000AC
:1039A000010000000A00000064000000E8030000BD
:1039B00010270000A086010040420F00809698006A
:1039C00000E1F50500CA9A3B00000000000000007D
:1039D00000000000000000000000000808080808BF
:1039E0000808000008080000004824241200000015
:1039F00000000000000000000000004848487E244D
:103A000024247E24242400000000103C5252121C66
:103A100030505052523C1010000000000000824410
:103A20002810284482000000000000000018180040
:103A3000FF00181800000000000604040200000047
:103A400000000000000000000040201010080808DE
:103A50000808081010204000000204080810101088
:103A600010101008080402000000000008086B1C79
:103A70001C6B08080000000000000000001010107F
:103A8000FE10101000000000000000000000000008
:103A90000000000006040402000000000000000016
:103AA0007E00000000000000000000000000000098
:103AB000000000000606000000004020202010103A
:103AC00008080804040202000000001824424242D0
:103AD0004242424224180000000000101C10101046
:103AE00010101010107C00000000003C42424240C8
:103AF00020100804427E00000000003C42424020AA
:103B000018204042423C00000000002030302824B1
:103B10002422FE2020F800000000007E0202021E87
:103B200022404042221C0000000000182402023AF9
:103B300046424242443800000000007E42202010ED
:103B400010080808080800000000003C4242422417
:103B500018244242423C00000000001C2242424223
:103B6000625C4040241800000000000000001818AB
:103B7000000000001818000000000000000000080D
:103B800000000000000808080000004020100804A1
:103B900002040810204000000000000000007E0029
:103BA000007E000000000000000000020408102059
:103BB00040201008040200000000003C4242462061
:103BC00010101000181800000000001C225A555553
:103BD0005555553A423C00000000000808181414DE
:103BE000243C224242E700000000001F2222221E45
:103BF00022424242221F00000000007C424201019A
:103C000001010142221C00000000001F224242422A
:103C100042424242221F00000000003F4212121E98
:103C200012120242423F00000000003F4212121EE8
:103C300012120202020700000000003C22220101D1
:103C400001712122221C0000000000E74242424292
:103C50007E42424242E700000000003E0808080899
:103C600008080808083E00000000007C1010101032
:103C7000101010101010110F0000007722120A0E01
:103C80000A1212222277000000000007020202023C
:103C900002020202427F000000000077363636360C
:103CA000362A2A2A2A6B0000000000E346464A4AC8
:103CB00052525262624700000000001C2241414102
:103CC00041414141221C00000000003F424242426B
:103CD0003E020202020700000000001C2241414196
:103CE0004141414D321C60000000003F4242423ED3
:103CF0001212222242C700000000007C424202044D
:103D000018204042423E00000000007F4908080899
:103D100008080808081C0000000000E74242424270
:103D200042424242423C0000000000E7424222245C
:103D300024141418080800000000006B2A2A2A2AFC
:103D40002A36141414140000000000E7422424183A
:103D50001818242442E700000000007722221414DF
:103D600008080808081C00000000007E2120101030
:103D700008040442423F00000078080808080808C8
:103D8000080808080808780000000204040408086D
:103D90000810102020204040001E1010101010109D
:103DA0001010101010101E00001824000000000059
:103DB0000000000000000000000000000000000003
:103DC00000000000000000FF0006080000000000E6
:103DD0000000000000000000000000000000001CC7
:103DE00022302C22326C0000000000000302021A74
:103DF00026424242261A000000000000000000385F
:103E00004402020244380000000000006040407C90
:103E10004242424262DC0000000000000000003C20
:103E200042427E02423C0000000000003048083E52
:103E300008080808083E0000000000000000007CA0
:103E400022221C023C42423C000000000302023AD3
:103E50004642424242E700000000000C0C00000E07
:103E600008080808083E0000000000303000003854
:103E7000202020202020221E0000000003020272C9
:103E8000120A0E1222770000000000080E0808082F
:103E900008080808083E0000000000000000007F3D
:103EA0009292929292B70000000000000000003B46
:103EB0004642424242E70000000000000000003C91
:103EC00042424242423C0000000000000000001B51
:103ED00026424242261A0207000000000000005855
:103EE00064424242645840E0000000000000007755
:103EF0004C040404041F0000000000000000007CCB
:103F000042023C40423E0000000000000008083E23
:103F100008080808483000000000000000000063A6
:103F20004242424262DC00000000000000000077D4
:103F3000222214140808000000000000000000DB2A
:103F400091525A2A24240000000000000000006E54
:103F5000241818182476000000000000000000E774
:103F60004224241818080806000000000000007E03
:103F700022100808447E000000C0202020202020BD
:103F8000102020202020C000101010101010101041
:103F90001010101010101010000304040404040486
:103FA0000804040404040300045A20000000000074
:103FB0000000000000000000CEA2B2A8D4B4CBF8EC
:103FC000CFE0BBB7C6B5C2CAB9A6B3FDB1B6B6A8F5
:103FD000D7B4CCACCAE4B3F6D6B5CBB2CAB1CFE055
:103FE000CEBBB2D0B2EEB7B6CEA7B5F7D6C6C6F73F
:103FF000C6ABD6C3B5E7D1B9BFAAB9D8B4F3D6D04A
:10400000D0A1C8F5D0C4B7F9B6C8C9CFCFC2CFDEEA
:10401000B2CECAFD000000008810A812A412A20AA5
:10402000E97B08240428F62B0528E42924292415F3
:104030002413242914280C44000404040804C87F11
:10404000414442245204D03F482148114712440AB7
:104050004404240A241190600000E47F280428020C
:10406000A13FA220A23FA820A83FA42427042415F2
:10407000942454440C050002080488243C250415AB
:104080000204BD3F88208824BF24882488248824F3
:10409000280A1811882040401000103F10211021DC
:1040A0007F21103F182138215421543F1221112122
:1040B00010211021103F102100000000BF7F0808D0
:1040C0000808080408043E160825884448440804E3
:1040D00038040704020400040800887F0A043A0236
:1040E0008A3F8A20FF2480248824AA24AA24AA2282
:1040F000210A10118C20434040008000FE3F400008
:104100002222F41188084412F22700048000FF7F65
:1041100080008000800080000002000200027F0218
:10412000883F082208220822082208210821782135
:104130008F2082204014200800021E0212058A08E7
:104140004A10A66F0A021202F23F1202560A4A12DF
:10415000222212228202020110011002D03F080026
:1041600048108C108C08EA7F09000800C83F4820DE
:1041700048204820C83F482040008000FE7F024081
:1041800001200000FC1F800080008800881F88003C
:1041900088009400E27F0100100210121022122207
:1041A0001402F47F100210021802140513051009FE
:1041B000900890105020304080008000FE3F80002A
:1041C0004001200250048C1803608000101112215D
:1041D00012481248E10F00000402040584085F1031
:1041E000A46F0200CA23492A5F2AC82B582A4F2AE3
:1041F000CA2B4822482A481380008000841084106B
:1042000084108410FC1F8010800080008220822097
:1042100082208220FE3F002010021002F03F0802A0
:104220000802CC1F4C10CA1F4910C81F4810C81FD5
:1042300048104810F87F0800003CE0030F22492492
:104240008910EF7F294059104F10C97D2911591548
:104250008F7C491020101010001000103E1022100A
:10426000A27F221022103E102211221222122210AE
:104270003E102210001400081000103F10211021E1
:104280007F21103F182138215421543F1221112140
:1042900010211021103F10211001100210020800FF
:1042A000E83F0C000C104A1049108808880888085C
:1042B00088040804F87F0800000A00123F02043A4C
:1042C00084073C02227AE20726222912100C1044AD
:1042D000084A0451C260014010042002FE3F8000E1
:1042E0008000FC1F40004000FF7F20001000E81FFE
:1042F000040102010101F83F20022002FF7F200299
:104300000800901F92108410A410A01490088E40F2
:1043100088408840087F00000000FE3F8220822005
:10432000FA2F8220F2278220FA2F82288228822ADE
:1043300082248220FE3F02200000E23F2422242229
:10434000A02F20222722E43F2420A42FA428B42831
:10435000AC2F242020281010202024202420FC25ED
:1043600022242024FF2720242024FC252425242562
:104370006421A4202028201000007C3E44224422F6
:104380007C3E80048008FF7F400130060C180360EB
:104390007C3E442244227C3E08010802E83F24205F
:1043A0002420E63F26002500E43F64255425D43F21
:1043B000542554254C254430FE3F2222FE3F8000E8
:1043C000FE3F8000F80F0808F80F0808F80F0808EB
:1043D000F80F0808FF7F0000800080008000FC1FAD
:1043E000841084108410FC1F841084108410FC1F1F
:1043F000845080408040007F0000FC7F0400040166
:10440000040104010401F43F04010401040904113E
:1044100004110201FA7F01000000FE3F10041004A5
:10442000100410041004FF7F100410041004100482
:10443000080408040404020408081008100400001A
:10444000FC1F800080008000FF7F80004001400151
:10445000200210040C18036080008000800080009F
:104460008000FF7F80008000400140012002200288
:1044700010040808041003608000800080008000A1
:10448000FC1F84108410841084108410FC1F84107E
:10449000800080008000800080008000800080001C
:1044A00080008808881088208420844082408140D1
:1044B00080008000A000400000007E3F402040209F
:1044C0007E3F020102017E3F442248246030582C86
:1044D00046234020281410080000400080000001FE
:1044E00000012000201024202420244022402248C3
:1044F00021082008C00F00000800887F08003E1F28
:104500002A112A112A1F2A00AA3FAA24AA24BA3F44
:1045100088248824883F882080000001FC7F440490
:104520004404FC3F44044404C4070400F40F24087A
:1045300042048203610C1C704000400040004000B7
:1045400040004000C01F40004000400040004000CC
:1045500040004000FF7F00000000FF7F400040005F
:10456000400040004002400440084010401040001D
:1045700040004000400040000000DE1F52104A1082
:10458000CA1F46104A10D21F52225212560C4A0419
:1045900042084211C2604200400020021004F80F9D
:1045A0004000FE3F10040809C41033628001600817
:1045B00018040003E0001E00100492045404107C50
:1045C000FF2254229222112508147F144408420825
:1045D000261418142C2243410000000000000000A3
:1045E000E000100110011001F803FC071C071C0774
:1045F000FC07F80300000000000000000000E000DD
:104600001001100100010001F803FC071C071C0742
:10461000FC07F8030000000000000000000000009C
:10462000000020007000D8008C0104010603020283
:10463000FF07FF070000000000000000000000006E
:104640000000FF07FF070202060304018C01D800E7
:1046500070002000000000000000000000000C00BE
:104660003C00EC008C010C030C060C038C01EC00EC
:104670003C000C00000000000000000000000006EC
:104680008007E006300618060C0618063006E0061D
:104690008007000600000000000000008000C0014C
:1046A000A0028000FE0780008E00920092008E0023
:1046B0000200020002000000000000008000C001B3
:1046C000A0028000FE0780009E00820082008E0013
:1046D0000200020002000000000000008000C00193
:1046E000A0028000FE0780009200920092009200DB
:1046F00012000C000000000000000000000000009C
:104700000E009200920092008E008000FE07800052
:10471000A002C001800000000000360E49014906D9
:10472000490849070000800040003800AF0F3800FA
:1047300000000000000000000000270229022702FC
:104740002102E10E0000800040003800AF0F380069
:104750000000000000000000000000000000000059
:10476000000000000000000000001E022203A20260
:104770001E02020202028207000000000000000088
:10478000000000000000000000001E03A20422043C
:104790001E020201820082076700920092006200FE
:1047A00000001003900450084E09800458032400B0
:1047B000520E420124011801EE0EA20AEE0E62060C
:1047C000AE0A1003900450084E09800458032400D8
:1047D000520E4201240118017E8181817E000082F7
:1047E000FF800000C6A191898600428189897600F8
:1047F000102C22FFA0004F89898971007E89898B46
:1048000070000301F90701007689898976000ED1CD
:1048100091917E0008087F08080008080808080031
:10482000008000000000011FE038070181FF898936
:1048300076008181FF81810080F8273CE080C68975
:1048400089916300000000000000000000000000EB
:104850000000000000000000000000FFFF0000005A
:10486000000000000000000000003FFE3FFC0000D0
:1048700000000000000000000003F800001FC0005E
:104880000000000000000000001F00000000F80011
:1048900000000000000000000078000000001E0082
:1048A000000000000000000003C00000000003C082
:1048B00000000000000000000F000700038000F06F
:1048C00000000000000000003C0003100300001C7A
:1048D0000000000000000000F00001B80038000FE8
:1048E0000000000000000001C0001EC00500000321
:1048F00080000000000000070000188006F800009B
:10490000E00000000000000C0000130002000000A6
:104910003000000000000038030001803E700000FD
:104920001C000000000000702780030002400040CF
:104930000E000000000000C0620001E00480007C66
:104940000300000000000180648003E00418007888
:10495000018000000000030031800C00001803E01B
:1049600000C000000000060068080000000003F01E
:104970000070000000001C00397800000000178063
:1049800000380000000038003938000000000EC078
:10499000001C0000000030003500000FF00000C0D7
:1049A000000C000000006000710003FFFFC0004029
:1049B000000600000000C00052003F0000FC006044
:1049C00000030000000180800000F000000F007074
:1049D0000001800000030100000780000001E038B2
:1049E0000000C00000060E00000E00000000700075
:1049F0000430600000061C800038000000001C002D
:104A000007706000000C058000E000000000070057
:104A100003F03000001809980180000000000180B8
:104A200023E0180000100AD803000000000000C0B6
:104A30001FB00800003013C00E000000000000701E
:104A400001100C00006001E01800000000000018D8
:104A50000100060000600030300000000000000C83
:104A60000100060000C00000600000000000000619
:104A70000380030000C00000C0000000000000032D
:104A80000380030001800081800000000000040119
:104A900081800180018000010000002000001C00D6
:104AA00080800180030000030000006000007800A7
:104AB000C00000C003010006000000600001F01803
:104AC000600000C0020D000C000000600007F04014
:104AD00030000040060F180800000060001FE100D1
:104AE000100390600401901800000FFE00FFC42026
:104AF000180148200C00F01000000FFF83FFD000C9
:104B00000800B0300C0C0030000000F00FFF8000F7
:104B10000C057E30081E0060000006603FFF00802C
:104B20000610BA10181F806000007860FFFF0000B8
:104B30000613C5181807C0400003E063FFFE00001D
:104B4000023F5F981006C0C0001FC06FFFFC02004C
:104B50000301108810004080007F807FFFFC04006C
:104B6000010018083000418000FF00FFFFF800003E
:104B70000180080C3000618003FF03FFFFF808008C
:104B80000180000C3000010007FE0FFFFFF016004F
:104B90000080000C200001000FFC3FFFFFE0070039
:104BA00000800004200003001FFC03FFFFE02F80B3
:104BB00000C00004200003003FF800FFFFC05FC0FA
:104BC00000C00004600002007FF8003FFF803FE06B
:104BD00000400006600002007FF8081FFF80BFF061
:104BE0000040000660000200FFF00E1FFF017FF092
:104BF0000040000660000200FFF0002FFE007FF082
:104C00000040000660000601FFF0000FFE027FF882
:104C10000060000660000601FFF0000FFC047FF852
:104C20000060000660000601FFF0000FF8007FF84A
:104C30000060000640000601FFF0000FF8087FF852
:104C40000060000240000601FFF0001FF0107FF836
:104C50000060000260000600FFF0001FE0007FF827
:104C60000060000660000600FFF0001FE0207FF0FB
:104C700000600006600006000000001FC040000049
:104C80000060000660000200FFFFFFBFC03FFFF0B2
:104C90000040000660000200FFFFFFBF807FFFF0C2
:104CA0000040000660000200FFFFFFBF017FFFF031
:104CB00000400006600002000000003F000000000D
:104CC00000400006200003000FFE007E0001FF00F0
:104CD00000C00004200003000000007C040000006D
:104CE00000C0000420000100FFFFFF7E03FFFFF86B
:104CF0000080000430000100FFFFFEF807FFFFF80E
:104D00000080000C30000181FFFFFEF417FFFFFC64
:104D10000180000C30000180000000F40000000061
:104D20000180000C100000800001F1E0007800001C
:104D300001008008100000C000003DC041C000001C
:104D40000300400818010040000001C800000000F6
:104D50000201E01818080060000003800000000055
:104D600006000018080180600000038100000000B8
:104D7000060000100C0600300000031000000000C8
:104D80000C0000300C0000100000020000000000C9
:104D900008000030040000180000060400000000B5
:104DA000180400200600000800000428000000008D
:104DB000100000600200300C000000000000000045
:104DC000300A0040030080060000081000000000C8
:104DD000600100C00300200300000060000000002C
:104DE000C00000C0018000010000000000000000C1
:104DF000800001800180000180000040000000016F
:104E00008000018000C00000C0000080000000039E
:104E10000000030000C00000600000000000000669
:104E20000020030000600400300000000000000CBF
:104E300000100600006008001800000000000018C4
:104E400000000600003000000E00008C32000070F0
:104E500000000C000010000003000092010000C0E0
:104E60000400080000180000018000926100018029
:104E700000001800000C004000E0008E0000070059
:104E800004003000000600100038008002001C0002
:104E90000100600000060020000E00808500700008
:104EA0000000600000030000000780000001E00037
:104EB0008000C000000180000000F000000F000032
:104EC000000180000000C00000003F0000FC000165
:104ED0006003000000006001000003FFFFC000004D
:104EE00080060000000030008000000FF00000206D
:104EF000000C0000000038008000000000000000EE
:104F0000001C000000001C00020000000000004027
:104F10000038000000000E00010000000000000842
:104F200000700000000003000100000000000020ED
:104F300000C00000000001800100000000004000EF
:104F400001800000000000C00004000000002000FC
:104F500003000000000000700004000000081000C2
:104F60000E000000000000380004000008080000E7
:104F70001C0000000000000C000200000400000003
:104F800030000000000000070000000002000000E8
:104F9000E000000000000001C00000000800000365
:104FA0008000000000000000F00000000000000F82
:104FB00000000000000000003C0000000000003C79
:104FC00000000000000000000F000000000000F0E2
:104FD000000000000000000003C00000000003C04B
:104FE00000000000000000000078000000001E002B
:104FF0000000000000000000001F00000000F8009A
:1050000000000000000000000003F800001FC000C6
:10501000000000000000000000003FFE7FFC0000D8
:105020000000000000000000000000FFFF00000082
:105030000000000000000000000000000000000070
:105040000000000000010008010002000010000044
:105050007050000800000020CC000000040100088F
:105060003C510008CC0000203C0700002001000853
:105070000000000000000000000000000000000030
:10508000000300000000000000000000000000001D
:1050900089070008D5070008450800082909000805
:1050A00079090008790A00085D0B0008410C000826
:1050B000510D0008350E000889070008D5070008C3
:1050C00045080008B90F0008E10F000809100008A2
:1050D00031100008591000087D1100080000000080
:1050E0000000000000000000000000480000004830
:1050F0000014004800140048000000480080000030
:10510000000000000000000000000000000000009F
:10511000000000000000000000000000000000008F
:105120000000000000000000006CDC020000000035
:0C5130000000000001020304060708094B
:04000005080000C12E
:00000001FF
